:020000040800F2
:1028000000400020352D00081D2D00081F2D000858
:1028100000000000000000000000000000000000B8
:10282000000000000000000000000000212D000852
:102830000000000000000000232D00088DB30008F8
:10284000852D0008852D0008852D0008852D0008A0
:10285000852D0008852D0008852D0008852D000890
:10286000852D0008852D0008852D00085546000897
:10287000852D0008852D0008852D0008852D000870
:10288000852D0008852D0008852D0008852D000860
:10289000852D0008852D0008852D0008852D000850
:1028A000852D0008852D0008852D0008852D000840
:1028B000852D0008852D000800000000F121010889
:1028C00002B4714649084900095649008E4402BCC9
:1028D0007047C04602B4714649084900095C490086
:1028E0008E4402BC7047C04603B47146490840009C
:1028F0004900095E49008E4403BC704703B4714629
:10290000490840004900095A49008E4403BC7047F9
:10291000002243088B4274D303098B425FD3030A1E
:102920008B4244D3030B8B4228D3030C8B420DD331
:10293000FF22090212BA030C8B4202D312120902BF
:1029400065D0030B8B4219D300E0090AC30B8B42FD
:1029500001D3CB03C01A5241830B8B4201D38B03AB
:10296000C01A5241430B8B4201D34B03C01A524150
:10297000030B8B4201D30B03C01A5241C30A8B4293
:1029800001D3CB02C01A5241830A8B4201D38B027E
:10299000C01A5241430A8B4201D34B02C01A524122
:1029A000030A8B4201D30B02C01A5241CDD2C30994
:1029B0008B4201D3CB01C01A524183098B4201D310
:1029C0008B01C01A524143098B4201D34B01C01AFB
:1029D000524103098B4201D30B01C01A5241C30873
:1029E0008B4201D3CB00C01A524183088B4201D3E2
:1029F0008B00C01A524143088B4201D34B00C01ACE
:102A00005241411A00D20146524110467047FFE739
:102A100001B5002000F0F0F802BDC0460029F7D053
:102A200076E7704703460B437FD4002243088B426E
:102A300074D303098B425FD3030A8B4244D3030B45
:102A40008B4228D3030C8B420DD3FF22090212BA0A
:102A5000030C8B4202D31212090265D0030B8B4286
:102A600019D300E0090AC30B8B4201D3CB03C01A70
:102A70005241830B8B4201D38B03C01A5241430B4B
:102A80008B4201D34B03C01A5241030B8B4201D33B
:102A90000B03C01A5241C30A8B4201D3CB02C01AA6
:102AA0005241830A8B4201D38B02C01A5241430A1E
:102AB0008B4201D34B02C01A5241030A8B4201D30D
:102AC0000B02C01A5241CDD2C3098B4201D3CB01B4
:102AD000C01A524183098B4201D38B01C01A524163
:102AE00043098B4201D34B01C01A524103098B4267
:102AF00001D30B01C01A5241C3088B4201D3CB0052
:102B0000C01A524183088B4201D38B00C01A524134
:102B100043088B4201D34B00C01A5241411A00D2E4
:102B200001465241104670475DE0CA0F00D049424D
:102B3000031000D34042534000229C4603098B42BD
:102B40002DD3030A8B4212D3FC22890112BA030A45
:102B50008B420CD3890192118B4208D389019211C7
:102B60008B4204D389013AD0921100E08909C3094C
:102B70008B4201D3CB01C01A524183098B4201D34E
:102B80008B01C01A524143098B4201D34B01C01A39
:102B9000524103098B4201D30B01C01A5241C308B1
:102BA0008B4201D3CB00C01A524183088B4201D320
:102BB0008B00C01A5241D9D243088B4201D34B003B
:102BC000C01A5241411A00D20146634652415B107D
:102BD000104601D34042002B00D54942704763465E
:102BE0005B1000D3404201B5002000F005F802BDA3
:102BF0000029F8D016E770477047C0461C21012312
:102C00001B04984201D3000C10391B0A984201D3CF
:102C1000000A08391B09984201D30009043902A2AD
:102C2000105C40187047C046040302020101010114
:102C300000000000000000000023C25C0133002AF5
:102C4000FBD1581E704700000448054B10B5834265
:102C500003D0044B002B00D0984710BDE0000020AB
:102C6000E00000200000000006480749091A8B1008
:102C7000C90FC91810B5491003D0044B002B00D060
:102C8000984710BDE0000020E00000200000000098
:102C900010B5074C2378002B09D1FFF7D5FF054B62
:102CA000002B02D0044800E000BF0123237010BDB8
:102CB000400200200000000000260108054B10B56E
:102CC000002B03D00449054800E000BFFFF7CCFF0C
:102CD00010BDC0460000000044020020002601088C
:102CE00007B501210B4B0C481A6C0A431A641A6C85
:102CF0000A4080210192019ADA6B49050A43DA639E
:102D0000DB6B0B400093009B00F03EF90BF090FF53
:102D1000FEE7C04600100240006CDC027047FEE790
:102D200070477047014B024A9A60704700ED00E01F
:102D3000002800080D488546FFF7F4FF0C480D49B0
:102D40000D4A002302E0D458C4500433C4188C4206
:102D5000F9D30A4A0A4C002301E013600432A2426C
:102D6000FBD30FF0EFFBFFF7BBFFFEE700400020B7
:102D700000000020E0000020404401084002002044
:102D8000602C0020FEE70000054B064A9B681B05EF
:102D90001B0F9B009B581F221340D8407047C04612
:102DA000001002404C270108054B064A9B685B0453
:102DB0005B0F9B009B581F221340D8407047C046B2
:102DC000001002402C2701080A4AD368DB439B0706
:102DD0000BD0536808491B045B0F9B0058580C2309
:102DE000D2681A4203D1400070470448F7E7032332
:102DF0005843F9E7001002400C27010800366E0125
:102E00003821104A10B593680B40102B15D00DD8FF
:102E1000082B15D00720536812685B0B03400A4942
:102E20009B00D20A02405858D04008E00821183BC5
:102E30008B43EFD18020000201E0FFF7C5FF10BDFA
:102E40000248FCE7001002400C27010800366E0122
:102E500010B50400FFF7D4FF2060FFF795FF606016
:102E6000FFF7A2FFA06010BD104B10B5CB5CD4687B
:102E7000C0189368016823431469234354692343AA
:102E800094692343D4692343546A2343084C214063
:102E90000B4303605368C3601368126A836043681E
:102EA0001B0C1B0413434360002010BD8B2701083B
:102EB0000F80FFFF0023036043608360C3600361F2
:102EC00043618361C361036243627047F7B50025C4
:102ED0004B680A6800935F1E1300EB4009D1012F75
:102EE00005D84368C96893434A43134343600020AD
:102EF000FEBD01241300AC40234022422BD01A0017
:102F000003265A435643B446F64301966646046880
:102F1000B443009E564334430460012F06D88C68A6
:102F200087685443019E37403C4384600C69C768FE
:102F30005443019E37403C43C460009C022C0AD19C
:102F40004C69FF2B09D80F26524356436243036A4C
:102F5000B3431A4302620135BAE70F261B0A5B43EB
:102F60005B435E435C43426AB24322434262F2E700
:102F7000044B03600323436000238360C360036149
:102F800043617047FFFF0000014B18607047C04667
:102F9000000000200368020070B501205B0620D409
:102FA0004E680B68486933438E6815683343CE68B2
:102FB0000C6A33430E6933438E6903433343CE694E
:102FC000000C33430B4E234335402B430425136041
:102FD0005368AB431843802350609B019C4205D04B
:102FE0000020D36904490B40D36170BD4B6A9BB28A
:102FF0001361F5E74000FFFFFFF7FFFF00230360C9
:1030000043608360C360036143618361C3610362A2
:1030100007334362704700007FB5C36804000D00AA
:103020009B0402D5012004B070BD4B68C968C2681A
:103030000B4329690B432D490A401343C36043697D
:103040002B4A1340AA69134343610369294A134079
:10305000AA68134303614369274A13406A6913430B
:10306000436101A8FFF7F4FE039B002BDAD0296827
:103070000029D7D0192058438023AA691B019A42FE
:103080001DD14900FFF744FC64210600FFF7C6FC90
:10309000C80032306421FFF73BFC642185B2300068
:1030A000FFF736FC072300012B40C018F8236D0002
:1030B0005B001D40401980B2A0600020B3E789008A
:1030C000FFF726FC64210600FFF7A8FC0801323058
:1030D0006421FFF71DFC642105003000FFF718FC98
:1030E00000012D18ADB2A560E7E7C046F3E9FFFF88
:1030F000FFF7FFFFFFCFFFFFFFFCFFFF96239B01C2
:103100000C2203600023026143608360C36043615B
:103110008361704710B5074B1B78012B05D8082039
:1031200006F06CFB082006F069FB0022024B1A70C7
:1031300010BDC046E21A00207C00002037B52022D6
:103140000125254B254CD96B1143D963D96B11400F
:1031500001910199996B29439963996B29400091D9
:103160000099D96A1143D962D96A9143D96200237F
:10317000F021A3621A4B89011868FFF7C9FB80236D
:103180000138E06222681748134323608023E26815
:103190005B0013430222E360236893432360124BD6
:1031A0001A68AA431A60C168104A11409C2292030F
:1031B0000A43C26019680E4A11400E4A0A43402170
:1031C0001A600D4ADA600D4A9A605A68120C1204AD
:1031D0000A435A6037BDC046001002400014004048
:1031E000000000200000014080000240FFFFC0FFFF
:1031F0000F80FFFFB02A0000640200201814005066
:10320000014B18787047C04660020020F8B5274D82
:1032100004002B78834211D0002810D10120244AC9
:10322000136883431360234A13688343136001F0D8
:103230005DFD8022204B52009A622C70F8BD1F4B1E
:10324000FF211E5CB6013000FFF762FBFF23002266
:103250009B019E421BD01100194E0B0082424B4134
:10326000184F5B423B4001339700FF330132F3516B
:10327000402AF2D101230E4A11681942DDD10D48CE
:1032800001681943016011680B431360D5E7012100
:10329000074A13688B431360064A13688B43136015
:1032A0008022054B52009A61C7E7C0465C020020AD
:1032B00000140040800002400014005093270108D1
:1032C0006402002000FFFF0010B5054B587CFFF79B
:1032D0009DFF0022034B1A80034B1A7010BDC0469D
:1032E000AF1B00206202002060020020782170B530
:1032F0001D4A1E4B12781E4D4A431A801D4A1E4B12
:1033000012781E4C1A70AB7F002B07D1FFF7DCFF41
:103310002378002B01D0FFF7FDFE70BD0122184B72
:103320001A702378002B19D000242000FFF76EFFBD
:10333000322001F0B3FC2B00FF3301349B7CE4B25C
:10334000A342F2D2FFF7E6FEA97F00230D4A3D29F2
:1033500002D00A234B4301331380DEE72B00FF33F7
:10336000987CFFF753FFEFE7880000205E02002003
:10337000B01A00205C020020191800207C000020F8
:103380006002002062020020F8B5802304000826B5
:103390000127114D5B00AB6263B2002B17DB80236A
:1033A0009B00AB62380001F0A1FC80235B00380079
:1033B000AB6101F09BFC80235B0038006400AB62D2
:1033C000013E01F093FCE4B2002EE5D1F8BD80236C
:1033D0009B00AB61E6E7C04600040050F7B58025CE
:1033E0008026214C214FAD0076000190BD61012067
:1033F000A66201F07BFC8020019BBD6203431800A4
:10340000FFF7C2FF23681A4A01201340236001F02E
:103410006DFC102300250193012223696D005B0AD6
:1034200013401000ADB2A6611D4301F05FFC012006
:10343000A66201F05BFC019B013B0193002BEBD1E9
:1034400022680B4B01201A408023DB0213432360C8
:1034500080239B00BB6101F049FC80239B00280076
:10346000A661A361FEBDC0460004005000140050D8
:10347000FFFFF3FFF8B58023040010260127114D4C
:103480005B00AB6223B2002B17DB80239B00AB6297
:10349000380001F02BFC80235B003800AB6101F0A9
:1034A00025FC80235B0038006400AB62013E01F024
:1034B0001DFCA4B2002EE5D1F8BD80239B00AB61BA
:1034C000E6E7C04600040050F7B5802480270F4E81
:1034D0000F4DA4007F0001910090B4610120AF6204
:1034E00001F004FC0098B462FFF74EFF012001F0E8
:1034F000FDFB0198FFF7BEFF012001F0F7FBB4616F
:10350000012001F0F3FBAF61AC61F7BD0014005086
:10351000000400501FB580228021564B92009A6112
:10352000554B4900996180219A6100200902FFF7FB
:10353000CBFF00210800FFF7C7FF37204F49FFF7F7
:10354000C3FF22213620FFF7BFFFC62110208900CC
:10355000FFF7BAFF11204A49FFF7B6FF1220494989
:10356000FFF7B2FF13204849FFF7AEFF8421142074
:103570008900FFF7A9FF49204449FFF7A5FF7B20F9
:103580004349FFF7A1FF7D204249FFF79DFF4820F7
:103590004149FFF799FF40204049FFF795FF10226E
:1035A00068463F490FF014F800246B46195D230369
:1035B0001943092089B20134FFF786FF102CF4D19A
:1035C000F8211C20C900FFF77FFF1D203549FFF7B8
:1035D0007BFF1E203449FFF777FF1F203349FFF799
:1035E00073FF3E203249FFF76FFF73203149FFF729
:1035F0006BFF77203049FFF767FF19202F49FFF74E
:1036000063FFB42128200901FFF75EFFAA212920CA
:103610000902FFF759FFCC212A20C901FFF754FF07
:103620002C202749FFF750FF2F202649FFF74CFF9A
:1036300053202549FFF748FF7E202449FFF744FF28
:1036400046202349FFF740FF4A202249FFF73CFF6D
:1036500007202149FFF738FF9021204B204A3320D3
:1036600009021A80FFF730FF00213F20FFF72CFFEF
:103670001FBDC04600140050000400501F9D0000F4
:103680003A030000DB030000DF030000B22A000061
:10369000DC73000020E90000A833000016350000AC
:1036A0009E27010855E50000584C00005AC600004E
:1036B000C694000091460000EF8800004E10000004
:1036C0002218000090980000282000003E300000E2
:1036D0000A60000030540000CE6100006603002044
:1036E0000090FFFF10B504007E20FFF777FEC34374
:1036F0009BB2DB0BA3420CD00123C0216340000529
:10370000DB03000D18438901014389B27E20FFF7D6
:10371000DBFE10BD10B5134904001320FFF7D4FEE3
:1037200012201149FFF7D0FE11201049FFF7CCFEFF
:103730007A211020FFF7C8FE002C0DD000211420A4
:10374000FFF7C2FEC92149014920FFF7BDFE7B20DA
:103750000749FFF7B9FE10BD19211420FFF7B4FE89
:103760000449F1E7BE0300007B0300007B02000078
:1037700020840000382A000010B5094C2388002955
:1037800008D04022C240134399B233202180FFF772
:103790009BFE10BD4121494201411940F5E7C04659
:1037A0006603002010B5040051200A49FFF78CFE83
:1037B00007200949FFF788FE21050820090DFFF7BA
:1037C00083FE802321021B02090D08201943FFF705
:1037D0007BFE10BD33A00000D70A00000C4B10B5D3
:1037E000C1184B1E9941040049420A4B890A8902BB
:1037F000C9185120FFF768FE0748084B6043084985
:10380000C018FFF785F881B20720FFF75DFE10BDF5
:10381000BFF5FFFF409400009826030050C300004E
:10382000A0860100074B0100400810B5C018FFF743
:103830006FF880218901014389B20720FFF744FE18
:1038400010BDC046D6DF03005C2110B5032802D8A6
:10385000034B4000C15A4320FFF736FE10BDC0465F
:10386000882D0108064A222310B5914200D81A3B40
:1038700080210002184301433620FFF725FE10BDCA
:10388000FF3EAB0110B5040081B23820FFF71CFEEB
:103890003920210CFFF718FE10BD000010B50349B8
:1038A000000201434720FFF70FFE10BD42600000F9
:1038B000F0B5CCB285B020001E000D0A0291FFF7D2
:1038C0008DFD01AFFB88EDB2AB400100AE409943E6
:1038D0003143200089B2FFF7F7FD05B0F0BD0000CD
:1038E00010B537200549FFF7EFFD00213020FFF725
:1038F000EBFD30200249FFF7E7FD10BD1F9F0000E0
:10390000F1BF0000F7B51C0008AB1E78009009ABB2
:1039100001917020002115001F78FFF7D5FDA0212F
:10392000090231434D20FFF7CFFDD821C9013943AA
:103930004E20FFF7C9FD210229434F20FFF7C4FDA8
:10394000009B78201902019B1943FFF7BDFD002061
:10395000FFF7A4FFFFF7C4FFF7BD00000A4B0121EA
:1039600010B5984202D90021013007D10420FFF799
:1039700003FF00210320FFF7FFFE10BD0420FFF727
:10398000FBFE0121F6E7C046FF3EAB0110B531203A
:10399000FFF724FD0223984381B23120FFF794FD05
:1039A00000212B20FFF790FD10BD000070B5050031
:1039B0003120FFF713FD0400002D06D108239C439E
:1039C000A1B23120FFF780FD70BDAB1E5A1E93419E
:1039D000AD21DB03890119432920FFF775FD012083
:1039E000A842804105494042800301432820FFF757
:1039F0006BFD0821214389B2E3E7C046382B000064
:103A000010B53120FFF7EAFC0423984381B231203E
:103A1000FFF75AFD10BD10B500212420FFF754FD1B
:103A200010BD0000DB2110B52120C900FFF74CFDBF
:103A300024200249FFF748FD10BDC0467FC10000A9
:103A400010B550200149FFF73FFD10BD18BB000025
:103A500070B50C00631E9C410500FFF7F1FF0320C9
:103A6000FFF71CFF0D4B61421940E0231B02C918F0
:103A70007020FFF729FD00213020FFF725FD3020C1
:103A80000749FFF721FD802306495B026943C918F6
:103A90007120490CFFF718FD70BDC04600BCFFFF48
:103AA000020300001DA6140010B550200149FFF7C5
:103AB0000BFD10BD183B000010B500213020FFF7B2
:103AC00003FDE82137204901FFF7FEFC10BD00008F
:103AD00010B500217020FFF7F7FC0020FFF7DEFE95
:103AE000FFF7E2FF00213020FFF7EEFC3020024913
:103AF000FFF7EAFC10BDC046F1BF000010B5C321BE
:103B00007020FFF7E1FC72200A49FFF7DDFCC121BC
:103B10005820FFF7D9FC5C200749FFF7D5FC8E2120
:103B20005D20C901FFF7D0FC5E200449FFF7CCFC03
:103B300010BDC0466530000065560000043200002C
:103B400010B500213020FFF7BFFC10BD10B50021DB
:103B50003F20FFF7B9FC68215920FFF7B5FC1E2074
:103B600001F09CF8FFF7ECFF10BD10B50020FFF747
:103B700095FE7E20FFF732FC38232821984301432D
:103B800089B27E20FFF7A0FC10BD000010B5002117
:103B90003620FFF799FC37200749FFF795FC5220A4
:103BA0000649FFF791FC00213020FFF78DFC302003
:103BB0000349FFF789FC10BD1F9D00008F02000024
:103BC000FEC1000010B5FFF7D0FFFFF76DFFFFF754
:103BD000DDFF10BD10B500215120FFF775FC10BDB1
:103BE000054B10B51B78002B05D001210020FFF7F5
:103BF000C3FDFFF775FE10BD6403002010B504007F
:103C0000FFF71EFF0020FFF749FE00217020FFF79D
:103C10005BFCFFF700FF30200349FFF755FC002C49
:103C200001D1FFF741FF10BDFEC1000010B53020EB
:103C30000149FFF749FC10BDFAC30000F8B51D00AB
:103C400007000E001400FFF7FBFE281E05D0A0237E
:103C500080220320DB0552009A61FFF71FFEFE233E
:103C60002102DB0119400133FF3319437020FFF7B4
:103C70002BFCFFF7DBFF322001F010F88023124904
:103C8000BFB279435B02C9187120490CFFF71CFCD5
:103C9000FFF70AFF300001F001F8FFF7D1FE002D19
:103CA00007D0A0238022DB05520000209A62FFF794
:103CB000F5FD00217020FFF707FC30200349FFF7D6
:103CC00003FCFFF7F1FEF8BD1DA61400FEC10000C5
:103CD00010B50400FFF7A6FEFFF7B2FE00208442F5
:103CE00000D00330FFF7DAFD70200349FFF7ECFB4B
:103CF000FFF79CFF10BDC046C3C3000070B590B075
:103D000004004022684618490EF062FC392C08D89D
:103D10002F2C25D8232C25D00EAD2A2C09D010B05D
:103D200070BD2300413B373C032BF8D8A4006C4402
:103D3000250028880D4C0E4E60430E498019FEF771
:103D4000E7FD81B27120FFF7BFFB6B8809495C4337
:103D5000A019FEF7DDFD81B27220FFF7B5FBDEE7AB
:103D6000303CE3E70FADE4E7182601084C9301006F
:103D70008813000010270000F0B5002485B01E0055
:103D80000AAB1F880BAB1B880500019102920393BD
:103D9000A0421AD105B0F0BDFFF7B0FFFFF784FED7
:103DA000019B002B02D00298002C06D02B5D300026
:103DB0002A2B02D0232B00D0380000F06FFFFFF732
:103DC0003FFE039800F06AFF0134285D0028E3D12C
:103DD000E0E7000070B50D000400FFF731FEC221DE
:103DE00070200902FFF770FB80230B49ADB26943D5
:103DF0005B02C9187120490CFFF766FB0020844262
:103E000000D00330FFF74AFDFFF710FF322000F02B
:103E100045FFFFF749FE70BD1DA6140010B504282C
:103E200008D8FEF757FD03080A0C0E000649522079
:103E3000FFF74AFB10BD0549F9E70549F7E70549D2
:103E4000F5E707200449F3E78F8200008FA2000006
:103E50008FC200008FE200006F04000010B5002048
:103E6000FFF7DCFF51200249FFF72EFB10BDC046D3
:103E70004080000010B50420FFF7D0FF5120024918
:103E8000FFF722FB10BDC0464090000010B5672030
:103E9000FFF7A4FAC005C00D10BD10B5FFF7F6FF7F
:103EA0004008A03800B210BD10B56420FFF796FAA4
:103EB00010BD000070B506000D20FFF78FFA03B2A9
:103EC000DD430400ED0F002B07DB0E20FFF786FA21
:103ED000034B24041C4004433460280070BDC046DA
:103EE0000000FF0770B5060069200D00FFF776FAA5
:103EF000040003040BD46A20FFF770FA0C4B240370
:103F00000005000D1C4004430220346070BD682091
:103F1000FFF764FA030000201A04F7D40548DB0415
:103F2000DB0C58430449FEF77DFD28800120EDE7B6
:103F300000F0FF00EB12000010270000912110B5E7
:103F400032208900FFF7C0FA10BD000010B5322002
:103F50000149FFF7B9FA10BD4502000010B5FFF79F
:103F600091FCC02151208900FFF7AEFAFFF7B8FCA1
:103F700010BD10B5FFF7E4FD10BD10B5FFF7DEFF73
:103F8000FFF7DEFD10BD10B50B20FFF727FA000587
:103F9000000F10BD10B50C20FFF720FA800BC0B247
:103FA00010BD10B50C20FFF719FA0005800F10BDE9
:103FB00070B504001E2000F071FE80213F20090230
:103FC000FFF782FA59201749FFF77EFA250068218A
:103FD0005920FFF779FA483521885F200234FFF72E
:103FE00073FAAC42F8D1142000F058FE59200E4963
:103FF000FFF76AFAC82401250C20FFF7EFF92842E1
:1040000006D1013C0520E4B200F048FE002CF3D1BB
:1040100000210220FFF758FA1E2000F03FFEFFF7B4
:1040200095FD70BD688000006828000010B5FFF79E
:104030008DFD00210220FFF747FA00213F20FFF706
:1040400043FAFFF74DFCC0213F208901FFF73CFAFE
:1040500059200449FFF738FA59200349FFF734FA89
:1040600010BDC046684000006830000030B58BB01D
:104070002422194901A80EF0ABFA0020FFF70EFC2C
:10408000002501AC618820780135FFF71DFA043462
:10409000092DF7D10024114A63005F20D15A013461
:1040A000FFF712FA072CF6D1142000F0F7FD0C49A7
:1040B0005920FFF709FAB42000F0F0FD68215920DB
:1040C000FFF702FA00217020FFF7FEF900215820C7
:1040D000FFF7FAF90BB030BD58260108902D010802
:1040E0006808000010B51B4B1B78012B2DD1FFF782
:1040F000A7FC0020FFF7D2FBC32170200902FFF7C5
:10410000E3F9FFF793FD322000F0C8FD124971205A
:10411000FFF7DAF9FFF7C8FC502000F0BFFDFFF70A
:104120008FFC0E497120FFF7CFF9FFF7BDFC50203F
:1041300000F0B4FDFFF784FC00217020FFF7C4F904
:1041400030200749FFF7C0F910BD022BFCD1FFF763
:104150008DFFF9E7E31A00201C3E0000D534000073
:10416000FEC1000070B505000C00FFF75BFCFFF717
:1041700067FC0020854200D00330FFF78FFB074922
:104180007020FFF7A1F9FFF751FD322000F086FD06
:104190002000FFF7B3FDFFF787FC70BDC3C300002D
:1041A0000222064B99681142FCD0012218739968CB
:1041B0001142FCD0D868C0B27047C04600380040F9
:1041C00010B50400000CC0B2FFF7EAFF200AC0B22D
:1041D000FFF7E6FFE0B2FFF7E3FF10BD70B5A025E3
:1041E0000826094CED050520AE62FFF7D9FFFF2038
:1041F000FFF7D6FFAE61C00705D50A20013C00F0ED
:1042000075FD002CEFD170BD40420F0070B5A024A9
:1042100008250600E405A5620620FFF7C1FFA56199
:10422000FFF7DCFFA5622020FFF7BAFF3000FFF7A1
:10423000C7FFA561FFF7D2FF70BD0000F0B585B0E4
:104240006B46039002921A7B8023A0255B000191AC
:104250009B1AED05029C9C4200D91C0008231E00FD
:10426000AB620620FFF79CFFAE610220AE62FFF753
:1042700097FF0398FFF7A4FF019E37190F2C5CD915
:1042800040220120802730497F010B6893430B6057
:104290002E4B1A6882431A602D4A166886431660B0
:1042A0002C4E77601F682C4E37401F6017683740D0
:1042B00090263E431660294F294EDE609F605E685F
:1042C000360C360426435E60019ED66097605668C1
:1042D000360C360426435660224EB4460026674606
:1042E0003E701F68023637431F601F6807431F6018
:1042F00013680343136040224B68184348600B68FF
:1043000013430B604B681E434E6063461B78002BC3
:10431000FBD00823AB61FFF761FF039B1B190393DD
:10432000019B1B190193029B1B1B02938023029A82
:104330005B00002A8ED105B0F0BD30780136FFF762
:104340002FFFBE42F9D1E4E70038004044000240AC
:1043500058000240000002400F80FFFF0C38004070
:104360006903002068030020F0B5A02708268021FB
:104370000124344BFF058FB0BE61DA6BC9010A43DB
:10438000DA63DA6B04A80A400392039A9A6B002559
:1043900022439A639A6B22400292029A5A6B2243FA
:1043A0005A635B6B23400193019BFEF7E1FD0223FF
:1043B00004A9059338001B190693099607950894DC
:1043C0000494FEF783FD092304A93800023E0496F5
:1043D0000993FEF77BFD1C4B1C4A99688020114015
:1043E000A022D2040A433F219A60DA68C0058A43BA
:1043F000C2211643164ADE60890053581B021B0A6D
:104400000343535080231B01136004A8FEF7F6FDFD
:1044100082235B000593033B0894FF3B0D4C0793FD
:10442000FF33FF33200004A9099304950A950B95E7
:104430000C95FEF7AFFD40232268134323600FB0B5
:10444000F0BDC0460010024000000140FFFFFFC069
:1044500000E100E000380040F8B5A0231500082274
:104460000600DB0503209A620C00FFF799FE30007E
:10447000FFF7A6FE0F2D08D86519AC424FD0FF20DC
:10448000FFF78EFE20700134F7E7402101208027DE
:10449000254A7F0113688B431360244B19688143BD
:1044A000196023490E6886430E60224E77601F68AC
:1044B000214E3740B446842676013E431E60664650
:1044C0000F6837401D4E3E430E601D4EDC609E60FF
:1044D0005C68240C24042C435C601A4CCC608E6015
:1044E0004C68240C24042C434C600024164D2C7082
:1044F0001E68023426431E601E6806431E600B6859
:1045000003430B60402153681843506013680B430A
:10451000136053681C4354602B78002BFCD0A023FD
:104520000822DB059A61F8BD0038004044000240D3
:1045300058000240000002400F80FFFF10100000F2
:104540000C3800406903002068030020F0B587B0F4
:10455000059380230705040B3F0D5B010190029139
:1045600003922403DB1B039A002A01D107B0F0BD9C
:10457000039D9D4200D91D00294E3368A34206D0F9
:104580008022200027495201FFF766FF3460254E44
:104590002A00BE19310002980EF023F8002824D01A
:1045A0000023F25CFF2A2ED101339D42F9D1002372
:1045B0002A003000029904930EF00AF8049B002BA5
:1045C0002AD02000FFF722FE059B164E002B1CD0A0
:1045D000EF193A0031002000FFF730FE802252012F
:1045E000FF21D21BF0190DF0E3FF019B00275B199F
:1045F0000193029B5B190293039B5B1B0393802334
:104600005B01E418AFE70123D2E7802231002000EC
:104610005201FFF713FEE8E72A0002990198F8E734
:10462000040000206A03002010B5040B24032000BE
:10463000FFF7ECFD054B1B68A34205D18022FF214B
:10464000034852010DF0B4FF10BDC0460400002025
:104650006A0300208020144980010B6810B50342D2
:1046600021D00224114B1A6822421CD01A68A2439E
:104670001A60C0220E4B4860520199681142FCD169
:10468000802299681142FCD1C022D200996811425F
:10469000FCD102215A688A435A605A6801398A4318
:1046A0005A60044B197010BD0000024044000240E3
:1046B000003800406803002070B540262025094CD2
:1046C0000120A66100F012FBA561012000F00EFBA5
:1046D000A662012000F00AFBA562012000F006FBA3
:1046E00070BDC0460014005070B540252026094C0E
:1046F0000120A56200F0FAFAA662012000F0F6FAA5
:10470000A661012000F0F2FAA561012000F0EEFAA6
:1047100070BDC04600140050F7B5234C234A2368EF
:1047200001901340236008230025202701260093D1
:104730003000A76200F0DAFA3000A76100F0D6FA84
:10474000300000F0D3FA23696D00EDB25B0600D5AE
:1047500035433000A76200F0C9FA009B013BDBB291
:104760000093002BE4D12268104B01201A408023D3
:104770005B0113432360A76200F0B8FA019A40235B
:10478000002A0ED0A3612026012000F0AFFAA66116
:10479000012000F0ABFAA662012000F0A7FA280081
:1047A000FEBDA362EFE7C04600140050FFCFFFFF3D
:1047B000F8B52023254C0500A362012000F096FAED
:1047C00008266BB2002B3BDB4023A362202701208D
:1047D00000F08CFA013E0120A76100F087FA6D001D
:1047E0000120A762F6B200F081FAEDB2002EE8D106
:1047F00040252368164E012033402360A56100F058
:1048000075FA0120A76100F071FAFF2322691100F7
:1048100029402A4217D0013BDBB2002BF6D10125FB
:104820006D422023A362012000F060FA80232268F9
:104830005B0132401343236040232800A361F8BD8D
:104840004023A361C2E70D00EBE7C046001400500F
:10485000FFCFFFFF70B504000D0000266A1EB242B4
:104860000EDC2B00591E8B415B4213400120E418E3
:1048700000F03CFA0120FFF74FFF2070280070BDC8
:10488000012000F033FA0020FFF746FFA055013663
:10489000E4E770B504004518AC4201D1002070BDBA
:1048A0002078FFF785FF01340028F5DA0120404227
:1048B000F5E700007823F7B500251F4EB36100240B
:1048C000082327000193012000F010FA3A00F02796
:1048D00033693F021F40974220D10134032C1ED17F
:1048E00080228021120209021A400B421ED05A0473
:1048F0001ED59A041ED5DB0405D4104BAA009B18C4
:10490000185D132811D10135052D0DD0782307220C
:10491000B361521B773B9340B362D0E70124019B04
:10492000013B0193002BCED11320FEBD1400E4E720
:104930000124E2E70224E0E7000400509E2D010874
:104940000222054B99681142FCD001221873996824
:104950001142FCD0DB6870470030014070B51D008B
:1049600004AB00241C5F431A601B5843511AFEF726
:1049700059F8401900B270BD70B5124CC00124182E
:1049800025000C2036352600287012253736357064
:104990004236357025007A352870581A8001511A30
:1049A000FEF740F8212538232D263830C0B2DAB280
:1049B0002900904200D33100E1540133792BF6D124
:1049C00070BDC0466E1300207047A02340225039AE
:1049D000DB0510B59A620400C8B2FFF7B1FF1020E2
:1049E00023091843FFF7ACFF0F202040FFF7A8FF73
:1049F00010BDF8B514000430C0B21D00FFF7E5FF8C
:104A0000A02340222600DB059A612F19BE4200D167
:104A1000F8BDE8B2002C00D03078FFF791FF0136E6
:104A2000F4E7000070B50425034CC9B2A562C0B21A
:104A3000FFF7DFFFA56170BD00040050042370B5CF
:104A400005000024064EB3620022E1B22B001000E4
:104A50000134FFF7CEFF082CF6D10423B36170BDFB
:104A600000040050A023402210B5DB059A62FFF736
:104A700067FF10BDF8B50423124E0400B362402056
:104A8000FFF7F0FF104A002C07D0104B01251F0044
:104A9000072C0AD8621ED201D218802321000020E0
:104AA000FFF7A7FF0423B361F8BD290001353A00E1
:104AB00080230020EDB2FFF79CFF8037082DF4D152
:104AC000F0E7C04600040050EE1600206E130020F0
:104AD00010B50820FFF7CEFF10BD10B50130C0B2F1
:104AE000FFF7C8FF10BD10B50020FFF7C3FF10BDD2
:104AF00010B5032804D0072809D0074B185C03E041
:104B0000064B1878A6231843FFF7ACFF10BD044BE3
:104B100018781530C0B2F7E70A000020931A002079
:104B200086000020042370B50024064DAB622000EF
:104B30000134E4B2FFF7DCFF0B2CF8D10423AB61A6
:104B400070BDC046000400500422074B10B5E2209F
:104B50009A62FFF787FF002420000134E4B2FFF7D8
:104B6000C7FF082CF8D110BD00040050802170B59B
:104B700001253E4B49011A6C8CB00A431A641A6C29
:104B800002A80A400192019A5A6B00242A435A63F0
:104B90005B6B02262B400093009BFEF7E9F9032391
:104BA000A020049302A91D33C00502930695039625
:104BB00007940594FEF78AF9A020802302A9C00576
:104BC00002930694FEF782F902A8FEF717FA8223F1
:104BD0005B0003930695FC33254D0793D93BFF3BC0
:104BE000280002A9089302940494059609940A9453
:104BF000FEF7D0F940232A68E22013432B600423F8
:104C00001C4DAB62FFF72EFF782000F047F8200024
:104C10000134E4B2FFF76CFF082CF8D12B20FFF72A
:104C200021FF012000F03AF82E20FFF71BFF0120A2
:104C300000F034F82F20FFF715FF2F20FFF712FFA9
:104C40002F20FFF70FFF2F20FFF70CFF282000F089
:104C500025F84020FFF706FFAF20FFF703FF0423EE
:104C60000020AB61FFF7EAFE0CB070BD00100240FF
:104C7000003001400004005070B50425064C282087
:104C8000A562FFF7EFFE4020FFF7ECFEAE20FFF736
:104C9000E9FEA56170BDC04600040050FA2310B5BE
:104CA0009B00584300F022F810BD0000C0200B49C3
:104CB0000B4B0C4A4B60136A00061B021B0A034392
:104CC000136200238B6007330B603021064B1960A1
:104CD000136A1B021B0A13627047C04610E000E013
:104CE000FF52070000ED00E0701700200A4B70B57E
:104CF0001B680A4C584300236668A168A268914269
:104D0000FCD0B51A914200D95542CB185B19984294
:104D100000D870BD1100F1E77017002010E000E02E
:104D2000084B1A68283213780133DBB2072B00D9FD
:104D3000012313700122044B1A70044A044B1278A9
:104D40001A707047A81A00203F180020191C002074
:104D5000BC0000200122064B1A70064B1A68333241
:104D600013780133DBB2032B00D10023137070479B
:104D70003F180020A81A00200123024A11784B4056
:104D8000137070478C1A0020064A10B51378002B58
:104D900003D00549054B0978997700231370FEF776
:104DA000A5FA10BD1C1800201A180020B01A002007
:104DB000012110B5134C05202378594021704B4236
:104DC00059410F2349421940A1231B01C9180BF077
:104DD0003AF8002321780C4A994202D113006F332C
:104DE0001B7811006E310B70703211781B01194362
:104DF000B0231B0219434820FEF766FB0122034B38
:104E00001A7010BD1B180020B01A00205618002080
:104E100010B5174B1B78022B08D005F0ADFF012011
:104E200006F05AF8022000F0B3FB10BD0022114B2F
:104E30001A70114B1B785BB2934208D00F4B198844
:104E40000F4B19800F4B1A700F4B01321A70012053
:104E500006F042F80D4B0E4C1B78002B04D00BF0E3
:104E6000A1FC03232370E0E70A4B1B78FAE7C04656
:104E7000EA170020741A0020A2170020D43C010871
:104E80004C1800207E000020A0170020AF21002039
:104E9000BC000020191C002070B5104B1B78013B92
:104EA000012B0DD900240E4B0E4D1C700E4B1B78A0
:104EB000A34206D00BF032F901220C4B2C701A7071
:104EC00070BD0B4A137005F057FF012006F004F87F
:104ED0000BF068FC03232B70F2E7C046EA170020B2
:104EE000C81B0020BC000020AF2100204318002078
:104EF000741A002010B5134C03202368333319783B
:104F0000012912D005F062F8011E11D022682C325E
:104F100011784B424B410020DBB21370814201D12A
:104F2000094A10780021C018C0B2FEF78DFC10BDF0
:104F3000064B1A682C32137858424341D8B210708D
:104F4000F3E7C046A41A00208E1A0020A81A0020F9
:104F50000B4BDA7C002A02D01B7D002B0ED10322E2
:104F6000084B01211A700022074B1A70074B197069
:104F7000074B1B788B4201D0064B1A707047C04616
:104F8000B01A00204A180020C81B00203C1800203E
:104F9000191C0020BC0000203F4B70B51B7804009A
:104FA000002B2DD005F012F8051E0BD1032009F0BF
:104FB00015FD3A4B1D703A4B1B7859B2002B02D0AD
:104FC0000BF0C2F970BD374A374B384D002C13D067
:104FD0000120197010700BF0CDF8287C8007800F2D
:104FE0000AF0E2FF050028000AF0D0FF22000121AC
:104FF00028000BF0CDF8E5E714701C70ED89F2E79E
:1050000004F080F9041EDDD10025244B1422187011
:10501000274B2100187027480DF0CAFA05F0ACFEA6
:10502000200009F0DBFC244E7557002D1DD0234BCA
:105030001B78C72B02D901F099FFC3E7204D062149
:10504000E87F0130FDF7D4FDE97707F09FF90021F3
:105050002000715601F0BEFE01221A4B1A801A4B35
:105060001C700122194B1A70ACE7194B0F4C1B68CE
:105070005A1E9341174A0133137007F087F9012133
:10508000080001F0A7FE0121A379134A01330B4068
:10509000D554124B1D70E4E7AF210020741A002094
:1050A000AB210020AA210020A9210020B01A002055
:1050B000A4170020A5170020A217002030180020F8
:1050C000B11A00204C1800207E0000205618002045
:1050D0009C170020DA1A0020511800206E180020BA
:1050E00010B50120FFF758FF10BD000070B5264B2A
:1050F0001B78002B1DD1254C2378002B19D00125BE
:10510000234B1D7012280CD1002A0AD1002908D087
:10511000204B1D70204B1A70204A1378002B01D1B0
:10512000237070BD2D21013BDBB213701C4AD1549A
:10513000F7E711281BD0122804D00A281BD0002022
:10514000002303E0174B18481B780078002A15D17C
:105150000029E6D101250F4C2570002A11D1002924
:1051600000D00300114A9B009B589847D9E7104B89
:1051700010481B78E9E7104B187CE1E70029D0D0F4
:10518000E8E70029EDD1CCE7191C0020BA17002070
:1051900046180020E9170020BC000020BB170020A3
:1051A000BC170020E51A0020E61A00201800002095
:1051B000E71A0020E81A0020AF1B00200022044B51
:1051C0001A70044B01321A70034B1A707047C046B4
:1051D000891A002043180020561800200A4910B5EB
:1051E0000A780A4B002A08D1DA7E50424241DA7628
:1051F00001230B70FFF7E2FF10BD1A7F50424241BE
:105200001A770023F5E7C04677170020B01A002070
:105210000B4970B50B780B4C0B4A0C48002B0AD18C
:10522000D57ED3762570147F047001201377087023
:10523000FFF7C4FF70BD2378D37603780020F5E72D
:105240007617002075170020B01A00207417002070
:105250000D4910B50A780D4B002A09D1987F0C4AE8
:1052600010703D229A7701230B70FEF73FF810BDB6
:105270001900084AFF31897C1278914202D100223C
:105280009A77F2E73D22FBE71C180020B01A0020B5
:105290001A1800201918002010B50F4A0F489379EA
:1052A00059424B410021DBB293718B4200D048310F
:1052B0007431521802600A4A1378002B03D101336B
:1052C0001370084A1370002005F006FE064B1A887A
:1052D000064B1A8010BDC046B01A0020A41A002048
:1052E0006E18002056180020D63C010870180020C7
:1052F000F7B5664B664A00931B780192002B3DD1AF
:1053000013785BB2002B0AD0624B1B783833DBB2C8
:10531000062B04D8604B1B78002B2FD0F7BD5F4FB6
:105320003B78012B1DD09A1E012A03D85C4A1278C3
:10533000002A37D1584A012412785A4E002A03D045
:105340003278002A30D000243378574D002B00D01B
:105350008CE0002C00D089E02B78002B65D12C70DC
:10536000DCE7524A1278002AE4D0514A1278002A27
:10537000E0D100224D4B1A70494B1A70012005F004
:10538000ABFD01224B4B1A70019B1B785BB2002BCB
:10539000C4D0494BDA7F502AC0D8002A6DD101F021
:1053A000E5FDBBE7454AE1E7012B27D019D9023BD0
:1053B000012BC8D8424B1978394B00292DD04149CF
:1053C0000978012929D11A703F4D2B78002BBAD0CA
:1053D000FEF7E7FD441E63425C41002364002B702E
:1053E000B2E7354B5B7C002BADD0374B1B78002BE5
:1053F000A9D00022344B02241A70A5E7334908785B
:105400002A49002801D00A70EFE70A78002AECD177
:105410000B70274B64321A70E7E71A78002AD3D151
:1054200001321A70254B6332CDE7234B5B7E002B94
:1054300095D03B78023B012B91D8FEF7B2FD0128B5
:105440008DD11D4B5B7E002B00D167E7A02380220E
:10545000DB0552009A621E4BEC3A1A800023009A38
:105460001370012232701B4A137057E700232B7010
:10547000012C83D0022CE4D050E719235343164A61
:1054800013800022154B1A7048E7C0461F180020F1
:10549000A217002030180020341800209E1A002087
:1054A0005418002053180020201800205518002000
:1054B0002118002026180020B01A002022180020F1
:1054C0003818002037180020351800203618002022
:1054D0005E1800205B1800204C1800207E00002081
:1054E000194B10B51B78002B0FD0184A184B1278A7
:1054F0001B7852B2002A1CD1164AD27E002A05D14E
:10550000032B02D0032004F079FE10BD124A12785A
:10551000002AF5D1114908881149088011490A70FB
:1055200011490A700121114A117001210A4A1170B2
:10553000E6E7094A1278002AE2D10D4908880D49A8
:1055400008800D490A70F0E734180020A2170020E7
:10555000EA170020B01A00202F180020DA3C0108BA
:1055600070180020820000206E18002056180020BD
:10557000D03C01084C1800207E000020034B10B5E1
:105580001B78002B01D1FFF7ABFF10BD6403002097
:10559000F7B5E122354B364C364E01905201A579D4
:1055A0001A803378002B01D00AF066FC6A4255411C
:1055B0000022314B5A55A0230132DB05FF329A619C
:1055C0002E4BFF3A1A702E4B1B789B0701D5FDF727
:1055D0008DFE00232B4F2C4DFB56002B28D1E37E54
:1055E000002B2CD123006E331B78703421781B01E3
:1055F0001943B0231B0219434820FDF765FF234BD5
:105600001B683333187805F04DFD019804F0F6FD62
:10561000019B022B02D03378002B23D01C4B1B782C
:10562000012B02D0002009F0D9F901232B70F7BD1E
:1056300001F060FC0023FB56002BD3D1CFE7154BC4
:105640001A88154B1A800022144B1A70237F93423C
:1056500002D1134B01321A700022124B1A7001232F
:105660002B70BFE70122104B1A70DEE76218002092
:10567000B01A0020AF210020511800205B18002034
:10568000971A0020A217002056180020A41A002004
:10569000191C0020D83C010870180020820000204E
:1056A0002E1800206E180020261800201D4B10B563
:1056B0001878002809D11C4B1B78002B04D004F06B
:1056C0009DFD0122194B1A7010BD194B1A78194B08
:1056D0001B78134359424B411749DBB20978002923
:1056E00005D0012A03D10020144B18700B00144977
:1056F0000978002912D01349097801290ED1023AFC
:10570000012A0BD80022104B1A70104B04201B7872
:10571000002B00D00238FFF73BFFD5E7002BF4D178
:10572000D2E7C04634180020EA17002026180020CF
:105730009E1A0020A21700203618002055180020BD
:10574000381800203718002054180020741A002040
:1057500070B51C00838B1600594302680500881839
:10576000190004F015FBA04206D8B04203D2A98B61
:10577000601A04F00DFB70BD3000FCE7030010B5AB
:1057800030331C78034AE40013195B68A258FFF712
:10579000DFFF10BDF03B010810B505F0E5FD01226B
:1057A000044B1A70044B1B78002B01D0034B1A706A
:1057B00010BDC04631180020741A00204318002084
:1057C000154B10B51B78002B03D1144B1B78002B05
:1057D0000AD001F019FD0222114B1A700022114B60
:1057E0001A70114B01321A701048114A037811498E
:1057F000002B03D113780C7823430BD000231370B4
:10580000022203700B70064B1A700B4B013A1A7090
:10581000054B1A7010BDC046BA170020BB170020F8
:10582000E9170020BC000020261800206A13002081
:105830005A180020C81B002056180020F0B5864BCF
:1058400085B01B7804000F000092002B00D17FE090
:10585000002977D0102800D08AE0FDF747FD1024FA
:105860007E4D2B78052B02D1002004F0C7FC7C4B29
:105870001A887C4B1A807C4B01937C4B1978002949
:1058800003D01E224A437A4B1A70002F00D071E0D9
:10589000784E3378002B02D006F0ACFA3770764E93
:1058A0003378002B03D006F0C3FA00233370734E15
:1058B0003378002B03D006F071FA00233370704E5A
:1058C0003378002B13D06F4B1A68019B907FD979E6
:1058D000012306F0DFFC0023337003F013FD0028E2
:1058E00005D1694B1A78002A01D101321A70674B31
:1058F0001A7800239A4207D0654A12789A4203D157
:10590000644B1B785A425341574A63490192D27CF7
:1059100009781A43002967D0002A02D02A78012A80
:1059200069D1092C02D90F2C00D0CDE05B4B1B783C
:10593000002B00D181E1002F1AD0009B002B17D142
:10594000022064E0FDF7D2FC102C88D0132487E7F6
:105950000D2885D1FDF754FC051E00D080E7424B91
:105960009B7F002B00D17BE7FDF7C0FC4C4B1D70EB
:1059700005B0F0BD08F04EF8464E102C03D1494B4F
:105980001B78DB0727D53378012B04D1132804D0EB
:105990001538012801D9FDF7A9FC0D2C1BD1009B5E
:1059A000002B18D040480378002B09D01422002186
:1059B0000CF0FEFD00223D4B1A703D4B01321A7077
:1059C000FFF7FEFE3B4B1B78002B01D0FFF720FAC0
:1059D0000022394B1A603378012B00D087E7374A11
:1059E000374B12781A8082E7002A9AD02A78012A47
:1059F00097D0102C6BD00D2C0CD1002FB8D0002BD1
:105A000000D148E20120224B1870294B187003F096
:105A1000F5FEADE70F2C0FD1002FA9D0009B002B76
:105A200000D083E7022003F0E9FE0422254B1A7020
:105A300001221F4B1A709BE72300113B012B00D85A
:105A4000FBE00A2C00D023E2009B002B00D0F4E006
:105A5000002FE7D08CE7C046961A0020EA170020F6
:105A6000CC3C010884000020B01A0020E01A00207D
:105A7000591800207C1700207B17002039180020BF
:105A80007A170020A81A002042180020F3170020DF
:105A9000F2170020191C0020911A00204E18002037
:105AA000E9170020971A0020A5170020A41700204E
:105AB00026180020741A00209C170020EA3C0108D8
:105AC0004818002044180020102C00D0B5E0BF4A30
:105AD0001378002B04D0009B002F01D101231770F5
:105AE000BB4A1178002908D0102C01D00D2C04D10C
:105AF000002101201170B7490870B749B74E0291D3
:105B0000002B0FD12B78012B00D00BE1B44B03936A
:105B10001B78002B00D0CBE0102C00D08FE0380099
:105B200001F048FC3078002803D003F067FE002322
:105B30003370AC4CAC4E2378002B09D0AB4AAC4B45
:105B400012781A8002F0A6FB012333700023237021
:105B5000A84C2378002B0AD0009B002B00D014E126
:105B600006F066F90023012223709A4B1A70A24BAB
:105B70001A78002A07D000221A70009B934200D0A6
:105B800007E106F00BF99D4B1A78002A07D0002296
:105B90001A70009B934200D0FFE006F02BF9984D5D
:105BA000984C2B78002B19D0009B002B00D0F8E0EC
:105BB000002F00D0F5E0944B01991A68C9792B7831
:105BC000907F06F067FB03F09DFB002804D123784B
:105BD000002B01D10133237000232B7021788B4DD2
:105BE000002900D12EE18A4F3B78002B00D1EAE05A
:105BF000002004F0F9FE0120217804F0F5FE029B5C
:105C00001B78FF2B02D10023029A137001232B7003
:105C1000002323703B7005F0AFF8012005F05CF91C
:105C200000227C4B2A701A705A707B4B1B7893426F
:105C300000D10BE1FFF7ECF808E1784A48E7FE25D0
:105C4000112C06D0200001F0CFFA0500FF2800D16A
:105C500068E7002F0CD1A0238022DB0552009A6256
:105C60006F4B38001F70FDF7C9FFFDF78FFE59E736
:105C7000009B002B00D055E7019B6A331B78002B5B
:105C800007D0A0238022DB0552009A61644BFF3AC3
:105C90001A70FDF77BFE019B6A331878FE2D03D145
:105CA0006049FEF797F83DE72900FEF75BFA39E710
:105CB000009A002A00D0E4E0002F00D132E7A022B1
:105CC00080210025D20549009162554A15700222B3
:105CD0009343012B01D105F047FB039B05201D7069
:105CE000FEF7DCFF012005F0F7F84F4B1B78012B86
:105CF00001D0029B1D70019B3433187800280CD111
:105D000004F07CFA0123314A102C04D0009A002AB6
:105D100000D007E7414A137004E70A224243434B8D
:105D20001A70EFE723001278113BDBB2002A0BD088
:105D3000012B0BD83C4A3E4B127892009B583900FD
:105D40002000009A9847EDE6012B06D9364B1B78C8
:105D5000FF2B02D0364A9B00F0E703F0D3FA00286D
:105D600009D1314B1B78042B05D039002000009A53
:105D7000FFF7BCF9D6E6009B002B00D0D2E6002F3F
:105D800000D1CFE602333370CCE60122294B1A70E2
:105D9000E8E60122284B1A70F5E60122274B1A701B
:105DA000FDE607F037FE002800D004E72A78244BF0
:105DB000511E8A411A70029B1B78FF2B00D00BE703
:105DC000029B187008E7019BD87916E74518002058
:105DD0006A13002056180020BC000020E91700209C
:105DE0004A1800203B1800203A180020EA3C01081D
:105DF000481800203E1800203D18002040180020C0
:105E00003F18002042180020A81A00204318002044
:105E10004118002051180020741A00204618002054
:105E20005B180020D6060000191C0020581800201E
:105E3000680000207B170020391800207C17002004
:105E40007A1700202B78002B00D0E4E63378002B63
:105E500007D00023124A33701278124B1A8002F0D6
:105E6000E1FC114C2378002B03D005F0C9F9002385
:105E70002370029B187808F0B1FDFF23029A13707B
:105E8000D6E5032B00D04DE6002F00D04AE616E7FA
:105E9000002F00D16CE5009B002B00D068E5C1E528
:105EA000EA3C0108481800203C180020F7B5012002
:105EB00009F024FD002802D0012009F0E1FDAA4CE0
:105EC0002378012B00D087E0A84E3378002B37D100
:105ED000A74B1B78002B33D1A64B1A78002A03D18D
:105EE000A34A1278002A77D000221A70A24B1A888F
:105EF000A24B002A02D19A7F3D2A03D1FF33987C1E
:105F0000FDF784F9C82200259D4B920035701A8058
:105F10009C4B1B78AB4208D09B4E3378012B00D0B2
:105F20000EE102333370FEF70FFEFFF735FC082059
:105F300003F064FC042005F03DF908F041FD4BE05E
:105F4000924F934D3B78012B0ED98C4B2A68997F49
:105F5000002927D1002A01D0FA2A05D180238D4AB1
:105F60009B0151694B4053612B683A7801332B6098
:105F7000032A26D1814A927F002A20D0864A934262
:105F800026D900232B60FDF701FD01237C4D1A006B
:105F900028881E2180B2FDF751FE2B8864339BB206
:105FA0002B8015E0002A04D1FF33987CFDF72EF9F1
:105FB000DAE77A498A42D7D1FF33587CF6E7784A44
:105FC000DDE778498B4203D900232B60012ADAD020
:105FD0002378012B00D17FE7734B1B78002B00D077
:105FE000ADE02378012B03D0704A9B009B58984763
:105FF0006F4E3378002B04D06E4B1B78002B00D0F3
:106000009DE003F07FF900280ED16B4B1B785BB24B
:10601000002B09D0694B1B78002B05D0684B1B78EF
:10602000002B01D100F030FF03F06CF9002829D1DA
:10603000524BDB7E002B25D0624D2B78002B21D0DC
:106040005D4B1B785BB2002B1CD15D4B1B78002B8A
:1060500018D12378052B15D03378002B12D1FFF7F8
:106060001BF9594F3B78002B05D0584B1878002866
:1060700001D108F0B3FC0023554A3B701370554A18
:106080002B701370544F3B78002B0AD0534B1B7866
:10609000002B06D003F09AFF051E02D10AF028FB60
:1060A0003D704F4D2B78002B1ED0454B1B78002B9D
:1060B00014D14C4B1B78002B10D1304B5B7F002B45
:1060C0000CD0494B1B78002B08D13B4B3F4A1B7827
:1060D0001278134302D13378002B40D0434B1A88F7
:1060E000434B1A8000232B70424B01931B78002BEB
:1060F00025D02378052B22D13F4E204F33783F4CBB
:10610000002B00D182E0FDF76BFDFB7E002B0CD055
:10611000294B1B785BB2002B07D1334B1D78002D28
:1061200003D1FFF7B9F8364B1D7003F05BFF354B19
:106130001B882380002333700023019A1370F7BD5E
:10614000022B00D0EFE62A0029001020FFF776FB93
:1061500001221B4B35701D702B4B1A70E3E6052096
:1061600004F04CF8BEE7C046EA170020641800208F
:106170006D1800206818002062020020B01A00206C
:10618000800000208C1A002018180020941A00208B
:10619000141800200008005010210100983A000057
:1061A00098340100E028010050180020B42D0108A7
:1061B000AF210020AE210020A21700207E00002089
:1061C0002C180020820000202E180020191C00200E
:1061D000A01700202F1800201E180020AB2100203F
:1061E000721800202D1800204E180020CC3C010809
:1061F000840000207318002064030020EC170020A6
:1062000079170020CA3C010846180020FB7E174D74
:10621000002B0BD0164B1B785BB2002B06D1154B15
:106220001B78002B02D12B78002B16D0124B7A7FD3
:106230001B78002B0FD0C823534323800123002455
:1062400033702C70FDF7DCFBFDF736FC21002000DD
:10625000FDF792FA70E70A23EEE7FFF71DF8074B08
:106260001B88238001232B7066E7C0467917002026
:10627000A21700204E180020961A0020CA3C0108E0
:10628000F0B50024BB4B85B01C70BB4B20000293C3
:106290001B88029A01339BB2138009F02FFBA042A6
:1062A00002D0200009F0ECFBB44B1B78002B00D08F
:1062B0001AE1B34B01931B78052B03D1B14B1B782B
:1062C000002B17D103F01EF80126002800D1FCE0B6
:1062D000019B1B78012B0DD1AB4B1B78002B09D0F8
:1062E000029B1A88A94B5343A94A9BB2934201D8F7
:1062F00006F08CFBA74CA84D23782E78002B00D1FC
:1063000058E20023237008F05BFB002E01D008F058
:1063100011FA00200BF0A8F9A04E3378002B04D01E
:106320009F4B1B78002B00D0DEE0019B1F78012FD4
:106330000CD19C4B1878002808D00138C0B21870D6
:10634000002803D103F05AFF2F7027703378002BF9
:106350000DD0954A1388002B09D0013B9BB21380C6
:10636000002B04D10AF01EFA032008F037FB03F0DB
:106370005FF98E4C2378042B00D1ADE080228C4B4A
:106380008C491878D2008C4B002800D18AE108692A
:10639000104200D0B8E0894A894812780478224334
:1063A00000D0B1E019780131C9B21970022900D8C2
:1063B000C2E084491A700A700121834B0170197080
:1063C0001020FFF73BFAB7E000210220FDF77CF830
:1063D0000220FDF703F808230404240E05001C42E4
:1063E00026D0FDF7D0FD00F0FFFE0390FF281FD060
:1063F000019B1B78012B1BD0744B1B78002B17D0F3
:10640000734F3800FCF718FC0200132804D1380041
:1064100070490CF0BBF81222039BBB540023BF1839
:106420006D4A7B7012786D4B1A700122594B1A70AD
:10643000630701D56A4B1E70344205D0694B1E704C
:10644000FDF7A8FD684B1870A30702D50022654B25
:106450001A70EFB26B0601D5644B1E702D0602D583
:106460000022624B1A707B0709D5614B0121052080
:106470001E70FDF781F9E1225E4B52011A8008235C
:106480001F4205D000215A4B05201970FDF774F901
:10649000E4061AD5454B1C78042C16D1564B1B78B4
:1064A000012B12D1554B1B78002B0ED1544B5F2082
:1064B0001D78013C6A1C1A70FCF790FF514B6D006F
:1064C0005853002CF2D10AF0EFFA0C20FCF786FFAB
:1064D000304200D078E7FBE6474D2B78012B05D002
:1064E0002B78002B00D149E705B0F0BD434B1B785A
:1064F000012BF9D10AF07EFA002801D108F060FAE8
:106500002378042BECD039E70A69520504D42B4ACE
:106510001278002A00D17FE029480278012A7BD135
:106520001A780132D2B21A70022A03D8234B1B7890
:10653000002B01D002230370FEF7BCF904001328DE
:1065400002D000221F4B1A702F4E304D33789C42E0
:1065500000D1E0E0132B08D0132C06D02C4B0021E7
:106560001A782C4B1878FFF769F9002334702B80C8
:10657000BAE7C04623180020321800205018002027
:10658000EA17002064030020771A0020EFEEFFFFD7
:10659000111100002618002056180020AF210020FD
:1065A000AE21002058180020A6210020191C002030
:1065B0008C1A0020000400502B1800206D180020B9
:1065C000181800201D1800202C180020761A002012
:1065D000A5170020A6170020E73C0108A4170020FB
:1065E00035180020381800203718002036180020F1
:1065F00034180020621800202622002020220020CB
:1066000027180020D8210020090000206C1300204A
:106610002D1800200800002080220869D2001042B6
:1066200013D1664C207800280FD165480578022DDB
:106630000BD11A780132D2B21A70022A03D8237809
:10664000002B00D178E7032375E70969114203D1D4
:106650005A4A1278002A22D0594C2278032A1ED195
:106660001A780132D2B21A70022A04D8534B1B781E
:10667000002B00D160E7002210201100FFF7DEF8A8
:106680000022504B1A70504B1B78132B02D04F4BEB
:1066900001321A7000232370FEF756FA4CE70022ED
:1066A0001A7049E7474C0969207800281FD0114229
:1066B00003D1424A1278002AF1D01A780132D2B2BC
:1066C0001A70022A04D83D4B1B78002B00D133E707
:1066D000002210201100FFF7B1F8002323703A4B7D
:1066E0001B78132BD8D00122384B1A70D4E71142F3
:1066F000D5D1324A1178CAB20029D0D119780131E6
:10670000C9B21970022900D816E731491A700A7007
:106710000121217054E628882E4B01301B8880B25D
:106720002880834215D1284D2B4E132C0AD128786E
:10673000132804D000213278FFF780F82C70002352
:106740003370D1E60022012120002C70FFF776F88B
:10675000F5E7224B1E88B04200D2C5E6132C00D1CB
:10676000C2E6B0420AD1102C00D1BDE601211A4B7D
:106770000A0020001970FFF761F8B5E623000B3B13
:10678000DBB2012B0ED80127134B1F70144B198855
:10679000FCF744F989B2002904D13A0039002000FD
:1067A000FFF74CF82A880F4B9A4200D09CE601363E
:1067B0002E8099E6002E00D1AEE5A8E56D180020E8
:1067C000181800202C18002008000020461800206F
:1067D0001D180020E03C01082D180020E43C0108B1
:1067E000E23C0108FFFF00000022F0B58A4B85B0B3
:1067F0001A708A4A1378002B07D0013BDBB2137062
:10680000002B02D10122864B1A70864A1378002B86
:106810001AD0013BDBB21370002B15D1824B1B68E1
:106820009B7FC72B0ED8814B1B78013B012B09D8CE
:1068300001F0C0F87E4B1878022801D102F0DEFF8B
:1068400005F0D8FAFEF7BCFF7A4B1978002914D06E
:10685000794A1278052A01D0002A0ED10139C9B22D
:106860001970002909D175480378002B05D014222E
:106870000BF09EFE01226A4B1A70714B01931B882C
:10688000002B75D100236F4A02931378002B00D0A0
:106890007CE06D4E3388002B00D080E078236B4F76
:1068A0006B4C397822884B436A4D9A4210D12B7831
:1068B000002B0DD0FEF736F900210620FCF75CFF17
:1068C0000A22654B5B7F5343644A138000232B707D
:1068D000634B03931B78012B00D198E003F076FB08
:1068E000002800D093E05F4B1B78042B00D18EE092
:1068F0002088002800D179E0013880B2208000286B
:1069000000D073E00122554B30801A802A70FCF7CA
:106910007DFCFEF7B1F92B78002B0BD00322524BF4
:10692000062019780131114019704B425941C9B202
:10693000FCF722FF4D4B1C78002C00D1AAE04C4CF8
:106940004C4D2100280003F055F9FA2322885B0002
:106950009A4204D8484BDA882B889A421DD2BFF35A
:106960004F8F464B464ADA60BFF34F8FC046FDE774
:10697000019A013B9BB21380002B00D082E7394B78
:106980001B78013B5A425341DBB27CE7013B137059
:106990003C4B1B78002B00D17BE705B0F0BD3A4B98
:1069A0001B78002B00D079E7384B1B78002B00D0E8
:1069B00074E72C4B1B78012B0ED03388013B9BB224
:1069C0003380002B00D069E7234B9B7F3C2B00D901
:1069D00064E7FCF779FC61E707F01CF8132800D1A5
:1069E0005CE707F017F81628E7D157E723885A1E07
:1069F000132A00D98FE73A78002A00D18BE70020CC
:106A00009B0701D1224B987CFCF700FC83E778229E
:106A10003B78534323807EE76C1800204418002005
:106A2000261800205A180020A81A0020C81B002091
:106A3000E9170020A4170020E41B0020A517002060
:106A400048180020AE2100206202002088000020AB
:106A50005E020020961A0020B01A0020EC170020D9
:106A6000EA170020191C0020781700205018002079
:106A700002180020041800200618002000ED00E095
:106A80000400FA05AF210020171C00204E1800203A
:106A9000AF1B00205A4D039A2B88127801339BB20A
:106AA0002B80012A12D0DB0710D4564E564930787D
:106AB000431C3370554B4000C01803F09BF83378EB
:106AC000032B00D93470012003F03EFC2B889B0778
:106AD0000AD14F4B1B78002B03D14E4B1B78002B58
:106AE00002D001224C4B1A704C4B1B78002B5CD10E
:106AF0004B4B1B785BB2002B57D102F003FC0028F4
:106B000053D1484B1B78002B03D0474B1B78002BED
:106B10004BD0464B1878042847D0454B454A1B7844
:106B2000002B12D044490B78002B0ED0434D2D780A
:106B3000002D0AD1012808D0013BDBB20B70002BDD
:106B400003D135490133D3740B70029B002B2CD039
:106B5000002301990B80937F002B01D1FCF7B4FB3C
:106B6000374D2B78002B03D1344B1B78002B02D0F0
:106B7000022002F043FE00F047FB0023314A2B7055
:106B80001370294A1370304A13700122224B1A7075
:106B90002E4B1A702E4B1B78002B2AD102F0B2FB21
:106BA000002802D1200007F019FF2A4B1B78002B88
:106BB00018D1294B1A78002A14D018780138C0B29D
:106BC000187000280ED104F0F5FA214B1B78002B29
:106BD00008D003F0FBF9002804D109F0E3FD0320FD
:106BE00007F0FCFE03F05AFC02F0E4FD06F06CF83E
:106BF000D3E603F0EBF90028D0D10324D2E7C04656
:106C0000F01700204F18002002180020FA1700206B
:106C1000F5170020751A0020561800204E18002085
:106C2000A2170020AB210020171C0020191C0020F7
:106C3000E01A0020B01A002059180020BA170020CE
:106C4000C81B00206A130020161C002026180020F4
:106C5000AF2100202C1800205C180020F0B53D4B1F
:106C60003D4DDA7F85B0531ED9B202292CD8EB18DE
:106C7000991CC97F0191591D0833CE7FDC7F374BAA
:106C800002931B780393019B002B0CD0344F3B786D
:106C90000093002B1ED0012B4BD003233B70314BB4
:106CA000029A1B68137000212F4B029A59561078D4
:106CB0006B1C40180122DB7FC0B203F049FDFF28A6
:106CC00000D10020C4B213E0012601237642340033
:106CD0000193D4E7234B03991960731C29D00099C1
:106CE000B0B203F0F1FC002823D0009BF4B23B705B
:106CF0001A4B1C70039BA3420CD0A87902212B18BD
:106D00001C712C5403F070FE012004F0E5F8012200
:106D1000164B1A700922164B1A80019B002B06D0C5
:106D20000F4A13780133DBB2032B10D8137005B070
:106D3000F0BD6B1CDA7F631CAFD00021A0B203F062
:106D4000C3FC0028A9D00123E4B23B70D0E70023A4
:106D5000ECE7C046B11A0020B01A0020301800201D
:106D60009417002080170020A2170020261800206A
:106D70004C180020002170B5104B114C1A68114BB3
:106D800025685956002A15D00F4B28001B68FEF7BE
:106D9000DFFC2860206803F019FE206803F0F6FC91
:106DA000012004F099F80922084B1A80084B083A90
:106DB0001A7070BD2800FEF7E1FCEAE79C1700207E
:106DC000A41A0020A2170020981700204C180020B9
:106DD0002618002070B504000D00002807D01B4ABB
:106DE0001B4B117F1970002313771A4A137003F09D
:106DF000C3FF0020184B194A19688B7F1370184A7B
:106E00001070184A1570184DC72B15D8844202D03F
:106E1000164A2B601360FFF721FF2A68144B1A6093
:106E2000144B1A88144B1A800023144A1370144A06
:106E30001370144A137070BD002C03D00B680B4AFA
:106E40002B601360FFF796FFE7E7C046B01A0020FB
:106E50008C170020A1170020A41A00203018002051
:106E600094170020A21700208817002090170020F8
:106E700084170020D23C01084C1800207E0000201E
:106E80002F180020A017002010B5134B134A1B78B1
:106E900012783833DBB2032A15D1062B03D9104BF5
:106EA0001B78002B14D10F4B04201B78002B00D033
:106EB0000238FEF76DFB00230B4A13700B4A137068
:106EC0000B4A137010BD062B02D8FFF753FFF2E7F1
:106ED000FFF7C4FEEFE7C04630180020EA17002095
:106EE0009E1A0020741A0020A01700202F180020DE
:106EF0007E000020144BDB7F502B20D913490A78E9
:106F0000002A0AD1124A503B1288534305225343A8
:106F1000104A9BB2138001230B7000220E4B1A7093
:106F20000E4A0F4B116819600E4B19688B7FC72BE7
:106F300000D90B68136001220B4B1A7070470022B6
:106F4000044B1A80E9E7C046B01A0020A0170020C1
:106F5000CE3C01084C1800207E000020881700203D
:106F600084170020A41A0020A1170020F8B5224B96
:106F7000224C1A78002A02D0227700221A700022AE
:106F80001F4B1A701F4B1F681F4B3D001B7893420D
:106F900001D01E4B1D681E4B1B78C72B1AD8A07939
:106FA000EBB2221802211371235403F01DFDBD42E0
:106FB00004D004F01FFF0122164B1A7000232A345C
:106FC000237005F0E3F9012003F086FF0122124B44
:106FD0001A70F8BD114E3068056003F0F7FC306898
:106FE00003F0D4FBBD42E9D032680123A179907F40
:106FF00005F050F9E2E7C0468C170020B01A0020D7
:10700000A217002090170020A11700208817002049
:10701000301800205618002026180020A41A00203E
:10702000074B1B78012B0AD0064B1B78012B06D08F
:1070300001220549CB7C5340CB74044B1A70704736
:10704000191C0020EA170020B01A00203E1800206A
:1070500000220E4B1A6001230D4AD1794B40117F5B
:10706000D371002901D0591C1177D17E002901D09C
:107070000133D3760123074A1370074A1370074A76
:1070800013700022064B1A707047C0469C170020F0
:10709000B01A00203E180020431800208200002073
:1070A000BC00002010B50F4CA37E002B0ED00E4B61
:1070B000E2791B68997FA318C72908D89B78A35445
:1070C00001220A4B1A700A4B92181A7010BD1879D7
:1070D000002301211A0003F03BFBFF28F6D0E379DF
:1070E000E054EDE7B01A0020A81A00204018002054
:1070F0004218002037B5224C236831331B78042B0B
:1071000006D1204B1C22FA211B781F48FCF796FD64
:10711000236831331B78023B012B2CD8194B1B4CB5
:107120001B781B4D002B09D0A0238022DB055200C9
:107130009A6101233C202B70FDF7B0FD23006A33D8
:107140001878FCF7C5FD210023002200683109886A
:10715000643362321B8812886634019121880D489D
:1071600000910021FCF708FEA0238022DB055200DD
:107170009A6200232B700120FCF740FD37BDC0460A
:10718000A01A00201A1B0020AB090000B01A002032
:107190005B180020FE1A002030B502780300013A87
:1071A000D2B20020FD2A0CD801240E4D59188B4272
:1071B00006D01A78501EC0B2FD2803D900221A70DA
:1071C000012030BD232A09D02A3AD2B21A2A07D880
:1071D0002800D040020020402242F2D00133E6E7EE
:1071E0000020EEE7C1FF8007092802D83030C0B286
:1071F000704703000A3BFF20052BF9D8014AD05CF9
:10720000F6E7C046D02D01080F2210B50021044832
:107210000BF0CEF90022034B1A70034B1A7010BD0D
:10722000BC170020BB170020BA170020F8B50A4F82
:1072300006003C78002C0BD1084D0E222D21280091
:107240000BF0B6F9AC73631C3B70044B1E5501E0A8
:107250000D2CF8D9F8BDC046BB170020BC17002084
:1072600073B5264A1378012B0CD0254B1B6831339C
:107270001978042940D81523CB40DB073CD50023DF
:10728000137073BD1F4D002313701F4B1F4C1B88C1
:10729000181CC72B00D8C82023006A331B781C4E4B
:1072A00080B2002B06D0A0238022DB0552009A6119
:1072B00001233370FDF7F2FC23006A331878FCF7E2
:1072C00007FD2100230022006831098864336232FF
:1072D0001B881288663401912188280000910121C1
:1072E000FCF74AFDA02380220020DB0552009A62B1
:1072F0003070FCF783FCC4E7064DC4E7A3170020F9
:10730000A01A0020CB170020101B0020B01A00206C
:107310005B180020EC1A002010B51C4B1B78002BCA
:1073200007D0002924D1002822D00222184B1A703D
:107330001EE0002918D1174B1B78002819D1164AD6
:107340001278002A01D1002B01D0032B10D1012388
:10735000124A11784B40137003D0114A114B127826
:107360001A70114B0122E2E7002801D0FFF758FE06
:1073700010BD074A032B02D001231370F8E70B4915
:1073800009780029F8D01370094BEBE7C81B0020DF
:10739000E9170020191C0020AF2100206A130020EB
:1073A000E63C01085A18002056180020AB210020A6
:1073B00046180020002370B5474D2B70984203D02B
:1073C000464B1B78002B21D0454B1B78012B11D14C
:1073D000444D2B78002B0ED0002002F00FFF00242C
:1073E00020002C7003F0E6FE3F4B1B78012B01D0F0
:1073F0003E4B1C7070BDFEF7CFF93D4B197800294C
:10740000EAD00A224A433B4B1A70E8E701F07AFFC0
:10741000354C002807D001F085FF374B1B78002B37
:1074200030D0364B2CE0364B1B785BB2002B02D0B1
:10743000FFF79CFDF1E7334B1B78002B05D008F0DC
:1074400083FF0322294B1A70E7E72378032B16D01A
:10745000234A1278012A05D1264A1278002A01D13E
:107460002A70C7E7012B02D00022204B1A70264950
:10747000264B09781A78002915D1002A1AD1244BF5
:1074800001221A700022234B1A702378012B04D09A
:10749000164B1978032900D01A7001221E4B1A705E
:1074A0001E4B1A70A6E7002A04D11D4A1278002A42
:1074B0000ED01A701B781B490E2B01D80022CA541B
:1074C000174A194813700BF07BF80122174B1A70FA
:1074D000FFF79AFED3E7C046C81B00206D180020B6
:1074E000EA17002031180020191C0020BC000020E1
:1074F000E41A0020581800202C18002045180020FD
:10750000A2170020AB210020BA170020BB170020D3
:107510003C1800202B1800205618002026180020A8
:10752000B9170020BC170020CB170020A31700209C
:10753000F0B5BB4BBB4CBC4A1B7885B0E6790D005F
:107540000392012B03D10223039A13701CE001273D
:10755000039B1F70122800D95FE1FBF7CFF91300DE
:107560001700880092009A00AA0006011500090180
:1075700013015E01260132015E015E015E015E01C2
:1075800052013801FDF788FC05B0F0BDA74B196822
:107590008B7F3833DBB2062B3ED90022A44B1A7006
:1075A000A44B01321A70A37E002BCCD0A24B1B78C7
:1075B000002BC8D1A14B1B785BB2002B0BD0A04B8A
:1075C0001B78032BE0D19F4B1B78002BDCD09E4B0C
:1075D0001B88002BD8D0A35DC72BD5D84823734375
:1075E000E3181A00A43212789233383AD2B2A25574
:1075F0001A7003F0C1FB954C206803F0E7F920688E
:1076000003F0C4F8012003F067FC0123904A1370D3
:10761000904A1370904A98E70A0030321378062B8C
:1076200007D109698D480D68854202D88C4B0B60E3
:10763000AAE70133DBB21370042B14D1894B1B78FA
:10764000002B01D10533137013780122383BDBB2D4
:10765000A355A419A3707F4B1A70834B92181A700C
:10766000824B002223E0062BEED90023EBE77E4B72
:107670001F70FFF7EDFC002D00D185E7039B1F7005
:1076800082E7794B1F70FFF70DFD002D00D05AE700
:107690007AE70020664B1870227F754B20771A70AE
:1076A0000122644B1A7001F0ADFD704B02221A707A
:1076B0006AE7002900D067E701F024FE002800D027
:1076C00062E75A4B1968887FC72823D90B69E1798B
:1076D0001B684A42514148224A43664EA218506FE5
:1076E000654A9D196549664C954202D885199542AF
:1076F00003D900230B60236025E70A682060554208
:107700006A41524213400B60984200D33CE7086044
:10771000236039E75B4B1A5C002A01D01D5433E724
:107720000E000A000F002E362F32337814785B00DB
:10773000A4002D3723433C782343DBB2062B01D82A
:107740000133DDB201242B0023403B706B08234042
:10775000AD083370157023002200009404F038FD4A
:10776000414B1C70484B1C700EE7FDF7D9FA0BE734
:1077700001212E4B1B682A331A784A401A70344B69
:10778000197001E7270000223B371100387802F01A
:107790009BFF002800D178E73B78A21913710122E2
:1077A000A3552C4B1A70304B80E7627C131C082ABF
:1077B00000D908230133637401222B4B1A701C4B30
:1077C0004FE7637C002BF6D0013BDBB2F3E7174CAD
:1077D00023680733D87F02F0A3FAC0B2162806D870
:1077E00025680130C0B202F095FA0735E8772368C2
:1077F0009B7F3833DBB2062BDED80122144B1A7084
:10780000DAE70A4C23680733D87F02F089FAC0B25E
:107810000028ECD025680138E4E7064B1F70CEE75E
:10782000191C0020B01A0020E9170020A81A002017
:107830006A130020561800204E180020A2170020BE
:10784000EA1700202F1800204C180020A41A00204E
:107850003F1800204018002026180020FFE0F50502
:1078600000E1F5059A1A002042180020BC00002013
:1078700029180020806967FF80AF2A239C17002009
:1078800098170020741800204118002070B52A4C69
:107890000E00E3791100E55C284B1B78002E02D125
:1078A000002821D170BD002BFCD10028FAD0002285
:1078B000234B9A56002A33D12B003833DBB2062BE8
:1078C0001CD8204D2868FDF759FF040002F064FB26
:1078D00000280BDB2B6820001C60FBF7D3FFFBF7B5
:1078E000FFFF0122184B03E0002B03D0174B0222AD
:1078F0001A70D7E70122154B1A70D8E768181300E1
:10790000C0B202F025FFFF28CCD08542CAD0E3796F
:10791000E21810710122E0540D4B1A700D4BE6E78E
:107920000020FFF757FA012200210B4B1A800B4B66
:1079300019700B4BDCE7C046B01A0020C81B0020B2
:10794000A2170020A81A00203F180020E9170020E5
:1079500040180020421800204C1800207E00002013
:1079600046180020002270B50E4D11000400EE797B
:1079700002F0AAFE002807D10B4B1B78012B02D87E
:1079800002220A4B1A7070BD00220221074BE4B29A
:107990001A70AB191C71064BAC551970E87903F0DD
:1079A00023F8F0E7B01A00205A180020E917002049
:1079B0004218002070B5154B1B689B7FC72B17D84A
:1079C00000220A251300124C124E2178D0B28142B7
:1079D0000FD8002B13D103290AD100220121013B2A
:1079E00022700D4A98B21170FFF7BCFF04F002FA42
:1079F00070BD6B43B05C01321B189BB2E6E7581EAA
:107A000080B20329E9D0FFF7ADFFF1E7A81A002003
:107A1000C81B0020D21B00205A180020F0B5B84B1C
:107A200085B001931B7805000C001600002B0AD0CE
:107A3000102808D00D2806D0002E21D1002C1FD0F0
:107A40000222B04B1BE0B04F3B78002B1AD0002C29
:107A500000D16BE2002E00D04FE22800FFF7C4FBFC
:107A6000FF2800D130E2FFF7E1FBA84AA84B1278CB
:107A70001A700122A74B1E70A74B1A70A14B1A70E7
:107A800005B0F0BD122DD7D82800FAF737FF130044
:107A9000130013001300130013001300130013004E
:107AA0001300E2006F017D018501C9010202070296
:107AB00013001300002E16D0002CE1D0974B1B783A
:107AC000002BDDD1964A1178002902D01370914A1B
:107AD000137000210122934B1970934B1A702800E8
:107AE000FFF726FDCCE7002C01D0864B8AE08D4BBA
:107AF0001A78002A00D098E08C4B1B785BB2002BE0
:107B000006D0052DBCD88A4BDD7704F03FFCB7E7E3
:107B1000884E2800F379019304F0F6FE7B4B7C4FEE
:107B20001D783D70FFF746FF7A4B1C70824C22682F
:107B3000937FC72B02D8AD083D70A1E73833DBB285
:107B4000062B00D97CE713691A687C4B93429B4152
:107B50005B4206330293724B03931B78002B00D1D8
:107B60008EE7029A93424FD12D093D7004F0E4FE56
:107B7000039B1D7802F07CFD002102000A20029B7D
:107B80005B1BDBB28B4245D164206D4B50431D68BB
:107B90006C4A5768A8420AD3B8423FD36A4A15686C
:107BA000A8423BD2EB195B08984200D23D00280066
:107BB00002F0C4F8236830331A7882420DD0C0B284
:107BC0001870019B3838C0B2F054F318987004F064
:107BD00011F90221019802F007FF23682800998B10
:107BE00002F0D6F8B8420AD3574B1B68984206D227
:107BF000DA195208904216D22368988B381A2368F3
:107C00001860524B01223AE728000321FAF780FE60
:107C1000C5B2AAE701314243C9B2B3E75D6B854201
:107C2000C5D90500C3E71800E9E701211C703E4BE8
:107C30001970082D02D1FDF70BFB21E7092D02D1A8
:107C4000FDF7A2F81CE7072D00D048E709F092FCE9
:107C500016E7002C21D0002E00D146E7334B1B78CD
:107C60005BB2002B2ED002F0B1F9002804D1384BC2
:107C70001B88092B00D803E72F4B364A1B68997FD6
:107C800001235354344A1370344A1370344A354B29
:107C900012681A60FFF7F8F8F2E6002E00D0EFE65F
:107CA0003B78002B00D0EBE61D4B1A781E70002AA3
:107CB00000D091E01D4B1B785BB2002B1AD0FFF770
:107CC00055F9DDE6174A1370144B1B78002B00D0D2
:107CD000D6E613490878002802D00B700D490B70C6
:107CE000002301211370104B0A000A201970FDF7C0
:107CF000FDF9C5E601221C4B1A70064BBFE6C046D3
:107D0000AF210020E9170020BA170020E63C010847
:107D10005A180020BC00002046180020191C002022
:107D2000C81B00206A13002056180020A21700204C
:107D3000B11A0020B01A0020A81A0020FFE0F505B3
:107D4000F03B0108303C0108283C01083F180020A6
:107D50004C18002074180020421800204118002000
:107D600084170020881700203A1800207C4B1B78CD
:107D7000002B02D000210C20B2E601225242310039
:107D80002000FFF783FD7BE6754B01221B78002B5B
:107D9000F5D000210B20A3E6002E28D1002C00D125
:107DA0006EE601226F4B1A70019B1B78002B1BD1D2
:107DB0006D4A127852B2002A11D16C4A1378002B06
:107DC00000D15DE60A21013BDBB21370684AD15451
:107DD000684A694B12781A700022684B4FE6684A6D
:107DE0001370FFF7C3F8F7E7FDF756F848E6002CE5
:107DF00000D145E65D4D634A2B7811780B4303D1E2
:107E00003B78002B00D13BE600245F481470210032
:107E10000F223C700AF0CCFB584B2C701C7064E6AF
:107E20005A4B1B78012B00D12AE6504B1B78002BB4
:107E300000D001E6002E09D0494B1878002831D136
:107E4000002C00D11CE6FDF7A7F84EE6002C00D070
:107E500016E6434B1B78002B27D10022424B9A5643
:107E6000404B002A2DD14A4A1268002A29D1012507
:107E70000E32484844491D700AF0AAFB414B3D4A66
:107E80001C7012783C4B3D701A703C4B1C70424B7E
:107E9000B8E631002000FFF73FFAF1E52000FFF7D8
:107EA00089FAEDE5002C00D0EAE500212C4B3B4A95
:107EB0001970107F3A4B11771870012001F0A2F968
:107EC0002E4B02221A70E2E7122D00D9B8E52800E5
:107ED000FAF70AFD09FE09FE09FE09FE09FE09FE80
:107EE00009FE09FE09FE09FE0BFE4CFF5AFF64FF66
:107EF000A6FFDFFFE4FF09FE09FE122D00D9BFE552
:107F00002800FAF7F1FCD9FDD9FDD9FDD9FDD9FD3D
:107F1000D9FDD9FDD9FDD9FDD9FDA8FE33FF41FF1B
:107F200077FF8DFFC6FFCBFFD9FDD9FD122D00D9FC
:107F300082E52800FAF7D8FCBEFDBEFDBEFDBEFD01
:107F4000BEFDBEFDBEFDBEFDBEFDBEFDB1FE1AFF07
:107F500028FF30FF74FFADFFB2FFBEFDBEFDC0467F
:107F60006A130020E9170020A2170020C81B002078
:107F7000D21B0020E63C01085A180020BC0000205B
:107F8000A1170020BB170020CB170020EA17002004
:107F90009C170020BC17002056180020B01A0020A3
:107FA0002918002010B5012001F02CF90123034A03
:107FB0001370034A1370034A137010BD5618002043
:107FC0004E180020BC0000200022044B1A70044B05
:107FD00001321A70034B1A707047C0464E180020C9
:107FE0002618002056180020002300B50B604828F2
:107FF00063D8FAF76FFC2529313739373933623DB9
:108000005A5A5A4444445C46622B5C252D5C5A35CE
:108010003B5A5A5A5A2F485A5C444641414162627F
:10802000485A4A5A48336233335A2F5A56585A5C80
:108030005C5E5A5A5A5A5A5A4E525252525248003A
:1080400009230020136000BD1723FAE73D23F8E75A
:1080500001230B600A23F4E70723F2E70223F0E78A
:108060006823EEE7D023ECE73223EAE72823E8E7AA
:1080700005230B60AE33E4E701235B420B60C723AB
:10808000DFE70523DDE70423DBE703230B60603331
:10809000D7E70B4B0B600B4BD3E70B4B1B78013B2C
:1080A000CFE77823CDE70623CBE70123C9E70323F6
:1080B000C7E701230B600E33C3E701204042C2E74C
:1080C000DC050000AC0D0000273D0108F0B587B0CD
:1080D000140006000F0005F09DFC02000F2832D1AD
:1080E0005D4B1B78002B2ED05C4B1D68002D2ADBCE
:1080F000002E26D0092D24DC594902A80AF068FA7E
:108100006A465848E4B2435DD61DE318DBB2190055
:1081100000222039C9B25E2903D91F2B0AD87E2339
:108120000BE00132B75C9F4202D11B19DBB2EEE7D4
:108130000F2AF0D17E2B00D92023012243554A4B30
:108140001A7007B0F0BD002F30D1002EF9D00122F7
:10815000464B1A70464B1F7001F0D4F8061EF0D142
:108160003D4B414F1D78002D23D1424B424E1B7891
:108170002A00013B3078614202F06AFA01223F4B4B
:1081800030701A703A7005F045FC1328D9D005F00C
:1081900041FC1528D5D005F03DFC1628D1D0384B30
:1081A0009B7F002BCDD1FBF78FF8CAE7002ED3D1F0
:1081B000C7E705F02FFC082814D1324B324D1B685D
:1081C0002868998B314B4C432018984203DC0028D7
:1081D00002DA2F4800E0300001F0DAFD28600123C8
:1081E0003B70AEE705F016FC0F2829DC0D2824DCD7
:1081F00005F010FC02AAC0B201A9FFF7F5FE0028A5
:10820000EDD1214D019A29681000029B914203DBB8
:1082100018008B4200DD0800210002F019FADDE7AA
:108220000223194E2A00306821000019C0B202F062
:108230008FFAFF28D3D03060D1E700252B00F0E77C
:1082400023380428D4D8FAF73BFBF8D303EB050016
:108250000123E6E70323E4E7151C0020E81B0020C8
:10826000AF270108EC1B0020BC000020E91700200C
:10827000C81B00202A180020141C00203A180020D7
:10828000B01A0020A81A0020101C0020F5E0F50507
:10829000F6E0F50530B5AE4C8BB0256805F0BAFBBD
:1082A00004AAC0B203A9FFF79FFE002809D1A94B79
:1082B000039A1968914201DA1A6002E0049A914225
:1082C000FADC05F0A7FB482800D9C5E0FAF716FB51
:1082D00049005000600068007F0066007D008D004E
