:020000040800F2
:1028000000400020352D00081D2D00081F2D000858
:1028100000000000000000000000000000000000B8
:10282000000000000000000000000000212D000852
:102830000000000000000000232D0008D1B50008B2
:10284000852D0008852D0008852D0008852D0008A0
:10285000852D0008852D0008852D0008852D000890
:10286000852D0008852D0008852D00089D4600084F
:10287000852D0008852D0008852D0008852D000870
:10288000852D0008852D0008852D0008852D000860
:10289000852D0008852D0008852D0008852D000850
:1028A000852D0008852D0008852D0008852D000840
:1028B000852D0008852D0008000000006912010820
:1028C00002B4714649084900095649008E4402BCC9
:1028D0007047C04602B4714649084900095C490086
:1028E0008E4402BC7047C04603B47146490840009C
:1028F0004900095E49008E4403BC704703B4714629
:10290000490840004900095A49008E4403BC7047F9
:10291000002243088B4274D303098B425FD3030A1E
:102920008B4244D3030B8B4228D3030C8B420DD331
:10293000FF22090212BA030C8B4202D312120902BF
:1029400065D0030B8B4219D300E0090AC30B8B42FD
:1029500001D3CB03C01A5241830B8B4201D38B03AB
:10296000C01A5241430B8B4201D34B03C01A524150
:10297000030B8B4201D30B03C01A5241C30A8B4293
:1029800001D3CB02C01A5241830A8B4201D38B027E
:10299000C01A5241430A8B4201D34B02C01A524122
:1029A000030A8B4201D30B02C01A5241CDD2C30994
:1029B0008B4201D3CB01C01A524183098B4201D310
:1029C0008B01C01A524143098B4201D34B01C01AFB
:1029D000524103098B4201D30B01C01A5241C30873
:1029E0008B4201D3CB00C01A524183088B4201D3E2
:1029F0008B00C01A524143088B4201D34B00C01ACE
:102A00005241411A00D20146524110467047FFE739
:102A100001B5002000F0F0F802BDC0460029F7D053
:102A200076E7704703460B437FD4002243088B426E
:102A300074D303098B425FD3030A8B4244D3030B45
:102A40008B4228D3030C8B420DD3FF22090212BA0A
:102A5000030C8B4202D31212090265D0030B8B4286
:102A600019D300E0090AC30B8B4201D3CB03C01A70
:102A70005241830B8B4201D38B03C01A5241430B4B
:102A80008B4201D34B03C01A5241030B8B4201D33B
:102A90000B03C01A5241C30A8B4201D3CB02C01AA6
:102AA0005241830A8B4201D38B02C01A5241430A1E
:102AB0008B4201D34B02C01A5241030A8B4201D30D
:102AC0000B02C01A5241CDD2C3098B4201D3CB01B4
:102AD000C01A524183098B4201D38B01C01A524163
:102AE00043098B4201D34B01C01A524103098B4267
:102AF00001D30B01C01A5241C3088B4201D3CB0052
:102B0000C01A524183088B4201D38B00C01A524134
:102B100043088B4201D34B00C01A5241411A00D2E4
:102B200001465241104670475DE0CA0F00D049424D
:102B3000031000D34042534000229C4603098B42BD
:102B40002DD3030A8B4212D3FC22890112BA030A45
:102B50008B420CD3890192118B4208D389019211C7
:102B60008B4204D389013AD0921100E08909C3094C
:102B70008B4201D3CB01C01A524183098B4201D34E
:102B80008B01C01A524143098B4201D34B01C01A39
:102B9000524103098B4201D30B01C01A5241C308B1
:102BA0008B4201D3CB00C01A524183088B4201D320
:102BB0008B00C01A5241D9D243088B4201D34B003B
:102BC000C01A5241411A00D20146634652415B107D
:102BD000104601D34042002B00D54942704763465E
:102BE0005B1000D3404201B5002000F005F802BDA3
:102BF0000029F8D016E770477047C0461C21012312
:102C00001B04984201D3000C10391B0A984201D3CF
:102C1000000A08391B09984201D30009043902A2AD
:102C2000105C40187047C046040302020101010114
:102C300000000000000000000023C25C0133002AF5
:102C4000FBD1581E704700000448054B10B5834265
:102C500003D0044B002B00D0984710BDD4000020B7
:102C6000D40000200000000006480749091A8B1014
:102C7000C90FC91810B5491003D0044B002B00D060
:102C8000984710BDD4000020D400002000000000B0
:102C900010B5074C2378002B09D1FFF7D5FF054B62
:102CA000002B02D0044800E000BF0123237010BDB8
:102CB000400200200000000078160108054B10B506
:102CC000002B03D00449054800E000BFFFF7CCFF0C
:102CD00010BDC04600000000440200207816010824
:102CE00007B501210B4B0C481A6C0A431A641A6C85
:102CF0000A4080210192019ADA6B49050A43DA639E
:102D0000DB6B0B400093009B00F03EF90CF014F9D4
:102D1000FEE7C04600100240006CDC027047FEE790
:102D200070477047014B024A9A60704700ED00E01F
:102D3000002800080D488546FFF7F4FF0C480D49B0
:102D40000D4A002302E0D458C4500433C4188C4206
:102D5000F9D30A4A0A4C002301E013600432A2426C
:102D6000FBD30EF02BFCFFF7BBFFFEE7004000207B
:102D700000000020D40000204C3401084002002054
:102D8000A02B0020FEE70000054B064A9B681B05B0
:102D90001B0F9B009B581F221340D8407047C04612
:102DA00000100240C4170108054B064A9B685B04EB
:102DB0005B0F9B009B581F221340D8407047C046B2
:102DC00000100240A41701080A4AD368DB439B079E
:102DD0000BD0536808491B045B0F9B0058580C2309
:102DE000D2681A4203D1400070470448F7E7032332
:102DF0005843F9E7001002408417010800366E01BD
:102E00003821104A10B593680B40102B15D00DD8FF
:102E1000082B15D00720536812685B0B03400A4942
:102E20009B00D20A02405858D04008E00821183BC5
:102E30008B43EFD18020000201E0FFF7C5FF10BDFA
:102E40000248FCE7001002408417010800366E01BA
:102E500010B50400FFF7D4FF2060FFF795FF606016
:102E6000FFF7A2FFA06010BD104B10B5CB5CD4687B
:102E7000C0189368016823431469234354692343AA
:102E800094692343D4692343546A2343084C214063
:102E90000B4303605368C3601368126A836043681E
:102EA0001B0C1B0413434360002010BD03180108D2
:102EB0000F80FFFF0023036043608360C3600361F2
:102EC00043618361C361036243627047F7B50025C4
:102ED0004B680A6800935F1E1300EB4009D1012F75
:102EE00005D84368C96893434A43134343600020AD
:102EF000FEBD01241300AC40234022422BD01A0017
:102F000003265A435643B446F64301966646046880
:102F1000B443009E564334430460012F06D88C68A6
:102F200087685443019E37403C4384600C69C768FE
:102F30005443019E37403C43C460009C022C0AD19C
:102F40004C69FF2B09D80F26524356436243036A4C
:102F5000B3431A4302620135BAE70F261B0A5B43EB
:102F60005B435E435C43426AB24322434262F2E700
:102F7000044B03600323436000238360C360036149
:102F800043617047FFFF0000014B18607047C04667
:102F9000000000200368020070B501205B0620D409
:102FA0004E680B68486933438E6815683343CE68B2
:102FB0000C6A33430E6933438E6903433343CE694E
:102FC000000C33430B4E234335402B430425136041
:102FD0005368AB431843802350609B019C4205D04B
:102FE0000020D36904490B40D36170BD4B6A9BB28A
:102FF0001361F5E74000FFFFFFF7FFFF00230360C9
:1030000043608360C360036143618361C3610362A2
:1030100007334362704700007FB5C36804000D00AA
:103020009B0402D5012004B070BD4B68C968C2681A
:103030000B4329690B432D490A401343C36043697D
:103040002B4A1340AA69134343610369294A134079
:10305000AA68134303614369274A13406A6913430B
:10306000436101A8FFF7F4FE039B002BDAD0296827
:103070000029D7D0192058438023AA691B019A42FE
:103080001DD14900FFF744FC64210600FFF7C6FC90
:10309000C80032306421FFF73BFC642185B2300068
:1030A000FFF736FC072300012B40C018F8236D0002
:1030B0005B001D40401980B2A0600020B3E789008A
:1030C000FFF726FC64210600FFF7A8FC0801323058
:1030D0006421FFF71DFC642105003000FFF718FC98
:1030E00000012D18ADB2A560E7E7C046F3E9FFFF88
:1030F000FFF7FFFFFFCFFFFFFFFCFFFF96239B01C2
:103100000C2203600023026143608360C36043615B
:103110008361704710B5074B1B78012B05D8082039
:1031200006F0EEFB082006F0EBFB0022024B1A70C3
:1031300010BDC046EF1A00208000002037B52022C5
:103140000125254B254CD96B1143D963D96B11400F
:1031500001910199996B29439963996B29400091D9
:103160000099D96A1143D962D96A9143D96200237F
:10317000F021A3621A4B89011868FFF7C9FB80236D
:103180000138E06222681748134323608023E26815
:103190005B0013430222E360236893432360124BD6
:1031A0001A68AA431A60C168104A11409C2292030F
:1031B0000A43C26019680E4A11400E4A0A43402170
:1031C0001A600D4ADA600D4A9A605A68120C1204AD
:1031D0000A435A6037BDC046001002400014004048
:1031E000000000200000014080000240FFFFC0FFFF
:1031F0000F80FFFFB02A0000640200201814005066
:10320000014B18787047C04660020020F8B5274D82
:1032100004002B78834211D0002810D10120244AC9
:10322000136883431360234A13688343136001F0D8
:1032300083FC8022204B52009A622C70F8BD1F4BF9
:10324000FF211E5CB6013000FFF762FBFF23002266
:103250009B019E421BD01100194E0B0082424B4134
:10326000184F5B423B4001339700FF330132F3516B
:10327000402AF2D101230E4A11681942DDD10D48CE
:1032800001681943016011680B431360D5E7012100
:10329000074A13688B431360064A13688B43136015
:1032A0008022054B52009A61C7E7C0465C020020AD
:1032B0000014004080000240001400500B18010868
:1032C0006402002000FFFF0010B5054B587BFFF79C
:1032D0009DFF0022034B1A80034B1A7010BDC0469D
:1032E000BF1B00206202002060020020782170B520
:1032F0001D4A1E4B12781E4D4A431A801D4A1E4B12
:1033000012781E4C1A70EB7E002B07D1FFF7DCFF02
:103310002378002B01D0FFF7FDFE70BD0122184B72
:103320001A702378002B19D000242000FFF76EFFBD
:10333000322001F0D9FB2B00FF3301349B7BE4B238
:10334000A342F2D2FFF7E6FEE97E00230D4A3D29B3
:1033500002D00A234B4301331380DEE72B00FF33F7
:10336000987BFFF753FFEFE78C0000205E02002000
:10337000C01A00205C0200201918002080000020E4
:103380006002002062020020F8B5802304000826B5
:103390000127114D5B00AB6263B2002B17DB80236A
:1033A0009B00AB62380001F0C7FB80235B00380054
:1033B000AB6101F0C1FB80235B0038006400AB62AD
:1033C000013E01F0B9FBE4B2002EE5D1F8BD802347
:1033D0009B00AB61E6E7C04600040050F7B58025CE
:1033E0008026214C214FAD0076000190BD61012067
:1033F000A66201F0A1FB8020019BBD62034318007F
:10340000FFF7C2FF23681A4A01201340236001F02E
:1034100093FB102300250193012223696D005B0AB1
:1034200013401000ADB2A6611D4301F085FB0120E1
:10343000A66201F081FB019B013B0193002BEBD1C4
:1034400022680B4B01201A408023DB0213432360C8
:1034500080239B00BB6101F06FFB80239B00280051
:10346000A661A361FEBDC0460004005000140050D8
:10347000FFFFF3FFF8B58023040010260127114D4C
:103480005B00AB6223B2002B17DB80239B00AB6297
:10349000380001F051FB80235B003800AB6101F084
:1034A0004BFB80235B0038006400AB62013E01F0FF
:1034B00043FBA4B2002EE5D1F8BD80239B00AB6195
:1034C000E6E7C04600040050F7B5802480270F4E81
:1034D0000F4DA4007F0001910090B4610120AF6204
:1034E00001F02AFB0098B462FFF74EFF012001F0C3
:1034F00023FB0198FFF7BEFF012001F01DFBB46123
:10350000012001F019FBAF61AC61F7BD0014005060
:10351000000400501FB580228021564B92009A6112
:10352000554B4900996180219A6100200902FFF7FB
:10353000CBFF00210800FFF7C7FF37204F49FFF7F7
:10354000C3FF22213620FFF7BFFFC62110208900CC
:10355000FFF7BAFF11204A49FFF7B6FF1220494989
:10356000FFF7B2FF13204849FFF7AEFF8421142074
:103570008900FFF7A9FF49204449FFF7A5FF7B20F9
:103580004349FFF7A1FF7D204249FFF79DFF4820F7
:103590004149FFF799FF40204049FFF795FF10226E
:1035A00068463F490EF050F800246B46195D23032E
:1035B0001943092089B20134FFF786FF102CF4D19A
:1035C000F8211C20C900FFF77FFF1D203549FFF7B8
:1035D0007BFF1E203449FFF777FF1F203349FFF799
:1035E00073FF3E203249FFF76FFF73203149FFF729
:1035F0006BFF77203049FFF767FF19202F49FFF74E
:1036000063FFB42128200901FFF75EFFAA212920CA
:103610000902FFF759FFCC212A20C901FFF754FF07
:103620002C202749FFF750FF2F202649FFF74CFF9A
:1036300053202549FFF748FF7E202449FFF744FF28
:1036400046202349FFF740FF4A202249FFF73CFF6D
:1036500007202149FFF738FF9021204B204A3320D3
:1036600009021A80FFF730FF00213F20FFF72CFFEF
:103670001FBDC04600140050000400501F9D0000F4
:103680003A030000DB030000DF030000B22A000061
:10369000DC73000020E90000A833000016350000AC
:1036A0001618010855E50000584C00005AC60000E5
:1036B000C694000091460000EF8800004E10000004
:1036C0002218000090980000282000003E300000E2
:1036D0000A60000030540000CE6100006603002044
:1036E0000090FFFF10B504007E20FFF777FEC34374
:1036F0009BB2DB0BA3420CD00123C0216340000529
:10370000DB03000D18438901014389B27E20FFF7D6
:10371000DBFE10BD10B5134904001320FFF7D4FEE3
:1037200012201149FFF7D0FE11201049FFF7CCFEFF
:103730007A211020FFF7C8FE002C0DD000211420A4
:10374000FFF7C2FEC92149014920FFF7BDFE7B20DA
:103750000749FFF7B9FE10BD19211420FFF7B4FE89
:103760000449F1E7BE0300007B0300007B02000078
:1037700020840000382A000010B5094C2388002955
:1037800008D04022C240134399B233202180FFF772
:103790009BFE10BD4121494201411940F5E7C04659
:1037A0006603002010B5040051200A49FFF78CFE83
:1037B00007200949FFF788FE21050820090DFFF7BA
:1037C00083FE802321021B02090D08201943FFF705
:1037D0007BFE10BD33A00000D70A00000C4B10B5D3
:1037E000C1184B1E9941040049420A4B890A8902BB
:1037F000C9185120FFF768FE0748084B6043084985
:10380000C018FFF785F881B20720FFF75DFE10BDF5
:10381000BFF5FFFF409400009826030050C300004E
:10382000A0860100074B0100400810B5C018FFF743
:103830006FF880218901014389B20720FFF744FE18
:1038400010BDC046D6DF030070B5040031200D0066
:10385000FFF7C4FDA02361051B02490D19430600B3
:103860004620FFF731FEC0216D056D0D490129434A
:103870007920FFF729FE7A200449FFF725FE04216D
:103880003143312089B2FFF71FFE70BD9A28000036
:103890005C2110B5032802D8034B4000C15A4320D5
:1038A000FFF712FE10BDC046881D0108064A2223FC
:1038B00010B5914200D81A3B802100021843014301
:1038C0003620FFF701FE10BDFF3EAB0110B504002E
:1038D00081B23820FFF7F8FD3920210CFFF7F4FD05
:1038E00010BD000010B50349000201434720FFF757
:1038F000EBFD10BD42600000F0B5CCB285B02000F9
:103900001E000D0A0291FFF769FD01AFFB88EDB2C1
:10391000AB400100AE4099433143200089B2FFF72C
:10392000D3FD05B0F0BD000010B537200549FFF705
:10393000CBFD00213020FFF7C7FD30200249FFF703
:10394000C3FD10BD1F9F0000F1BF0000F7B51C00B4
:1039500008AB1E78009009AB019170200021150082
:103960001F78FFF7B1FDA021090231434D20FFF779
:10397000ABFDD821C90139434E20FFF7A5FD210237
:1039800029434F20FFF7A0FD009B78201902019BDF
:103990001943FFF799FD0020FFF7A4FFFFF7C4FFCD
:1039A000F7BD00000A4B012110B5984202D9002151
:1039B000013007D10420FFF7DFFE00210320FFF7CD
:1039C000DBFE10BD0420FFF7D7FE0121F6E7C0465D
:1039D000FF3EAB0110B53120FFF700FD02239843F5
:1039E00081B23120FFF770FD00212B20FFF76CFD25
:1039F00010BD000070B505003120FFF7EFFC04009A
:103A0000002D06D108239C43A1B23120FFF75CFDB5
:103A100070BDAB1E5A1E9341AD21DB0389011943D2
:103A20002920FFF751FD0120A8428041054940426D
:103A3000800301432820FFF747FD0821214389B275
:103A4000E3E7C046382B000010B53120FFF7C6FC75
:103A50000423984381B23120FFF736FD10BD10B525
:103A600000212420FFF730FD10BD0000DB2110B540
:103A70002120C900FFF728FD24200249FFF724FD7B
:103A800010BDC0467FC1000010B550200149FFF7AE
:103A90001BFD10BD18BB000070B50C00631E9C41DF
:103AA0000500FFF7F1FF0320FFF71CFF0D4B6142FC
:103AB0001940E0231B02C9187020FFF705FD002103
:103AC0003020FFF701FD30200749FFF7FDFC802380
:103AD00006495B026943C9187120490CFFF7F4FCE1
:103AE00070BDC04600BCFFFF020300001DA614000D
:103AF00010B550200149FFF7E7FC10BD183B00004E
:103B000010B500213020FFF7DFFCE8213720490104
:103B1000FFF7DAFC10BD000010B500217020FFF7A0
:103B2000D3FC0020FFF7DEFEFFF7E2FF002130208C
:103B3000FFF7CAFC30200249FFF7C6FC10BDC046A3
:103B4000F1BF000010B5C3217020FFF7BDFC72204B
:103B50000A49FFF7B9FCC1215820FFF7B5FC5C20EA
:103B60000749FFF7B1FC8E215D20C901FFF7ACFCCE
:103B70005E200449FFF7A8FC10BDC0466530000078
:103B8000655600000432000010B500213020FFF718
:103B90009BFC10BD10B500213F20FFF795FC68216C
:103BA0005920FFF791FC1E2000F09EFFFFF7ECFF6D
:103BB00010BD10B50020FFF795FE7E20FFF70EFC2C
:103BC000382328219843014389B27E20FFF77CFCEB
:103BD00010BD000010B500213620FFF775FC37201E
:103BE0000749FFF771FC52200649FFF76DFC0021E1
:103BF0003020FFF769FC30200349FFF765FC10BD5A
:103C00001F9D00008F020000FEC1000010B5FFF7ED
:103C1000D0FFFFF76DFFFFF7DDFF10BD10B50021EE
:103C20005120FFF751FC10BD054B10B51B78002B40
:103C300005D001210020FFF79FFDFFF775FE10BDA5
:103C40006403002010B50400FFF71EFF0020FFF7FB
:103C500049FE00217020FFF737FCFFF700FF3020FE
:103C60000349FFF731FC002C01D1FFF741FF10BDE4
:103C7000FEC1000010B530200149FFF725FC10BD42
:103C8000FAC30000F8B51D0007000E001400FFF78E
:103C9000FBFE281E05D0A02380220320DB05520056
:103CA0009A61FFF71FFEFE232102DB011940013359
:103CB000FF3319437020FFF707FCFFF7DBFF3220CB
:103CC00000F012FF80231249BFB279435B02C9188A
:103CD0007120490CFFF7F8FBFFF70AFF300000F0F6
:103CE00003FFFFF7D1FE002D07D0A0238022DB05C4
:103CF000520000209A62FFF7F5FD00217020FFF7C7
:103D0000E3FB30200349FFF7DFFBFFF7F1FEF8BDCF
:103D10001DA61400FEC1000010B50400FFF7A6FEAA
:103D2000FFF7B2FE0020844200D00330FFF7DAFD37
:103D300070200349FFF7C8FBFFF79CFF10BDC0468A
:103D4000C3C3000070B590B0040040226846184913
:103D50000DF07AFC392C08D82F2C25D8232C25D00F
:103D60000EAD2A2C09D010B070BD2300413B373C6A
:103D7000032BF8D8A4006C44250028880D4C0E4E67
:103D800060430E498019FEF7C3FD81B27120FFF731
:103D90009BFB6B8809495C43A019FEF7B9FD81B212
:103DA0007220FFF791FBDEE7303CE3E70FADE4E77D
:103DB000901601084C9301008813000010270000A2
:103DC000F0B5002485B01E000AAB1F880BAB1B8822
:103DD0000500019102920393A0421AD105B0F0BDF3
:103DE000FFF7B0FFFFF784FE019B002B02D0029883
:103DF000002C06D02B5D30002A2B02D0232B00D0C4
:103E0000380000F071FEFFF73FFE039800F06CFEF3
:103E10000134285D0028E3D1E0E7000070B50D0013
:103E20000400FFF731FEC22170200902FFF74CFBAE
:103E300080230B49ADB269435B02C9187120490C5C
:103E4000FFF742FB0020844200D00330FFF74AFD19
:103E5000FFF710FF322000F047FEFFF749FE70BD6C
:103E60001DA6140010B5042808D8FEF733FD03087A
:103E70000A0C0E0006495220FFF726FB10BD05492B
:103E8000F9E70549F7E70549F5E707200449F3E7AE
:103E90008F8200008FA200008FC200008FE200001E
:103EA0006F04000010B50020FFF7DCFF512002492D
:103EB000FFF70AFB10BDC0464080000010B504208B
:103EC000FFF7D0FF51200249FFF7FEFA10BDC046B0
:103ED0004090000010B56720FFF780FAC005C00DC4
:103EE00010BD10B5FFF7F6FF4008A03800B210BDB6
:103EF00010B56420FFF772FA10BD000070B506001F
:103F00000D20FFF76BFA03B2DD430400ED0F002B29
:103F100007DB0E20FFF762FA034B24041C40044326
:103F20003460280070BDC0460000FF0770B5060071
:103F300069200D00FFF752FA040003040BD46A2035
:103F4000FFF74CFA0C4B24030005000D1C40044302
:103F50000220346070BD6820FFF740FA03000020A3
:103F60001A04F7D40548DB04DB0C58430449FEF778
:103F700059FD28800120EDE700F0FF00EB12000062
:103F800010270000912110B532208900FFF79CFA1C
:103F900010BD000010B532200149FFF795FA10BDA1
:103FA0004502000010B5FFF791FCC02151208900A7
:103FB000FFF78AFAFFF7B8FC10BD10B5FFF7E4FD74
:103FC00010BD10B5FFF7DEFFFFF7DEFD10BD10B529
:103FD0000B20FFF703FA0005000F10BD10B50C20F1
:103FE000FFF7FCF9800BC0B210BD10B50C20FFF735
:103FF000F5F90005800F10BD70B504001E2000F01B
:1040000073FD80213F200902FFF75EFA592017490E
:10401000FFF75AFA250068215920FFF755FA48356D
:1040200021885F200234FFF74FFAAC42F8D1142008
:1040300000F05AFD59200E49FFF746FAC824012521
:104040000C20FFF7CBF9284206D1013C0520E4B251
:1040500000F04AFD002CF3D100210220FFF734FAD2
:104060001E2000F041FDFFF795FD70BD6880000047
:104070006828000010B5FFF78DFD00210220FFF732
:1040800023FA00213F20FFF71FFAFFF74DFCC02164
:104090003F208901FFF718FA59200449FFF714FA65
:1040A00059200349FFF710FA10BDC04668400000D0
:1040B0006830000030B58BB02422194901A80DF0FA
:1040C000C3FA0020FFF70EFC002501AC61882078C0
:1040D0000135FFF7F9F90434092DF7D10024114A0D
:1040E00063005F20D15A0134FFF7EEF9072CF6D1B7
:1040F000142000F0F9FC0C495920FFF7E5F9B42031
:1041000000F0F2FC68215920FFF7DEF90021702051
:10411000FFF7DAF900215820FFF7D6F90BB030BDD0
:10412000D0160108901D01086808000010B51B4B4F
:104130001B78012B2DD1FFF7A7FC0020FFF7D2FB46
:10414000C32170200902FFF7BFF9FFF793FD32206A
:1041500000F0CAFC12497120FFF7B6F9FFF7C8FC5E
:10416000502000F0C1FCFFF78FFC0E497120FFF7D3
:10417000ABF9FFF7BDFC502000F0B6FCFFF784FC64
:1041800000217020FFF7A0F930200749FFF79CF9C4
:1041900010BD022BFCD1FFF78DFFF9E7F01A0020CC
:1041A0001C3E0000D5340000FEC1000070B50500C3
:1041B0000C00FFF75BFCFFF767FC0020854200D096
:1041C0000330FFF78FFB07497020FFF77DF9FFF7FA
:1041D00051FD322000F088FC2000FFF7B3FDFFF70F
:1041E00087FC70BDC3C300000222064B99681142D0
:1041F000FCD00122187399681142FCD0D868C0B273
:104200007047C0460038004010B50400000CC0B232
:10421000FFF7EAFF200AC0B2FFF7E6FFE0B2FFF7C0
:10422000E3FF10BD70B5A0250826094CED0505205B
:10423000AE62FFF7D9FFFF20FFF7D6FFAE61C007E0
:1042400005D50A20013C00F077FC002CEFD170BDB1
:1042500040420F0070B5A02408250600E405A562C1
:104260000620FFF7C1FFA561FFF7DCFFA562202054
:10427000FFF7BAFF3000FFF7C7FFA561FFF7D2FFD6
:1042800070BD0000F0B585B06B46039002921A7BBA
:104290008023A0255B0001919B1AED05029C9C42A6
:1042A00000D91C0008231E00AB620620FFF79CFF0C
:1042B000AE610220AE62FFF797FF0398FFF7A4FFFD
:1042C000019E37190F2C5CD94022012080273049EC
:1042D0007F010B6893430B602E4B1A6882431A6070
:1042E0002D4A1668864316602C4E77601F682C4E48
:1042F00037401F601768374090263E431660294FAD
:10430000294EDE609F605E68360C360426435E6090
:10431000019ED66097605668360C36042643566078
:10432000224EB446002667463E701F680236374369
:104330001F601F6807431F60136803431360402218
:104340004B68184348600B6813430B604B681E436F
:104350004E6063461B78002BFBD00823AB61FFF750
:1043600061FF039B1B190393019B1B190193029B84
:104370001B1B02938023029A5B00002A8ED105B09A
:10438000F0BD30780136FFF72FFFBE42F9D1E4E7E8
:104390000038004044000240580002400000024043
:1043A0000F80FFFF0C3800406903002068030020E5
:1043B000F0B5A027082680210124344BFF058FB0DB
:1043C000BE61DA6BC9010A43DA63DA6B04A80A40FA
:1043D0000392039A9A6B002522439A639A6B2240B8
:1043E0000292029A5A6B22435A635B6B23400193F9
:1043F000019BFEF7BDFD022304A9059338001B199C
:1044000006930996079508940494FEF75FFD092327
:1044100004A93800023E04960993FEF757FD1C4B91
:104420001C4A996880201140A022D2040A433F21EF
:104430009A60DA68C0058A43C2211643164ADE60D4
:10444000890053581B021B0A0343535080231B014E
:10445000136004A8FEF7D2FD82235B000593033BA3
:104460000894FF3B0D4C0793FF33FF33200004A952
:10447000099304950A950B950C95FEF78BFD402347
:104480002268134323600FB0F0BDC0460010024005
:1044900000000140FFFFFFC000E100E000380040E5
:1044A000F8B5A023150008220600DB0503209A6258
:1044B0000C00FFF799FE3000FFF7A6FE0F2D08D87D
:1044C0006519AC424FD0FF20FFF78EFE20700134FB
:1044D000F7E7402101208027254A7F0113688B439D
:1044E0001360244B19688143196023490E68864381
:1044F0000E60224E77601F68214E3740B4468426F6
:1045000076013E431E6066460F6837401D4E3E43AF
:104510000E601D4EDC609E605C68240C24042C43FD
:104520005C601A4CCC608E604C68240C24042C43D4
:104530004C600024164D2C701E68023426431E6009
:104540001E6806431E600B6803430B6040215368DE
:104550001843506013680B43136053681C43546046
:104560002B78002BFCD0A0230822DB059A61F8BD34
:104570000038004044000240580002400000024061
:104580000F80FFFF101000000C380040690300206E
:1045900068030020F0B587B0059380230705040B5E
:1045A0003F0D5B010190029103922403DB1B039AF0
:1045B000002A01D107B0F0BD039D9D4200D91D0026
:1045C000294E3368A34206D0802220002749520199
:1045D000FFF766FF3460254E2A00BE1931000298AD
:1045E0000DF03BF8002824D00023F25CFF2A2ED1E6
:1045F00001339D42F9D100232A003000029904932F
:104600000DF022F8049B002B2AD02000FFF722FE99
:10461000059B164E002B1CD0EF193A0031002000EC
:10462000FFF730FE80225201FF21D21BF0190CF05F
:10463000FBFF019B00275B190193029B5B1902930F
:10464000039B5B1B039380235B01E418AFE701230B
:10465000D2E78022310020005201FFF713FEE8E785
:104660002A0002990198F8E7040000206A0300205C
:1046700010B5040B24032000FFF7ECFD054B1B686D
:10468000A34205D18022FF21034852010CF0CCFF48
:1046900010BDC046040000206A0300208020144999
:1046A00080010B6810B5034221D00224114B1A6817
:1046B00022421CD01A68A2431A60C0220E4B4860E6
:1046C000520199681142FCD1802299681142FCD1B3
:1046D000C022D20099681142FCD102215A688A4353
:1046E0005A605A6801398A435A60044B197010BDE8
:1046F00000000240440002400038004068030020EF
:104700007823F7B500251F4EB36100240823270046
:104710000193012000F010FA3A00F02733693F02BC
:104720001F40974220D10134032C1ED180228021CA
:10473000120209021A400B421ED05A041ED59A04D6
:104740001ED5DB0405D4104BAA009B18185D132856
:1047500011D10135052D0DD078230722B361521BED
:10476000773B9340B362D0E70124019B013B019367
:10477000002BCED11320FEBD1400E4E70124E2E7B4
:104780000224E0E7000400509E1D01080222054BB0
:1047900099681142FCD00122187399681142FCD02B
:1047A000DB6870470030014070B51D0004AB002489
:1047B0001C5F431A601B5843511AFEF733F9401926
:1047C00000B270BD70B5124CC001241825000C2039
:1047D000363526002870122537363570423635704A
:1047E00025007A352870581A8001511AFEF71AF9F7
:1047F000212538232D263830C0B2DAB22900904264
:1048000000D33100E1540133792BF6D170BDC0469D
:104810006E1300207047A02340225039DB0510B5ED
:104820009A620400C8B2FFF7B1FF102023091843B1
:10483000FFF7ACFF0F202040FFF7A8FF10BDF8B531
:1048400014000430C0B21D00FFF7E5FFA023402292
:104850002600DB059A612F19BE4200D1F8BDE8B2EF
:10486000002C00D03078FFF791FF0136F4E700000C
:1048700070B50425034CC9B2A562C0B2FFF7DFFFD3
:10488000A56170BD00040050042370B5050000242C
:10489000064EB3620022E1B22B0010000134FFF794
:1048A000CEFF082CF6D10423B36170BD0004005084
:1048B000A023402210B5DB059A62FFF767FF10BD09
:1048C000F8B50423124E0400B3624020FFF7F0FF56
:1048D000104A002C07D0104B01251F00072C0AD8C6
:1048E000621ED201D218802321000020FFF7A7FF0B
:1048F0000423B361F8BD290001353A00802300206C
:10490000EDB2FFF79CFF8037082DF4D1F0E7C046E9
:1049100000040050EE1600206E13002010B5082091
:10492000FFF7CEFF10BD10B50130C0B2FFF7C8FFD2
:1049300010BD10B50020FFF7C3FF10BD10B5032850
:1049400004D0072809D0074B185C03E0064B187801
:10495000A6231843FFF7ACFF10BD044B18781530A1
:10496000C0B2F7E70A000020A11A00208A00002048
:10497000042370B50024064DAB6220000134E4B27C
:10498000FFF7DCFF0B2CF8D10423AB6170BDC046F0
:10499000000400500422074B10B5E2209A62FFF792
:1049A00087FF002420000134E4B2FFF7C7FF082C82
:1049B000F8D110BD00040050802170B501253E4B98
:1049C00049011A6C8CB00A431A641A6C02A80A4096
:1049D0000192019A5A6B00242A435A635B6B0226A8
:1049E0002B400093009BFEF7C3FA0323A0200493FF
:1049F00002A91D33C00502930695039607940594FA
:104A0000FEF764FAA020802302A9C0050293069451
:104A1000FEF75CFA02A8FEF7F1FA82235B0003932B
:104A20000695FC33254D0793D93BFF3B280002A98F
:104A3000089302940494059609940A94FEF7AAFA3E
:104A400040232A68E22013432B6004231C4DAB62F1
:104A5000FFF72EFF782000F047F820000134E4B281
:104A6000FFF76CFF082CF8D12B20FFF721FF012066
:104A700000F03AF82E20FFF71BFF012000F034F879
:104A80002F20FFF715FF2F20FFF712FF2F20FFF732
:104A90000FFF2F20FFF70CFF282000F025F8402003
:104AA000FFF706FFAF20FFF703FF04230020AB61F1
:104AB000FFF7EAFE0CB070BD00100240003001406C
:104AC0000004005070B50425064C2820A562FFF7AD
:104AD000EFFE4020FFF7ECFEAE20FFF7E9FEA561F8
:104AE00070BDC04600040050FA2310B59B00584327
:104AF00000F022F810BD0000C0200B490B4B0C4AFF
:104B00004B60136A00061B021B0A03431362002357
:104B10008B6007330B603021064B1960136A1B0250
:104B20001B0A13627047C04610E000E0FF52070006
:104B300000ED00E0701700200A4B70B51B680A4CAE
:104B4000584300236668A168A2689142FCD0B51A58
:104B5000914200D95542CB185B19984200D870BDDC
:104B60001100F1E77017002010E000E0084B1A6810
:104B7000283213780133DBB2072B00D901231370DD
:104B80000122044B1A70044A044B12781A707047C1
:104B9000B81A00204C180020251C0020BC00002062
:104BA0000122064B1A70064B1A6833321378013310
:104BB000DBB2032B00D10023137070474C18002088
:104BC000B81A0020012305498A7C5A408A74044A95
:104BD0001370044A1370044A13707047C01A0020FF
:104BE0004B18002050180020621800200123024AB0
:104BF00011784B40137070479A1A00200123044A21
:104C000011784B4013700222024B1A707047C04655
:104C1000851A00204F1800200123044A11784B40C8
:104C200013700222024B1A707047C046841A00208B
:104C30004F180020064A10B51378002B03D0054901
:104C4000054B0978D97600231370FEF74FFB10BD92
:104C50001C1800201A180020C01A002001210E4B39
:104C600010B51A785140197000230C4A994202D1AC
:104C700013006E331B7811006D310B706F32117899
:104C80001B011943B0231B0219434820FEF71CFCEB
:104C90000122034B1A7010BD1B180020C01A0020FF
:104CA0006218002010B5204B1B78022B15D006F09F
:104CB000FDF81E4B1B689B7F3133DBB2092B05D8F7
:104CC0001B4A1278002A01D01A4A1370012006F0FC
:104CD000E9F9022000F0C4FB10BD0022164B1A7047
:104CE000164B1B785BB2934208D0154B1988154BB5
:104CF0001980154B1A70154B01321A70144B1B7E1C
:104D0000002B09D10A4A1278002A05D0114A1188CD
:104D1000114A1180114A1370012006F0C3F9104A9C
:104D2000104B12781A70D7E7EA170020B41A002047
:104D30002D1800202C180020801A0020A217002017
:104D40002A2D01085818002083000020A0170020F9
:104D5000C01A00201A2D01086818002082000020C7
:104D6000251C0020BC00002010B5134C0320236834
:104D700033331978012912D005F092F9011E11D0B0
:104D800022682C3211784B424B410020DBB2137069
:104D9000814201D1094A10780021C018C0B2FEF743
:104DA00077FD10BD064B1A682C32137858424341E8
:104DB000D8B21070F3E7C046B41A00209C1A002045
:104DC000B81A00200B4B9A7B002A02D0DB7B002B09
:104DD0000ED10322084B01211A700022074B1A70D2
:104DE000074B1970074B1B788B4201D0064B1A708A
:104DF0007047C046C01A002056180020D41B00205F
:104E00004A180020251C0020BC00002070B504F0CA
:104E1000FBFA041E1FD1274B14221870264B2100C9
:104E2000187026480CF000FC06F040F8244B1B6874
:104E30009B7F3133DBB2092B0DD90025200009F00F
:104E400055FF204E7557002D1DD01F4B1B78C72BCB
:104E500002D902F083F870BD1C4D0621687F013035
:104E6000FDF7C6FE697707F0FFFB002120007156B1
:104E700001F0A8FF0122164B1A80164B1C7001226C
:104E8000154B1A70E7E7154B104C1B685A1E9341DF
:104E9000134A0133D37707F0E7FB0121080001F043
:104EA00091FF0121237A0F4A01330B40D5540E4B59
:104EB0001D70E4E7801A0020A4170020A517002029
:104EC000B41A0020A217002037180020C01A0020B2
:104ED0005818002083000020621800209C17002032
:104EE000C81A00205D1800207C18002010B5012091
:104EF000FFF78CFF10BD000070B5264B1B78002B10
:104F00001DD1254C2378002B19D00125234B1D7072
:104F100012280CD1002A0AD1002908D0204B1D707C
:104F2000204B1A70204A1378002B01D1237070BDDA
:104F30002D21013BDBB213701C4AD154F7E7112835
:104F40001BD0122804D00A281BD00020002303E025
:104F5000174B18481B780078002A15D10029E6D194
:104F600001250F4C2570002A11D1002900D0030023
:104F7000114A9B009B589847D9E7104B10481B7863
:104F8000E9E7104B187BE1E70029D0D0E8E70029DA
:104F9000EDD1CCE7251C0020BA17002053180020C3
:104FA000E9170020BC000020BB170020BC17002020
:104FB000F21A0020F31A002018000020F41A002032
:104FC000F51A0020BF1B00200022044B1A70044B6E
:104FD00001321A70034B1A707047C046971A0020AE
:104FE00050180020621800200A4910B50A780A4BB0
:104FF000002A08D11A7E504242411A7601230B70D2
:10500000FFF7E2FF10BD5A7E504242415A7600231C
:10501000F5E7C04677170020C01A00200B4970B58D
:105020000B780B4C0B4A0C48002B0AD1157E1376DB
:105030002570547E0470012053760870FFF7C4FF7A
:1050400070BD2378137603780020F5E776170020EB
:1050500075170020C01A0020741700200D4910B5E4
:105060000A780D4B002A09D1D87E0C4A10703D22D7
:10507000DA7601230B70FEF739F910BD1900084AE2
:10508000FF31897B1278914202D10022DA76F2E771
:105090003D22FBE71C180020C01A00201A1800202F
:1050A00019180020044A13780133DBB2092B00D908
:1050B000002313707047C0462C18002070B5224C96
:1050C000224A23782249002B28D013783133DBB2CF
:1050D000092B05D8507800233130C0B2092803D9F4
:1050E0000120137A01330340482013725B420340CE
:1050F0007033D3180B608E3213783133DBB2092B47
:1051000001D8FFF7CFFF002005F0CCFF2378002B5C
:1051100018D0104B1B88104A138070BD107A45427E
:105120006841C0B21072002800D048237033D218F2
:105130000A600A4A1378002BE5D101331370084A3C
:105140001370E0E7074BE5E72D180020C01A002098
:10515000B41A0020302D01087E1800207C18002091
:10516000621800202C2D0108F7B5714B714A00938D
:105170001B780192002B3DD113785BB2002B0AD033
:105180006D4B1B783833DBB2062B04D86B4B1B7886
:10519000002B2FD0F7BD6A4F3B78012B1DD09A1EF4
:1051A000012A03D8674A1278002A42D1634A0124AF
:1051B0001278654E002A03D0317800293BD00024B4
:1051C0003378624D002B00D0A1E0002C00D09EE08F
:1051D0002B78002B78D12C70DCE75D4A1278002AFE
:1051E000E4D05C4A1278002AE0D10022584B1A70B1
:1051F000544B1A70012005F055FF574B1B689B7FDD
:105200003133DBB2092B03D89622544B52001A805B
:105210000122534B1A70019B1B785BB2002BB9D053
:10522000504B1A7F502AB5D8002A78D101F096FE4B
:10523000B0E74D4AD6E7484A1268927F3132D2B27F
:10524000092ABCD9012B27D019D9023B012BB6D88A
:10525000464B1A783B4B002A2DD0454A1278012A3A
:1052600029D11970434D2B78002BA8D0FEF7BDFE35
:10527000441E63425C41002364002B70A0E7394B5D
:105280001B7B002B9BD03B4B1B78002B97D0002225
:10529000384B02241A7093E7374A10782C4A0028BA
:1052A00001D01170EFE711780029ECD1137064225E
:1052B000284B1A70E7E71A78002AD3D101321A7006
:1052C000294B63321A70CDE7264B9B7D002B82D091
:1052D0003B78023B012B00D97DE7FEF786FE0128D3
:1052E00000D078E71F4B9B7D002B00D152E7A02315
:1052F0008022DB0552009A62204BEC3A1A80002390
:10530000009A1370012232701D4A137042E7002385
:105310002B70012C00D16DE7022CE3D03AE7192362
:105320005343184A13800022174B1A7032E7C046C5
:105330001E180020A2170020371800203C1800205B
:10534000AC1A0020601800205F18002022180020EE
:105350006118002026180020B41A00202018002010
:105360002B180020C01A0020271800204718002002
:105370004618002044180020451800206C18002012
:105380006718002058180020830000201E4B10B51D
:105390001B78002B19D01D4A1D4B12781B7852B276
:1053A000002A26D11B4A127E002A0FD11A490978F9
:1053B000002905D0194908881949088019490A7037
:1053C000032B02D0032004F07DFF10BD164A127893
:1053D000002AF5D1154908881549088015490A7031
:1053E00015490A700121154A117001210E4A1170E8
:1053F000E6E70D4A1278002AE2D1114908881149DE
:10540000088011490A70F0E73C180020A21700201C
:10541000EA170020C01A00202D180020162D0108C0
:10542000681800208200002036180020342D010862
:105430007E180020860000207C18002062180020C2
:10544000262D01085818002083000020034B10B5BA
:105450001B78002B01D1FFF799FF10BD64030020DA
:10546000F7B5E1223F4C0190277A3F4B52011A8059
:105470007A427A4100213D4B9954A0238022DB05DA
:1054800052009A613A4BFF3A1A703A4B1B789B07CD
:1054900001D5FDF72BFF0023374EF356002B01D02B
:1054A00001F020FD354D2A68937F3133DBB2092BA3
:1054B00018D8334B1B78002B14D0324B3248197854
:1054C0000B00313BDBB289000958937710695269B0
:1054D00001601160FA22E3552C4B52001A80002221
:1054E0002B4B1A700023F3562A4E002B13D1227E29
:1054F000002A10D0284A1188284A1180284A13709F
:10550000637E002B02D10122264B1A700022264B0B
:105510001A700123337023006D331B786F342178A8
:105520001B011943B0231B0219434820FDF7CCFF90
:105530002B683333187805F0D7FE019804F0C2FECB
:10554000019B022B09D1194B1B78012B02D00020A3
:1055500009F0CCFB01233370F7BD0122144B1A7004
:10556000F8E7C046C01A0020701800205D1800201F
:1055700067180020A51A0020A2170020B41A0020E6
:105580002D1800202C180020142C01086818002069
:105590008200002062180020322D01087E180020B1
:1055A00086000020351800207C180020251C0020D3
:1055B0002B180020244B10B51878002809D1234B54
:1055C0001B78002B04D004F07DFE0122204B1A70C2
:1055D00010BD204B1A78204B1B78134359424B4186
:1055E0001E49DBB20968897F3131C9B2092906D861
:1055F0001B490C88002C02D000230B8003001949A2
:105600000978002905D0012A03D10020164B187013
:105610000B0016490978002912D01549097801298B
:105620000ED1023A012A0BD80022124B1A70124BEB
:1056300004201B78002B00D00238FFF711FFC7E7CA
:10564000002BF4D1C4E7C0463C180020EA17002024
:105650002B180020AC1A0020A2170020B41A00203A
:10566000201800204518002061180020471800204D
:105670004618002060180020801A002070B51C0019
:10568000838B16005943026805008818190004F03E
:10569000E9FBA04206D8B04203D2A98B601A04F0FD
:1056A000E1FB70BD3000FCE7030010B530331C781F
:1056B000034AE40013195B68A258FFF7DFFF10BD2F
:1056C0003C2C010810B505F071FF0122044B1A7043
:1056D000044B1B78002B01D0034B1A7010BDC04641
:1056E00038180020801A002050180020154B10B5E3
:1056F0001B78002B03D1144B1B78002B0AD001F030
:1057000081FD0222114B1A700022114B1A70114BAD
:1057100001321A701048114A03781149002B03D145
:1057200013780C7823430BD00023137002220370EC
:105730000B70064B1A700B4B013A1A70054B1A701E
:1057400010BDC046BA170020BB170020E917002083
:10575000BC0000202B1800206A13002066180020CF
:10576000D41B002062180020F0B57F4B04001B788A
:105770000D00160085B0002B77D000296FD01028BF
:1057800000D080E0FDF7B2FD1024784B02931B7827
:10579000052B02D1002004F095FD754B1A88754B3E
:1057A0001A80754B0093754B1978002903D01E227F
:1057B0004A43734B1A70002D67D1724F3B78002B10
:1057C00002D006F071FC3D706F4F3B78002B03D088
:1057D00006F084FC00233B706C4F3B78002B13D009
:1057E0006B4B1A68009B907F597A012306F0BAFE32
:1057F00000233B7003F008FE002805D1654B1A78A2
:10580000002A01D101321A70634B1A7800239A42A0
:1058100007D0624A12789A4203D1614B1B785A42F0
:105820005341554A5F490092927B09781A430029F7
:1058300064D0002A03D0029A1278012A66D1092C7A
:1058400002D90F2C00D0C5E0574B1B78002B00D19C
:1058500071E1002D17D0002E15D1022062E0FDF776
:1058600045FD102C90D013248FE70D288DD1FDF726
:10587000C7FC071E89D1404BDB7E002B85D0FDF78E
:1058800035FD4A4B1F7005B0F0BD08F019FA444FC2
:10589000102C03D1464B1B78DB0726D53B78012B18
:1058A00004D1132804D01538012801D9FDF71EFDB5
:1058B0000D2C1AD1002E18D03E480378002B09D0A9
:1058C000142200210BF0B0FE00223B4B1A703B4B20
:1058D00001321A70FFF70AFF394B1B78002B01D0F9
:1058E000FFF7E0F90022374B1A603B78012B00D01C
:1058F0008AE7354A354B12781A8085E7002A9ED010
:10590000029A1278012A9AD0102C66D00D2C0CD154
:10591000002DB8D0002B00D138E201201F4B1870A9
:10592000264B187003F0ECFFADE70F2C0ED1002DC5
:10593000A9D0002E00D087E7022003F0E1FF042267
:10594000234B1A7001221D4B1A709CE72300113B58
:10595000012B00D8EFE00A2C00D014E2002E00D07A
:10596000E9E0002DE8D08EE7A41A0020EA17002015
:10597000222D010888000020C01A0020ED1A002006
:10598000651800207C1700207B1700207A17002064
:10599000B81A00204F180020F3170020F21700203B
:1059A000251C00209F1A00205A180020E91700200B
:1059B000A51A0020A5170020A41700202B180020EE
:1059C000801A00209C170020442D01085418002044
:1059D00051180020102C00D0ADE0C94A1378002BDC
:1059E00004D03300002D01D101231570C54A117870
:1059F000002908D0102C01D00D2C04D10021012049
:105A00001170C1490870C1490391C1490191002B2E
:105A10000FD1029B1B78012B00D001E1BD4B1B78FD
:105A2000002B00D0C1E0102C00D086E0280001F04F
:105A3000A9FC039B1878002804D003F061FF002321
:105A4000039A1370B44CB54A23780292002B0AD003
:105A5000B34AB44B12781A8002F058FC0123029A20
:105A6000137000232370B04C2378002B09D0002E34
:105A700000D007E106F032FB002301222370A24B85
:105A80001A70AA4B1A78002A06D000221A70964281
:105A900000D0FBE006F008FBA54FA64C3B78002B9E
:105AA00018D0002E00D0F5E0002D00D0F2E0A24B7F
:105AB00000991A68497A3B78907F06F053FD03F00D
:105AC000A3FC002804D12378002B01D101332370DB
:105AD00000233B702178994D002900D1EFE0984ECA
:105AE0003378002B00D1E7E0002004F0DFFF012035
:105AF000217804F0DBFF019B1B78FF2B02D10023F0
:105B0000019A137001232B7000232370337005F06A
:105B1000CDF905F0EDF9012005F0C4FA0022894B1A
:105B20002A701A705A70884B1B78934200D1CAE0D1
:105B3000FFF7B8F8C7E0854A50E7FE27112C06D0DA
:105B4000200001F04FFB0700FF2800D171E7002D76
:105B50000CD1A0238022DB0552009A627C4B2800E6
:105B60001D70FEF76FF8FDF735FF62E7002E00D0DD
:105B70005FE7009B68331B78002B07D0A0238022AF
:105B8000DB0552009A61724BFF3A1A70FDF722FF53
:105B9000009B68331878FE2F03D16E49FEF73EF95B
:105BA00047E73900FEF702FB43E7002E00D0E3E0B1
:105BB000002D00D13DE7A02280210027D205490019
:105BC0009162634A177002229343012B01D105F0C1
:105BD000EDFC50224F4B05201F705F4B1A80FEF7E3
:105BE00083FF012005F05EFA5C4B1B78012B01D08E
:105BF000019B1F70009B3133187800280BD104F0F3
:105C000061FB01233E4A102C03D0504A002E00D0E5
:105C10000FE713700DE70A224243514B1A70F0E769
:105C200023001278113BDBB2002A0BD0012B0BD8DA
:105C30004A4A4C4B127892009B58290032002000AF
:105C40009847F6E6012B06D9444B1B78FF2B02D070
:105C5000444A9B00F0E703F0D7FB002809D13F4BF3
:105C60001B78032B05D0320029002000FFF744F9F0
:105C7000DFE6002E00D0DCE6002D00D1D9E60223BD
:105C8000039AC6E70122384B1A70F5E60122374B1A
:105C90001A7001E708F014F8002800D007E73A78F6
:105CA000334B511E8A411A70019B1B78FF2B00D089
:105CB0000EE7019B18700BE7009B587A19E72B78C9
:105CC000002B00D023E7029B1B78002B08D0002379
:105CD000029A1370124A134B12781A8002F0FCFDDC
:105CE000244C2378002B03D005F0ACFB0023237059
:105CF000019B187808F0FAFFFF23019A137021E640
:105D0000521800206A13002062180020E9170020B2
:105D1000BC00002056180020491800204818002018
:105D2000442D0108541800204B1800204D18002065
:105D30004C1800204F180020B81A002050180020DE
:105D40004E1800205D180020801A002053180020F3
:105D500067180020D606000040180020251C0020EF
:105D600064180020700000207B1700207C170020A2
:105D70007A1700204A180020032B00D059E6002D86
:105D800000D056E617E7002D00D17CE5002E00D0AC
:105D900079E5D1E5F7B5012009F038FF002802D0F8
:105DA000012009F0F5FFB54D2B78012B00D087E0DD
:105DB000B34E3378002B37D1B24B1B78002B33D145
:105DC000B14B1A78002A03D1AE4A1278002A77D054
:105DD00000221A70AD4B1A88AD4B002A02D1DA7E30
:105DE0003D2A03D1FF33987BFDF710FAC822002427
:105DF000A84B920034701A80A74B1B78A34208D09E
:105E0000A64E3378012B00D028E102333370FEF721
:105E1000C1FDFFF757FC082003F072FD042005F0D8
:105E2000EBFA08F055FF4BE09D4F9E4C3B78012B61
:105E30000ED9974B2268D97E002927D1002A01D09C
:105E4000FA2A05D18023984A9B0151694B4053613E
:105E500023683A7801332360032A26D18C4AD27E04
:105E6000002A20D0914A934226D900232360FDF7CF
:105E7000B1FD0123874C1A0020881E2180B2FDF756
:105E800001FF238864339BB2238015E0002A04D1EC
:105E9000FF33987BFDF7BAF9DAE785498A42D7D113
:105EA000FF33587BF6E7834ADDE783498B4203D90A
:105EB00000232360012ADAD02B78012B00D17FE761
:105EC0007E4B1B78002B00D0C7E02B78012B03D032
:105ED0007B4A9B009B58984703F096FA00280ED106
:105EE000784B1B785BB2002B09D0774B1B78002BCB
:105EF00005D0764B1B78002B01D100F0BDFF644C20
:105F0000267E002E10D1724B1B78002B0CD0714FC7
:105F10003B78002B08D0FFF7C5F8300005F0C2F839
:105F200007226D4B1A803E7003F06EFA002825D1CF
:105F3000237E002B22D0694E3378002B1ED0614B7C
:105F40001B785BB2002B19D1604B1B78002B15D14D
:105F50002B78052B12D0FFF7B1F8614F3B78002B5F
:105F600005D0604B1878002801D108F0BFFE00234F
:105F70005D4A3B7013705D4A33701370A37C002B35
:105F800009D05B4B5B4A1B88002B00D0CAE013880A
:105F9000002B00D1CAE0584E3378002B2AD04B4B4F
:105FA0001B78002B20D1554B1B78002B1CD1A37ED6
:105FB000002B19D0524B1B78002B15D1414B494A6D
:105FC0001B78127813430FD1414B1B78002B00D163
:105FD00009E123783133DBB2092B05D963783133FA
:105FE000DBB2092B00D9FEE0464B1A88464B1A80DB
:105FF00000233370454B01931B78002B2DD02B7859
:10600000052B2AD1424F434D3B78002B00D1EEE0C7
:10601000FDF70AFEA37C002B05D02300FE3319896F
:10602000D888FDF711FC237E002B0CD0254B1B7864
:106030005BB2002B07D1324B1C78002C03D1FFF749
:106040003DF8354B1C7004F037F8344B1B882B801F
:1060500000233B700023019A1370F7BD022B00D080
:10606000D5E6220021001020FFF77EFB0122174B0E
:1060700034701C702A4B1A70C9E6C046EA1700201B
:10608000721800207B180020761800206202002081
:10609000C01A0020840000209A1A0020181800203E
:1060A000A21A00201418002000080050102101003E
:1060B000983A000098340100E02801005C180020A4
:1060C000B41D0108A217002083000020331800200F
:1060D0002D18002082000020681800208600002073
:1060E00035180020251C0020A0170020361800209D
:1060F000401800203E18002080180020341800208E
:106100005A180020222D0108880000208118002044
:1061100064030020EC17002079170020202D0108CF
:10612000531800200021494B11801970FD232A7853
:10613000911E194200D12EE7454B1B785BB2002B14
:1061400000D028E7414B1978424B1878002832D00C
:10615000414800291DD0414909880180012A00D009
:1061600019E73F4A1278002A00D014E71B78002B69
:1061700000D010E73B4E3378002B10D0002004F005
:10618000A1F80122384B1A70384B1A700023337073
:1061900001E7018888B20029E0D11870DEE7FFF737
:1061A00091FA2300313319780029E7D00A224A43B3
:1061B0002F4B1A70E5E7002900D1ECE60121197098
:1061C000052A01D104F07EF82B78012B00D1E2E6FC
:1061D000284B1B78002B00D0DDE605F033F90122B7
:1061E000224B1A70D7E6052004F06CF800E7237EF6
:1061F000214E002B0BD0164B1B785BB2002B06D127
:106200001E4B1B78002B02D13378002B16D01C4B71
:10621000A27E1B78002B0FD0C823534300242B8071
:10622000012334703B70FDF70FFCFDF769FC210082
:106230002000FDF7A1FA0DE70A23EEE7FEF73EFF87
:10624000104B1B882B800123337003E74318002079
:10625000A217002042180020241800201C2D01083D
:106260003318002038180020621800202B18002056
:10627000641800207B180020791700205A1800208D
:10628000A41A0020202D0108F0B50024B54B85B0DC
:106290001C70B54B200002931B88029A01339BB2FD
:1062A000138009F0B3FCA04202D0200009F070FD79
:1062B000AE4B1B78002B00D044E1AD4B01931B7813
:1062C000052B03D1AB4B1B78002B17D103F09CF8A7
:1062D0000125002800D126E1019B1B78012B0DD15F
:1062E000A54B1B78002B09D0029B1A88A34B534364
:1062F000A34A9BB2934201D806F09AFCA14CA24D4E
:1063000023782E78002B00D185E20023237008F03B
:10631000DFFC002E01D008F06FFB00200AF0E0F94E
:106320000AF070F9994A1388002B01D0013B1380C1
:10633000974A1388002B01D0013B1380019B1E78E4
:10634000012E0CD1934B1878002808D00138C0B228
:106350001870002803D103F0B5FF2E70267003F0EB
:10636000E9F98D4C2378032B00D1E3E080228B4B9D
:106370008B491878D2008B4B002800D1C4E1086902
:10638000104200D048E1884A8848127804782243B5
:1063900000D041E119780131C9B21970022900D841
:1063A00051E183491A700A700121824B0170197002
:1063B0001020FFF7D9F946E100210220FDF784F80B
:1063C0000220FDF70BF808230404240E06001C42EB
:1063D00026D0FDF7FCFD00F005FF0390FF281FD03D
:1063E000019B1B78012B1BD0734B1B78002B17D004
:1063F000724F3800FCF720FC0200132804D138004B
:106400006F490BF0FFF81222039BBB540023BF1807
:106410006C4A7B7012786C4B1A700122594B1A70BF
:10642000630701D5694B1D702C4205D0684B1D7068
:10643000FDF7D4FD674B1870A30702D50022644B0B
:106440001A70F7B2730601D5634B1D70360602D57C
:106450000022614B1A70FB062BD50A225F4B1D7080
:106460004B4B1A805E4B9A7C002A22D0019A1278FC
:10647000052A09D13F4A1278002A05D159490888CE
:106480005949088059490A701B7E002B11D0584A7F
:10649000584B10781988584B002802D11888884228
:1064A00007D2198000231370544A13700122364B0F
:1064B0001A70BB0604D50022484B1A70344B1A8060
:1064C0007B0709D54E4B012105201D70FDF754F9BE
:1064D000E1224C4B52011A8008231F4205D00021B3
:1064E000474B05201970FDF747F9E4061BD52A4BE9
:1064F0001B78032B17D1444B1B78012B13D1434B33
:106500001B78002B0FD10426414B5F201C78013EE5
:10651000621C1A70FCF762FF3E4B64001853002E99
:10652000F2D109F057FE0C20FCF758FF284200D0AA
:1065300042E7D1E6344D2B78012B05D02B78002B88
:1065400000D113E705B0F0BD304B1B78012BF9D11A
:1065500009F0E6FD002801D108F0BAFB2378032BEF
:10656000ECD003E7281800203A1800205C1800201F
:10657000EA17002064030020831A0020EFEEFFFFDB
:10658000111100002B180020621800204018002074
:106590003E18002064180020251C00209A1A0020B4
:1065A00000040050321800207B180020181800202A
:1065B0001D18002033180020821A0020A517002083
:1065C000A6170020412D0108A41700204418002020
:1065D00047180020461800204518002043180020C6
:1065E000C01A00201E2D0108EC1700208118002081
:1065F000860000202E2D01087E1800207C18002027
:106600003C18002070180020FA210020F4210020FE
:106610002E180020AC2100200A69520503D4804ABC
:106620001278002A2CD07F480278012A28D11A78C3
:106630000132D2B21A70022A03D8794B1B78002B90
:1066400001D002230370FEF75BF80400132802D088
:106650000022754B1A70754E754D33789C4200D1EF
:106660008AE0132B08D0132C06D0724B00211A7825
:10667000714B1878FFF778F8002334702B8061E7AE
:1066800080220869D200104212D1654C207800287F
:106690000ED164480578022D0AD11A780132D2B29F
:1066A0001A70022A02D82378002BCCD00323C9E722
:1066B0000969114203D15A4A1278002A21D0594C53
:1066C0002278032A1DD11A780132D2B21A70022A16
:1066D00003D8534B1B78002BB5D00022102011009B
:1066E000FFF742F80022554B1A70534B1B78132BBF
:1066F00002D0534B01321A7000232370FEF74AF97F
:10670000A1E700221A709EE74C4C09692078002806
:106710001ED0114203D1424A1278002AF1D01A78D1
:106720000132D2B21A70022A03D83D4B1B78002BDB
:1067300089D0002210201100FFF716F800232370E3
:106740003D4B1B78132BD9D001223D4B1A70D5E756
:106750001142D6D1324A1178CAB20029D1D1197862
:106760000131C9B21970022900D86CE72E491A709C
:106770000A70012121701BE62888324B01301B88EA
:1067800080B22880834215D12B4D2A4E132C0AD17A
:106790002878132804D000213278FEF7E5FF2C700A
:1067A00000233370CEE60022012120002C70FEF77A
:1067B000DBFFF5E7244B1E88B04200D2C2E6132C63
:1067C00000D1BFE6B0420AD1102C00D1BAE60121B7
:1067D000184B0A0020001970FEF7C6FFB2E623002E
:1067E0000B3BDBB2012B0ED80127124B1F70174B4E
:1067F0001988FCF713F989B2002904D13A0039004D
:106800002000FEF7B1FF2A88114B9A4200D099E68A
:1068100001362E8096E6002E00D181E57BE5C0464C
:106820007B180020181800201D18002009000020E7
:106830006C130020341800200800002033180020BA
:10684000531800203A2D01083E2D01083C2D010867
:10685000FFFF00000022F0B5804B85B01A70804A1F
:106860001378002B07D0013BDBB21370002B02D151
:1068700001227C4B1A707C4A1378002B1AD0013B02
:10688000DBB21370002B15D1784B1B689B7FC72B95
:106890000ED8774B1B78013B012B09D801F09EF8ED
:1068A000744B1878022801D103F02AF805F0FCFB9C
:1068B000FEF71CFF704B1978002914D06F4A12782C
:1068C000052A01D0002A0ED10139C9B21970002958
:1068D00009D16B480378002B05D014220AF0A4FEDE
:1068E0000122604B1A70674B01931B88002B00D06C
:1068F0007FE00023644E02933388002B13D0634B58
:106900001B78002B0FD1624B1B78002B0BD1614BF6
:106910001B78012B00D17AE03388013B9BB2338096
:10692000002B00D17DE078235B4F5C4C39782288C6
:106930004B435B4D9A4210D12B78002B0DD0FEF7C4
:1069400017F800210620FCF717FF0A22554B9B7E03
:106950005343554A138000232B70544B03931B78E9
:10696000012B75D003F09CFB002871D1494B1B789B
:10697000032B6DD0208800285BD0013880B22080A6
:10698000002856D10122484B30801A802A70FCF72B
:106990003DFCFEF797F82B78002B0BD00322444BDD
:1069A000062019780131114019704B425941C9B282
:1069B000FCF7E2FE3F4B1B78002B00D188E03E4CF9
:1069C0003E4D2100280003F081F9FA2322885B0064
:1069D0009A4205D83A4BDA882B889A4200D30EE1C6
:1069E000BFF34F8F374B384ADA60BFF34F8FC04643
:1069F000FDE7019A013B9BB21380002B00D078E7A2
:106A0000244B1B78013B5A425341DBB272E707F03B
:106A100057F9132887D007F053F9162800D07BE7E1
:106A200081E7204BDB7E3C2B00D97CE7FCF74CFC5C
:106A300079E723885A1E132AADD83A78002AAAD0BB
:106A400000209B0701D1214B987BFCF7DFFBA2E7DD
:106A500078223B78534323809DE7C0467A18002074
:106A6000511800202B18002066180020B81A0020AA
:106A7000D41B0020E9170020A4170020F01B0020E1
:106A8000A51700205418002062020020231C0020BB
:106A90005A180020251C00208C0000205E020020D7
:106AA000A41A0020C01A0020EC170020EA170020CA
:106AB000781700205C18002002180020041800201D
:106AC0000618002000ED00E00400FA05BF1B0020BE
:106AD0004C4C039A2388127801339BB22380012AFD
:106AE00015D001221E001640134210D1464D4749D1
:106AF0002878831890402B70454BC01803F0E6F8B7
:106B00002B78032B00D92E70012003F07BFC238807
:106B10009B070AD13F4B1B78002B03D13E4B1B78C0
:106B2000002B02D001223D4B1A703D4B1B78002BED
:106B30004FD13C4B1B785BB2002B4AD102F064FC76
:106B4000002846D1384B1878032842D0374B384AB2
:106B50001B78002B12D037490B78002B0ED0364C07
:106B60002478002C0AD1012808D0013BDBB20B703D
:106B7000002B03D12949013393730B70029B002B27
:106B800027D0002301990B80D37E002B01D1FCF785
:106B90009BFB2A4C2378002B03D1274B1B78002B1F
:106BA00002D0022002F0ACFE00F02CFB0023244AAD
:106BB00023701370234A1370234A13700122174B5A
:106BC0001A70224B1A7002F01FFC002801D108F045
:106BD0008DF81F4B1B78002B0BD11E4B1A78002A07
:106BE00007D018780138C0B21870002801D104F01D
:106BF00003FC03F0B1FC02F05FFE06F077F905B08C
:106C0000F0BDC046F01700205B18002002180020DD
:106C1000FA170020F5170020811A002062180020C2
:106C20005A180020A2170020251C0020ED1A002071
:106C3000C01A002065180020BA170020D41B0020BD
:106C40006A130020231C0020221C00202B18002087
:106C5000331800206A180020F0B53B4D85B06A7FDC
:106C6000531ED9B202292AD8EB18997F0191991C99
:106C70000533CE7FDC7F354B02931B780393019B5A
:106C8000002B0CD0324F3B780093002B1DD0012BF2
:106C90004AD003233B702F4B029A1B6813700021CC
:106CA0002D4B029A595610786B7F40180122C0B2C2
:106CB00003F0B0FDFF2800D10020C4B213E001268C
:106CC0000123764234000193D5E7224B03991960E2
:106CD000731C29D00099B0B203F058FD002823D0CE
:106CE000009BF4B23B70194B1C70039BA3420CD069
:106CF000287A02212B181C712C5403F0D7FE012096
:106D000004F0D0F90122154B1A700922144B1A8095
:106D1000019B002B06D00E4A13780133DBB2032B04
:106D200010D8137005B0F0BD074B5A7F631CB0D06C
:106D30000021A0B203F02AFD0028AAD00123E4B26A
:106D40003B70D0E70023ECE7C01A00203718002082
:106D50009417002080170020A21700202B18002075
:106D600058180020002170B5104B114C1A68114BB7
:106D700025685956002A15D00F4B28001B68FEF7CE
:106D80007DFC2860206803F083FE206803F060FD2E
:106D9000012004F087F90922084B1A80084B083AB1
:106DA0001A7070BD2800FEF77FFCEAE79C170020F0
:106DB000B41A0020A21700209817002058180020AD
:106DC0002B18002070B504000D00002807D01B4AC6
:106DD0001B4B517E1970002353761A4A137004F02E
:106DE00065F80020184B194A19688B7F1370184AF0
:106DF0001070184A1570184DC72B15D8844202D050
:106E0000164A2B601360FFF727FF2A68144B1A609D
:106E1000144B1A88144B1A800023144A1370144A16
:106E20001370144A137070BD002C03D00B680B4A0A
:106E30002B601360FFF796FFE7E7C046C01A0020FB
:106E40008C170020A1170020B41A0020371800204A
:106E500094170020A2170020881700209017002008
:106E600084170020282D01085818002083000020D6
:106E700036180020A017002010B5134B134A1B78BA
:106E800012783833DBB2032A15D1062B03D9104B05
:106E90001B78002B14D10F4B04201B78002B00D043
:106EA0000238FEF7DDFA00230B4A13700B4A137009
:106EB0000B4A137010BD062B02D8FFF753FFF2E701
:106EC000FFF7CAFEEFE7C04637180020EA17002098
:106ED000AC1A0020801A0020A017002036180020CD
:106EE00083000020144B1B7F502B20D913490A78B4
:106EF000002A0AD1124A503B1288534305225343B9
:106F0000104A9BB2138001230B7000220E4B1A70A3
:106F10000E4A0F4B116819600E4B19688B7FC72BF7
:106F200000D90B68136001220B4B1A7070470022C6
:106F3000044B1A80E9E7C046C01A0020A0170020C1
:106F4000242D0108581800208300002088170020F5
:106F500084170020B41A0020A1170020F8B5224B96
:106F6000224C1A78002A02D0627600221A7000227F
:106F70001F4B1A701F4B1F681F4B3D001B7893421D
:106F800001D01E4B1D681E4B1B78C72B1AD8207AC8
:106F9000EBB2221802211371235403F087FDBD4286
:106FA00004D005F081F80122164B1A700023083432
:106FB000E37705F059FB012004F074F80122124B2D
:106FC0001A70F8BD114E3068056003F061FD30683D
:106FD00003F03EFCBD42E9D032680123217A907F64
:106FE00005F0C0FAE2E7C0468C170020C01A002066
:106FF000A217002090170020A1170020881700205A
:1070000037180020621800202B180020B41A002026
:10701000074B1B78012B0AD0064B1B78012B06D09F
:10702000012205498B7B53408B73044B1A707047C8
:10703000251C0020EA170020C01A00204B18002051
:1070400000220E4B1A6001230D4A517A4B40517EAB
:107050005372002901D0591C5176117E002901D0AC
:10706000013313760123074A1370074A1370074A46
:1070700013700022064B1A707047C0469C17002000
:10708000C01A00204B180020501800208600002055
:10709000BC00002010B5124CE37D002B13D0114B27
:1070A0001B68997F0B003133DBB2092B0BD9627A55
:1070B000A318C72908D89B78A35401220A4B1A7039
:1070C0000A4B92181A7010BD1879002301211A007A
:1070D00003F0A0FBFF28F6D0637AE054EDE7C0464A
:1070E000C01A0020B81A00204D1800204F180020A8
:1070F00037B5224C236831331B78042B06D1204B43
:107100001C22FA211B781F48FCF7BCFD2368313391
:107110001B78023B012B2CD8194B1B4C1B781B4DA9
:10712000002B09D0A0238022DB0552009A610123A5
:107130003C202B70FDF7D8FC230068331878FCF74F
:10714000EBFD2100230022006631098862336032A2
:107150001B8812886434019121880D480091002118
:10716000FCF72EFEA0238022DB0552009A6200234A
:107170002B700120FCF766FD37BDC046B01A002019
:10718000281B0020AB090000C01A0020671800204F
:107190000B1B002030B502780300013AD2B2002068
:1071A000FD2A0CD801240E4D59188B4206D01A78AE
:1071B000501EC0B2FD2803D900221A70012030BD34
:1071C000232A09D02A3AD2B21A2A07D82800D04056
:1071D000020020402242F2D00133E6E70020EEE731
:1071E000C1FF8007092802D83030C0B270470300C1
:1071F0000A3BFF20052BF9D8014AD05CF6E7C046D0
:10720000D01D01080F2210B5002104480AF00CFA25
:107210000022034B1A70034B1A7010BDBC170020DC
:10722000BB170020BA170020F8B50A4F06003C78BB
:10723000002C0BD1084D0E222D2128000AF0F4F964
:10724000AC73631C3B70044B1E5501E00D2CF8D948
:10725000F8BDC046BB170020BC17002073B5264AF6
:107260001378012B0CD0254B1B6831331978042976
:1072700040D81523CB40DB073CD50023137073BDEA
:107280001F4D002313701F4B1F4C1B88181CC72B4E
:1072900000D8C820230068331B781C4E80B2002B16
:1072A00006D0A0238022DB0552009A6101233370AF
:1072B000FDF71AFC230068331878FCF72DFD210038
:1072C0002300220066310988623360321B881288ED
:1072D000643401912188280000910121FCF770FDA0
:1072E000A02380220020DB0552009A623070FCF758
:1072F000A9FCC4E7064DC4E7A3170020B01A00207C
:10730000CB1700201E1B0020C01A00206718002089
:10731000F91A002010B5144B1B78002B07D0002958
:107320000FD100280DD00222104B1A7009E000295D
:1073300003D1002806D00D4B13E0002801D0FFF741
:1073400067FE10BD0A4B1B78002BFAD1094A0133A6
:1073500011784B40137003D0074A084B12781A700B
:10736000074B0122E1E7C046D41B0020E9170020AB
:10737000251C00206A130020402D010866180020FB
:1073800062180020002370B5414C2370984203D04E
:10739000404B1B78002B23D03F4B1B78012B13D184
:1073A0003E4D2B78002B10D0002002F08BFF0024E4
:1073B0003B4B20001C702C7004F01EF8394B1B78DE
:1073C000012B01D0384B1C7070BDFEF77BF9374B99
:1073D00019780029E8D00A224A43354B1A70E6E7AB
:1073E00002F012F8002807D002F01EF8314B1B788B
:1073F000002B25D0304B21E0304B1B785BB2002BAB
:1074000002D0FFF7ABFDF1E7234B1B78012B05D131
:10741000274B1B78002B01D12370D5E7214B1B781C
:10742000012B02D00022204B1A702549254B0978E8
:107430001A78002913D1002A18D1234B01221A707F
:107440000022224B1A70174B1B78012B01D0164BD0
:107450001A7001221E4B1A701E4B1A70B4E7002AD4
:1074600004D11D4A1278002A0ED01A701B781B49CD
:107470000E2B01D80022CA54174A194813700AF07B
:10748000DBF80122174B1A70FFF7BCFED5E7C046A8
:10749000D41B00207B180020EA1700203818002099
:1074A00042180020251C0020BC000020F11A0020FA
:1074B000641800203318002052180020A217002062
:1074C000BA170020BB1700204A18002032180020ED
:1074D000621800202B180020B9170020BC170020CC
:1074E000CB170020A3170020F7B5BC4C0D00237C60
:1074F000667A002B0CD0022811D10122B84B1A70E9
:10750000FFF79EFD002D0AD00122B64B1A7006E04F
:10751000B54BB44F1B78012B02D102233B70F7BD52
:1075200001233B70122800D99CE1FBF7DDF9F8FF3D
:1075300013008500880090009F000C010F011201CC
:107540001C019B012A0136019B019B019B019B01B0
:107550008F013C01A54B19688B7F3833DBB2062BBA
:107560003FD90022A24B1A70A24B01321A70E37D60
:10757000002BD2D0A04B1B78002BCED19F4B1B7879
:107580005BB2002B0BD09E4B1B78032BC7D19D4BBE
:107590001B78002BC3D09C4B1B88002BBFD0A35D56
:1075A000C72BBCD848237343E3181A00A0321278C3
:1075B0008E33383AD2B2A2551A7003F077FC934C4E
:1075C000206803F065FA206803F042F9012003F017
:1075D00069FD01238E4A13708E4A13708E4A137010
:1075E0009DE70A0030321378062B07D109698B48D2
:1075F0000D68854202D88A4B0B6090E70133DBB2FD
:107600001370042B14D1874B1B78002B01D1053349
:10761000137013780122383BDBB2A355A419A37071
:107620007C4B1A706E4B92181A707F4B00226DE7DC
:10763000062BEED90023EBE7694A137060E7684A2E
:107640001370FFF727FD002D00D066E767E70020E5
:10765000674B1870627E754B60761A700122654B1D
:107660001A7001F041FE704B02224FE7002911D041
:107670005E4B1B689B7F3133DBB2092B07D9A31903
:107680009B790122A355634B1A70554BECE7A31964
:107690001B79F6E701F0B8FE002800D03FE7534B16
:1076A0001968887FC72823D90B69617A1B684A4209
:1076B000514148224A435E4EA218106F5D4A9D19FF
:1076C0005D495E4C954202D88519954203D9002345
:1076D0000B60236021E70A68206055426A415242EC
:1076E00013400B60984200D319E70860236016E747
:1076F000534B1A5C002A01D01D5410E70E000A00FB
:107700000F002E362F32337814785B00A4002D370B
:1077100023433C782343DBB2062B01D80133DDB28F
:1077200001242B0023403B706B082340AD083370CD
:10773000157023002200009404F0AEFE284B1C704C
:10774000404B1C70EBE6FDF711FAE8E6FDF73AFA5C
:10775000E5E60121254B1B682A331A784A401A7046
:107760002B4B1970DBE60022374B1100187803F021
:107770000DF8002800D166E7334BA2191B7813716E
:107780007FE7227B131C082A00D9082301332373C7
:107790000122134B1A70164B48E7237B002BF6D0BF
:1077A000013BDBB2F3E7114C23680733D87F02F0CB
:1077B00021FBC0B2162806D825680130C0B202F0FD
:1077C00013FB0735E87723689B7F3833DBB2062B42
:1077D000DED801220E4B1A70DAE7C046C01A00202C
:1077E0004F180020E9170020251C0020B81A00209F
:1077F0006A130020621800205A180020A2170020E7
:10780000EA1700203618002058180020B41A00206B
:107810004C1800204D1800202B180020FFE0F50523
:1078200000E1F505A81A0020BC0000203018002057
:10783000806967FF80AF2A239C17002098170020DB
:10784000821800204E180020F81A0020074C2368E8
:107850000733D87F02F0CEFAC0B20028B3D0256833
:107860000138ABE7024A137095E7C046B81A00200A
:107870006218002070B50E0011000022324B334C0C
:107880001A70334B1A70637AE55C324B1B78964260
:1078900002D1904226D170BD002BFCD10028FAD035
:1078A00000222D4B9A56002A43D12B003133DBB2F4
:1078B000092B33D92B003833DBB2062B1CD8274DCC
:1078C0002868FDF7F1FE040002F0D0FB00280BDB76
:1078D0002B6820001C60FBF7F9FFFCF725F801225C
:1078E0001F4B03E0002B03D01E4B02221A70D2E77D
:1078F00001221C4B1A70D3E768181300C0B202F0C3
:1079000089FFFF28C7D08542C5D0637AE21810717D
:107910000122E054144B1A70144BE6E728000923A7
:10792000CF3802F0F7FE637A3138C0B2E2189071B6
:10793000EEE70020FFF746FA012200210C4B1A80E7
:107940000C4B19700C4BD1E7841A0020C01A002090
:10795000851A0020D41B0020A2170020B81A00208E
:107960004C180020E91700204D1800204F18002067
:10797000581800208300002053180020002270B502
:10798000104D110004006E7A02F000FF002807D1AC
:107990000D4B1B78012B02D802220C4B1A7070BDC4
:1079A00000230221094AE4B21370AA191471084A8B
:1079B000AC551170074A1370074A1370687A03F0C8
:1079C00075F8ECE7C01A002066180020E9170020BF
:1079D0004F180020841A0020851A002070B5154B1E
:1079E0001B689B7FC72B17D800220A251300124C57
:1079F000124E2178D0B281420FD8002B13D1032927
:107A00000AD100220121013B22700D4A98B2117067
:107A1000FFF7B4FF04F048FB70BD6B43B05C01326C
:107A20001B189BB2E6E7581E80B20329E9D0FFF786
:107A3000A5FFF1E7B81A0020D41B0020DE1B0020B0
:107A400066180020F0B5BC4F05003B780C0016000E
:107A500085B0002B19D0002900D188E2002A00D07F
:107A60009CE2FFF7BFFBFF2800D168E2FFF7DCFBD9
:107A7000B24AB34B12781A700122B24B1E70B24B4D
:107A80001A70B24B1A7005B0F0BD122800D9F3E19C
:107A9000FAF734FF13001300130013001300130050
:107AA0001300130013001300000190019E01A601B2
:107AB000E4013402390213001300002E16D0002C0A
:107AC000E1D0A34B1B78002BDDD1A24A117800290D
:107AD00002D013709B4A1370002101229E4B197033
:107AE0009E4B1A702800FFF7FFFCCCE7002C02D059
:107AF000964B0122C6E7984B1A78002A00D0BAE0CC
:107B0000974B1B785BB2002B06D0052DBBD8954B4D
:107B10005D7704F0A9FDB6E7924E2800737A0193D1
:107B200005F00EF8854B1D78854B02931D70FFF70D
:107B300055FF8D4F834B39681C708B7FC72B03D843
:107B4000029BAD081D709EE71A003832D2B2062A99
:107B50006FD80B697F4C1A68844B93429B415B4200
:107B6000063303932378002B00D18CE7039A9342CA
:107B70004ED12D09029B1D7004F0FAFF247802F00B
:107B8000D9FD002102000A20039B1B1BDBB28B42A4
:107B900044D16420764B50431C68764A5568A04215
:107BA0000AD3A8423ED3744A1468A0423AD2631959
:107BB0005B08984200D22C00200002F029F93B68B3
:107BC00030331A7882420DD0C0B21870019B383819
:107BD000C0B2F054F618B07004F066FA02210198B1
:107BE00002F064FF3B682000998B02F03BF9A84249
:107BF0000AD3614B1B68984206D25A195208904228
:107C000015D23B68988B281A3B6818605B4B70E76D
:107C100028000321FAF77CFEC5B2ABE701314243ED
:107C2000C9B2B4E75C6B8442C6D90400C4E718004B
:107C3000EAE73133DBB2092B00D923E1454B1A784F
:107C4000022A00D01FE71C700A234D4908784978A2
:107C500043435B18DBB2591E092900D912E101998F
:107C6000313BDBB271188B71019973540121454B83
:107C70001970454B06E701211C70384B1970082D0F
:107C800002D1FDF7EBF9FEE6092D00D02AE7FCF75B
:107C9000D1FFF8E6002921D0002E00D128E7304B93
:107CA0001B785BB2002B2ED002F0FAF9002804D129
:107CB000364B1B88092B00D8E5E62B4B344A1B6852
:107CC000997F01235354304A1370324A1370324A59
:107CD000324B12681A60FFF7CFF8D4E6002E00D0BE
:107CE000D1E63B78002B00D0CDE61A4B1A781E70F7
:107CF000002A00D090E01A4B1B785BB2002B4FD0CB
:107D0000FFF72CF9BFE6144A1370114B1B78002BB8
:107D100000D0B8E60F490878002802D00B70094956
:107D20000B700023012113700C4B0A000A201970FC
:107D3000FDF7E2F8A7E6C046BA170020402D01087B
:107D400066180020BC00002053180020E91700200E
:107D5000251C0020D41B00206A130020621800207C
:107D6000A2170020C01A0020B81A0020FFE0F50575
:107D70003C2C01087C2C0108742C01084C180020B4
:107D8000DE1B00204D1800204F180020581800203E
:107D9000821800204E180020841700208817002029
:107DA0008A4B1B7C002B00D06DE60122884B1A7099
:107DB000884B67E6884B1B78002B02D000210C20F3
:107DC00091E60122524231002000FFF753FD5AE6AE
:107DD000814B01221B78002BF5D000210B2082E67D
:107DE000002E22D1002C00D14DE601227B4B1A70CF
:107DF0007B4B1B785BB2002B11D17A4A1378002B96
:107E000000D140E60A21013BDBB21370764AD1541F
:107E1000764A774B12781A7000226E4B32E60022B7
:107E2000744B1A70FFF79AF8F6E7002C00D12AE697
:107E30006C4D714A2B7811780B4303D13B78002BA2
:107E400000D120E600246D48147021000F223C7000
:107E500009F0EAFB5F4B2C701C7049E65B4A137C0F
:107E6000002B00D00FE6664B1B78012B00D10AE6F1
:107E70005C4B1B78002B08D0002E00D003E6002CB2
:107E800000D100E60222554BFCE5002E09D0524BF2
:107E9000187800283BD1002C00D1F4E5FCF7B6FFA0
:107EA00026E6002C00D0EEE54B4B1B78002B31D1A1
:107EB0004B4B4A4A1B785BB2002B1CD1514B1B68C1
:107EC0009B7F3133DBB2092B15D94F4B1B68002B3D
:107ED00011D101254D48157048490E2209F0B4FB17
:107EE000454B424A1C701278414B3D701A70394B19
:107EF0001C70474BFDE502231370FAE731002000A8
:107F0000FFF708FABFE52000FFF73CFABBE5002CBD
:107F100000D0B8E50021304B19703A4B1B689B7FAD
:107F20003133DBB2092BADD9507E3A4B5176187004
:107F3000012001F0D9F90222264B1A70D9E7122D3F
:107F4000A0D82800FAF7D0FCD2FDD2FDD2FDD2FD98
:107F5000D2FDD2FDD2FDD2FDD2FDD2FDD4FD36FF41
:107F600044FF4EFF8AFFDAFFDFFFD2FDD2FD122869
:107F700082D8FAF7B9FCA2FDA2FDA2FDA2FDA2FDE6
:107F8000A2FDA2FDA2FDA2FDA2FDB3FE1FFF2DFFDB
:107F900035FF73FFC3FFC8FFA2FDA2FD122800D961
:107FA00071E5FAF7A1FC8CFD8CFD8CFD8CFD8CFD40
:107FB0008CFD8CFD8CFD8CFD8CFD79FE07FF15FF83
:107FC00045FF5BFFABFFB0FF8CFD8CFDC01A0020AE
:107FD00048180020BC0000206A130020E917002088
:107FE000A2170020D41B0020DE1B0020402D01081A
:107FF00066180020A1170020BB170020CB17002017
:10800000EA170020B81A00209C170020BC17002097
:10801000621800203018002010B5012001F064F92A
:108020000123034A1370034A1370034A137010BDEF
:10803000621800205A180020BC0000200022044BC7
:108040001A70044B01321A70034B1A707047C04605
:108050005A1800202B18002062180020002300B5B9
:108060000B604A2864D8FAF735FC262A32383A38A9
:108070003A34633E5B5B5B4545455D47302C5D268E
:108080002E5D5B363C5B5B5B5B30495B5D4547422D
:1080900042426363495B4B5B49346334345B305B1E
:1080A00057595B5D5D5F5B5B5B5B5B5B495B4F5344
:1080B00053535353490009230020136000BD172375
:1080C000FAE73D23F8E701230B600A23F4E70723CF
:1080D000F2E70223F0E76823EEE7D023ECE7322350
:1080E000EAE72823E8E705230B60AE33E4E7012342
:1080F0005B420B60C723DFE70523DDE70423DBE7F3
:1081000003230B606033D7E70B4B0B600B4BD3E7BC
:108110000B4B1B78013BCFE77823CDE70623CBE75A
:108120000123C9E70323C7E701230B600E33C3E72D
:1081300001204042C2E7C046DC050000AC0D000053
:10814000772D0108F0B587B0140006000F0005F088
:10815000B7FD02000F2832D15D4B1B78002B2ED0CB
:108160005C4B1D68002D2ADB002E26D0092D24DC57
:10817000594902A809F068FA6A465848E4B2435DD2
:10818000D61DE318DBB2190000222039C9B25E29DE
:1081900003D91F2B0AD87E230BE00132B75C9F4224
:1081A00002D11B19DBB2EEE70F2AF0D17E2B00D9EA
:1081B0002023012243554A4B1A7007B0F0BD002F0F
:1081C00030D1002EF9D00122464B1A70464B1F7059
:1081D00001F01AF9061EF0D13D4B414F1D78002DDC
:1081E00023D1424B424E1B782A00013B307861423A
:1081F00002F090FA01223F4B30701A703A7005F08D
:108200005FFD1328D9D005F05BFD1528D5D005F00A
:1082100057FD1628D1D0384BDB7E002BCDD1FBF794
:1082200053F8CAE7002ED3D1C7E705F049FD082867
:1082300014D1324B324D1B682868998B314B4C431B
:108240002018984203DC002802DA2F4800E03000B2
:1082500001F008FE286001233B70AEE705F030FD19
:108260000F2829DC0D2824DC05F02AFD02AAC0B263
:1082700001A9FFF7F3FE0028EDD1214D019A2968ED
:108280001000029B914203DB18008B4200DD0800C6
:10829000210002F03FFADDE70223194E2A00306880
:1082A00021000019C0B202F0B5FAFF28D3D0306027
:1082B000D1E700252B00F0E723380428D4D8FAF7BB
:1082C000FFFAF8D303EB05000123E6E70323E4E715
:1082D000211C0020F41B002027180108F81B002097
