:020000040800F2
:1028000000400020A92D0008912D0008932D0008FC
:1028100000000000000000000000000000000000B8
:10282000000000000000000000000000952D0008DE
:102830000000000000000000972D0008C9B7000844
:10284000F92D0008F92D0008F92D0008F92D0008D0
:10285000F92D0008F92D0008F92D0008F92D0008C0
:10286000F92D0008F92D0008F92D0008014700088E
:10287000F92D0008F92D0008F92D0008F92D0008A0
:10288000F92D0008F92D0008F92D0008F92D000890
:10289000F92D0008F92D0008F92D0008F92D000880
:1028A000F92D0008F92D0008F92D0008F92D000870
:1028B000F92D0008F92D000800000000C1440108AE
:1028C00002B4714649084900095649008E4402BCC9
:1028D0007047C04602B4714649084900095C490086
:1028E0008E4402BC7047C04603B47146490840009C
:1028F0004900095E49008E4403BC704703B4714629
:10290000490840004900095A49008E4403BC7047F9
:10291000002243088B4274D303098B425FD3030A1E
:102920008B4244D3030B8B4228D3030C8B420DD331
:10293000FF22090212BA030C8B4202D312120902BF
:1029400065D0030B8B4219D300E0090AC30B8B42FD
:1029500001D3CB03C01A5241830B8B4201D38B03AB
:10296000C01A5241430B8B4201D34B03C01A524150
:10297000030B8B4201D30B03C01A5241C30A8B4293
:1029800001D3CB02C01A5241830A8B4201D38B027E
:10299000C01A5241430A8B4201D34B02C01A524122
:1029A000030A8B4201D30B02C01A5241CDD2C30994
:1029B0008B4201D3CB01C01A524183098B4201D310
:1029C0008B01C01A524143098B4201D34B01C01AFB
:1029D000524103098B4201D30B01C01A5241C30873
:1029E0008B4201D3CB00C01A524183088B4201D3E2
:1029F0008B00C01A524143088B4201D34B00C01ACE
:102A00005241411A00D20146524110467047FFE739
:102A100001B5002000F0F0F802BDC0460029F7D053
:102A200076E7704703460B437FD4002243088B426E
:102A300074D303098B425FD3030A8B4244D3030B45
:102A40008B4228D3030C8B420DD3FF22090212BA0A
:102A5000030C8B4202D31212090265D0030B8B4286
:102A600019D300E0090AC30B8B4201D3CB03C01A70
:102A70005241830B8B4201D38B03C01A5241430B4B
:102A80008B4201D34B03C01A5241030B8B4201D33B
:102A90000B03C01A5241C30A8B4201D3CB02C01AA6
:102AA0005241830A8B4201D38B02C01A5241430A1E
:102AB0008B4201D34B02C01A5241030A8B4201D30D
:102AC0000B02C01A5241CDD2C3098B4201D3CB01B4
:102AD000C01A524183098B4201D38B01C01A524163
:102AE00043098B4201D34B01C01A524103098B4267
:102AF00001D30B01C01A5241C3088B4201D3CB0052
:102B0000C01A524183088B4201D38B00C01A524134
:102B100043088B4201D34B00C01A5241411A00D2E4
:102B200001465241104670475DE0CA0F00D049424D
:102B3000031000D34042534000229C4603098B42BD
:102B40002DD3030A8B4212D3FC22890112BA030A45
:102B50008B420CD3890192118B4208D389019211C7
:102B60008B4204D389013AD0921100E08909C3094C
:102B70008B4201D3CB01C01A524183098B4201D34E
:102B80008B01C01A524143098B4201D34B01C01A39
:102B9000524103098B4201D30B01C01A5241C308B1
:102BA0008B4201D3CB00C01A524183088B4201D320
:102BB0008B00C01A5241D9D243088B4201D34B003B
:102BC000C01A5241411A00D20146634652415B107D
:102BD000104601D34042002B00D54942704763465E
:102BE0005B1000D3404201B5002000F005F802BDA3
:102BF0000029F8D016E770477047C0461C21012312
:102C00001B04984201D3000C10391B0A984201D3CF
:102C1000000A08391B09984201D30009043902A2AD
:102C2000105C40187047C046040302020101010114
:102C30000000000000000000844608006146FFE735
:102C40001FB512F021FA002801D40021C8421FBD8F
:102C500010B512F0A7F94042013010BD10B512F0C6
:102C600013FA002801DB002010BD012010BDC04672
:102C700010B512F009FA002801DD002010BD012076
:102C800010BDC04610B512F0B5F9002801DC0020D7
:102C900010BD012010BDC04610B512F0ABF90028E0
:102CA00001DA002010BD012010BDC0460023C25C27
:102CB0000133002AFBD1581E704700000448054B21
:102CC00010B5834203D0044B002B00D0984710BDB1
:102CD0007001002070010020000000000648074934
:102CE000091A8B10C90FC91810B5491003D0044B2D
:102CF000002B00D0984710BD70010020700100200B
:102D00000000000010B5074C2378002B09D1FFF715
:102D1000D5FF054B002B02D0044800E000BF012383
:102D2000237010BDE002002000000000D451010813
:102D3000054B10B5002B03D00449054800E000BF47
:102D4000FFF7CCFF10BDC04600000000E4020020E9
:102D5000D451010807B501210B4B0C481A6C0A43EA
:102D60001A641A6C0A4080210192019ADA6B4905B3
:102D70000A43DA63DB6B0B400093009B00F03EF9E3
:102D80000CF02AFAFEE7C04600100240006CDC029C
:102D90007047FEE770477047014B024A9A607047E0
:102DA00000ED00E0002800080D488546FFF7F4FF1D
:102DB0000C480D490D4A002302E0D458C450043396
:102DC000C4188C42F9D30A4A0A4C002301E013606C
:102DD0000432A242FBD312F09FF9FFF7BBFFFEE7DC
:102DE00000400020000000207001002098710108C0
:102DF000E0020020C0370020FEE70000054B064A35
:102E00009B681B051B0F9B009B581F221340D8403B
:102E10007047C0460010024020530108054B064A87
:102E20009B685B045B0F9B009B581F221340D8409C
:102E30007047C04600100240005301080A4AD36898
:102E4000DB439B070BD0536808491B045B0F9B00B7
:102E500058580C23D2681A4203D1400070470448E6
:102E6000F7E703235843F9E700100240E052010856
:102E700000366E013821104A10B593680B40102BB4
:102E800015D00DD8082B15D00720536812685B0B9E
:102E900003400A499B00D20A02405858D04008E03B
:102EA0000821183B8B43EFD18020000201E0FFF79F
:102EB000C5FF10BD0248FCE700100240E0520108C7
:102EC00000366E0110B50400FFF7D4FF2060FFF755
:102ED00095FF6060FFF7A2FFA06010BD104B10B51A
:102EE000CB5CD468C01893680168234314692343FA
:102EF0005469234394692343D4692343546A234385
:102F0000084C21400B4303605368C3601368126A86
:102F1000836043681B0C1B0413434360002010BDF7
:102F20005F5301080F80FFFF00230360436083604D
:102F3000C360036143618361C3610362436270479D
:102F4000F7B500254B680A6800935F1E1300EB403D
:102F500009D1012F05D84368C96893434A431343F5
:102F600043600020FEBD01241300AC4023402242F8
:102F70002BD01A0003265A435643B446F643019613
:102F800066460468B443009E564334430460012FF0
:102F900006D88C6887685443019E37403C43846060
:102FA0000C69C7685443019E37403C43C460009C91
:102FB000022C0AD14C69FF2B09D80F2652435643E5
:102FC0006243036AB3431A4302620135BAE70F262C
:102FD0001B0A5B435B435E435C43426AB24322434A
:102FE0004262F2E7044B03600323436000238360E3
:102FF000C360036143617047FFFF0000014B18602D
:103000007047C046000000200368020070B5012030
:103010005B0620D44E680B68486933438E68156898
:103020003343CE680C6A33430E6933438E690343DE
:103030003343CE69000C33430B4E234335402B43BF
:10304000042513605368AB431843802350609B01F1
:103050009C4205D00020D36904490B40D36170BD68
:103060004B6A9BB21361F5E74000FFFFFFF7FFFFDC
:103070000023036043608360C36003614361836135
:10308000C361036207334362704700007FB5C368C2
:1030900004000D009B0402D5012004B070BD4B68F4
:1030A000C968C2680B4329690B432D490A40134381
:1030B000C36043692B4A1340AA6913434361036900
:1030C000294A1340AA68134303614369274A1340FE
:1030D0006A691343436101A8FFF7F4FE039B002BC9
:1030E000DAD029680029D7D0192058438023AA694B
:1030F0001B019A421DD14900FFF70AFC642106001A
:10310000FFF78CFCC80032306421FFF701FC64211A
:1031100085B23000FFF7FCFB072300012B40C018ED
:10312000F8236D005B001D40401980B2A0600020B4
:10313000B3E78900FFF7ECFB64210600FFF76EFCA4
:10314000080132306421FFF7E3FB64210500300001
:10315000FFF7DEFB00012D18ADB2A560E7E7C04622
:10316000F3E9FFFFFFF7FFFFFFCFFFFFFFFCFFFFCC
:1031700096239B010C22036000230261436083605D
:10318000C36043618361704710B5074B1B78012B07
:1031900005D8082006F00CFD082006F009FD0022E5
:1031A000024B1A7010BDC046901B00208400002006
:1031B00037B520220125254B254CD96B1143D96306
:1031C000D96B114001910199996B29439963996BCE
:1031D000294000910099D96A1143D962D96A914373
:1031E000D9620023F021A3621A4B89011868FFF706
:1031F0008FFB80230138E062226817481343236065
:103200008023E2685B0013430222E3602368934358
:103210002360124B1A68AA431A60C168104A114011
:103220009C2292030A43C26019680E4A11400E4A5A
:103230000A4340211A600D4ADA600D4A9A605A68C2
:10324000120C12040A435A6037BDC04600100240F7
:1032500000140040000000200000014080000240F7
:10326000FFFFC0FF0F80FFFFB02A00000403002013
:1032700018140050014B18787047C0460003002016
:10328000F8B5274D04002B78834211D0002810D1C7
:103290000120244A136883431360234A136883433D
:1032A000136001F079FD8022204B52009A622C704D
:1032B000F8BD1F4BFF211E5CB6013000FFF728FB55
:1032C000FF2300229B019E421BD01100194E0B00D0
:1032D00082424B41184F5B423B4001339700FF3322
:1032E0000132F351402AF2D101230E4A11681942EA
:1032F000DDD10D4801681943016011680B4313606B
:10330000D5E70121074A13688B431360064A136807
:103310008B4313608022054B52009A61C7E7C04679
:10332000FC02002000140040800002400014005005
:10333000675301080403002000FFFF0010B5054B90
:10334000587CFFF79DFF0022034B1A80034B1A7035
:1033500010BDC0465B1C00200203002000030020BB
:10336000782170B5184A194B1278194C4A431A80C3
:10337000184A194B1278194D1A70194BDB7F002B24
:1033800007D1FFF7DBFF2B78002B01D0FFF7FCFE06
:1033900070BD0122134B1A702300FF33987C2B78E9
:1033A000002B0ED0FFF76CFFFFF7EEFE0134E17F3C
:1033B00000230D4A3D2902D00A234B4301331380D9
:1033C000E6E7FFF75DFFF1E790000020FE02002036
:1033D0005C1B0020FC020020B918002084000020A3
:1033E0005D1B00200003002002030020F8B58023AD
:1033F000040008260127114D5B00AB6263B2002B6D
:1034000017DB80239B00AB62380001F0C5FC8023F2
:103410005B003800AB6101F0BFFC80235B0038002B
:103420006400AB62013E01F0B7FCE4B2002EE5D1CE
:10343000F8BD80239B00AB61E6E7C0460004005066
:10344000F7B580258026214C214FAD0076000190F4
:10345000BD610120A66201F09FFC8020019BBD623E
:1034600003431800FFF7C2FF23681A4A01201340E4
:10347000236001F091FC10230025019301222369B0
:103480006D005B0A13401000ADB2A6611D4301F050
:1034900083FC0120A66201F07FFC019B013B0193AC
:1034A000002BEBD122680B4B01201A408023DB025A
:1034B0001343236080239B00BB6101F06DFC8023DC
:1034C0009B002800A661A361FEBDC0460004005019
:1034D00000140050FFFFF3FFF8B58023040010260E
:1034E0000127114D5B00AB6223B2002B17DB802359
:1034F0009B00AB62380001F04FFC80235B0038007A
:10350000AB6101F049FC80235B0038006400AB62D2
:10351000013E01F041FCA4B2002EE5D1F8BD8023AC
:103520009B00AB61E6E7C04600040050F7B580247D
:1035300080270F4E0F4DA4007F0001910090B461D1
:103540000120AF6201F028FC0098B462FFF74EFF43
:10355000012001F021FC0198FFF7BEFF012001F0DE
:103560001BFCB461012001F017FCAF61AC61F7BD39
:1035700000140050000400501FB580228021564BDB
:1035800092009A61554B4900996180219A6100200F
:103590000902FFF7CBFF00210800FFF7C7FF372024
:1035A0004F49FFF7C3FF22213620FFF7BFFFC62197
:1035B00010208900FFF7BAFF11204A49FFF7B6FF34
:1035C00012204949FFF7B2FF13204849FFF7AEFF29
:1035D000842114208900FFF7A9FF49204449FFF7FF
:1035E000A5FF7B204349FFF7A1FF7D204249FFF75C
:1035F0009DFF48204149FFF799FF40204049FFF7D0
:1036000095FF102268463F4911F0CCFD00246B461F
:10361000195D23031943092089B20134FFF786FF9E
:10362000102CF4D1F8211C20C900FFF77FFF1D20CA
:103630003549FFF77BFF1E203449FFF777FF1F2036
:103640003349FFF773FF3E203249FFF76FFF7320C6
:103650003149FFF76BFF77203049FFF767FF1920EB
:103660002F49FFF763FFB42128200901FFF75EFF10
:10367000AA2129200902FFF759FFCC212A20C901DC
:10368000FFF754FF2C202749FFF750FF2F20264932
:10369000FFF74CFF53202549FFF748FF7E202449C0
:1036A000FFF744FF46202349FFF740FF4A20224905
:1036B000FFF73CFF07202149FFF738FF9021204BFF
:1036C000204A332009021A80FFF730FF00213F20F3
:1036D000FFF72CFF1FBDC04600140050000400502F
:1036E0001F9D00003A030000DB030000DF03000021
:1036F000B22A0000DC73000020E90000A8330000BB
:10370000163500007253010855E50000584C0000C2
:103710005AC60000C694000091460000EF880000E1
:103720004E10000022180000909800002820000091
:103730003E3000000A60000030540000CE610000FE
:10374000060400200090FFFF10B504007E20FFF764
:1037500077FEC3439BB2DB0BA3420CD00123C021F5
:1037600063400005DB03000D18438901014389B262
:103770007E20FFF7DBFE10BD10B5134904001320B7
:10378000FFF7D4FE12201149FFF7D0FE1120104997
:10379000FFF7CCFE7A211020FFF7C8FE002C0DD0D9
:1037A00000211420FFF7C2FEC92149014920FFF77B
:1037B000BDFE7B200749FFF7B9FE10BD192114207B
:1037C000FFF7B4FE0449F1E7BE0300007B030000ED
:1037D0007B02000020840000382A000010B5094C4C
:1037E0002388002908D04022C240134399B23320D5
:1037F0002180FFF79BFE10BD412149420141194044
:10380000F5E7C0460604002010B5040051200A491F
:10381000FFF78CFE07200949FFF788FE21050820E5
:10382000090DFFF783FE802321021B02090D0820EA
:103830001943FFF77BFE10BD33A00000D70A00003C
:103840000C4B10B5C1184B1E9941040049420A4B5C
:10385000890A8902C9185120FFF768FE0748084BFA
:1038600060430849C018FFF753F881B20720FFF7FB
:103870005DFE10BDBFF5FFFF4094000098260300D9
:1038800050C30000A0860100074B0100400810B59E
:10389000C018FFF73DF880218901014389B2072054
:1038A000FFF744FE10BDC046D6DF030070B504002C
:1038B00031200D00FFF7C4FDA02361051B02490D57
:1038C000194306004620FFF731FEC0216D056D0D3E
:1038D000490129437920FFF729FE7A200449FFF79F
:1038E00025FE04213143312089B2FFF71FFE70BD50
:1038F0009A2800005C2110B5032802D8034B400031
:10390000C15A4320FFF712FE10BDC046FA59010804
:10391000064A222310B5914200D81A3B80210002AA
:10392000184301433620FFF701FE10BDFF3EAB01F7
:1039300010B5040081B23820FFF7F8FD3920210CC2
:10394000FFF7F4FD10BD000010B50349000201436C
:103950004720FFF7EBFD10BD42600000F0B5CCB290
:1039600085B020001E000D0A0291FFF769FD01AF2E
:10397000FB88EDB2AB400100AE40994331432000DB
:1039800089B2FFF7D3FD05B0F0BD000010B53720B8
:103990000549FFF7CBFD00213020FFF7C7FD3020A0
:1039A0000249FFF7C3FD10BD1F9F0000F1BF0000DB
:1039B000F7B51C0008AB1E78009009AB0191702090
:1039C000002115001F78FFF7B1FDA0210902314346
:1039D0004D20FFF7ABFDD821C90139434E20FFF739
:1039E000A5FD210229434F20FFF7A0FD009B782071
:1039F0001902019B1943FFF799FD0020FFF7A4FF6F
:103A0000FFF7C4FFF7BD00000A4B012110B5984233
:103A100002D90021013007D10420FFF7DFFE002189
:103A20000320FFF7DBFE10BD0420FFF7D7FE0121C6
:103A3000F6E7C046FF3EAB0110B53120FFF700FDB1
:103A40000223984381B23120FFF770FD00212B2023
:103A5000FFF76CFD10BD000070B505003120FFF7C9
:103A6000EFFC0400002D06D108239C43A1B23120B5
:103A7000FFF75CFD70BDAB1E5A1E9341AD21DB0309
:103A8000890119432920FFF751FD0120A8428041F7
:103A900005494042800301432820FFF747FD0821E4
:103AA000214389B2E3E7C046382B000010B531202E
:103AB000FFF7C6FC0423984381B23120FFF736FD9F
:103AC00010BD10B500212420FFF730FD10BD00000F
:103AD000DB2110B52120C900FFF728FD2420024971
:103AE000FFF724FD10BDC0467FC1000010B5502077
:103AF0000149FFF71BFD10BD18BB000070B50C009D
:103B0000631E9C410500FFF7F1FF0320FFF71CFF38
:103B10000D4B61421940E0231B02C9187020FFF7CA
:103B200005FD00213020FFF701FD30200749FFF798
:103B3000FDFC802306495B026943C9187120490CCA
:103B4000FFF7F4FC70BDC04600BCFFFF020300009D
:103B50001DA6140010B550200149FFF7E7FC10BD69
:103B6000183B000010B500213020FFF7DFFCE821F2
:103B700037204901FFF7DAFC10BD000010B5002125
:103B80007020FFF7D3FC0020FFF7DEFEFFF7E2FF17
:103B900000213020FFF7CAFC30200249FFF7C6FCA5
:103BA00010BDC046F1BF000010B5C3217020FFF763
:103BB000BDFC72200A49FFF7B9FCC1215820FFF76C
:103BC000B5FC5C200749FFF7B1FC8E215D20C901DF
:103BD000FFF7ACFC5E200449FFF7A8FC10BDC0460F
:103BE00065300000655600000432000010B5002169
:103BF0003020FFF79BFC10BD10B500213F20FFF7E0
:103C000095FC68215920FFF791FC1E2001F09CF8DB
:103C1000FFF7ECFF10BD10B50020FFF795FE7E20EA
:103C2000FFF70EFC382328219843014389B27E20F8
:103C3000FFF77CFC10BD000010B500213620FFF717
:103C400075FC37200749FFF771FC52200649FFF742
:103C50006DFC00213020FFF769FC30200349FFF79D
:103C600065FC10BD1F9D00008F020000FEC100001A
:103C700010B5FFF7D0FFFFF76DFFFFF7DDFF10BDB9
:103C800010B500215120FFF751FC10BD054B10B5B8
:103C90001B78002B05D001210020FFF79FFDFFF7C7
:103CA00075FE10BD0404002010B50400FFF71EFFD0
:103CB0000020FFF749FE00217020FFF737FCFFF7D7
:103CC00000FF30200349FFF731FC002C01D1FFF742
:103CD00041FF10BDFEC1000010B530200149FFF7C3
:103CE00025FC10BDFAC30000F8B51D0007000E004A
:103CF0001400FFF7FBFE281E05D0A023802203201E
:103D0000DB0552009A61FFF71FFEFE232102DB0153
:103D100019400133FF3319437020FFF707FCFFF709
:103D2000DBFF322001F010F880231249BFB2794343
:103D30005B02C9187120490CFFF7F8FBFFF70AFF77
:103D4000300001F001F8FFF7D1FE002D07D0A023CD
:103D50008022DB05520000209A62FFF7F5FD00216A
:103D60007020FFF7E3FB30200349FFF7DFFBFFF78D
:103D7000F1FEF8BD1DA61400FEC1000010B5040040
:103D8000FFF7A6FEFFF7B2FE0020844200D003300A
:103D9000FFF7DAFD70200349FFF7C8FBFFF79CFF30
:103DA00010BDC046C3C3000070B590B004004022EF
:103DB0006846184911F0F6F9392C08D82F2C25D867
:103DC000232C25D00EAD2A2C09D010B070BD2300B5
:103DD000413B373C032BF8D8A4006C4425002888CD
:103DE0000D4C0E4E60430E498019FEF791FD81B2D5
:103DF0007120FFF79BFB6B8809495C43A019FEF714
:103E000087FD81B27220FFF791FBDEE7303CE3E7EC
:103E10000FADE4E7EC5101084C930100881300005A
:103E200010270000F0B5002485B01E000AAB1F88E3
:103E30000BAB1B880500019102920393A0421AD19B
:103E400005B0F0BDFFF7B0FFFFF784FE019B002B2C
:103E500002D00298002C06D02B5D30002A2B02D015
:103E6000232B00D0380000F06FFFFFF73FFE0398D0
:103E700000F06AFF0134285D0028E3D1E0E700008C
:103E800070B50D000400FFF731FEC2217020090259
:103E9000FFF74CFB80230B49ADB269435B02C918A5
:103EA0007120490CFFF742FB0020844200D0033010
:103EB000FFF74AFDFFF710FF322000F045FFFFF744
:103EC00049FE70BD1DA6140010B5042808D8FEF7E1
:103ED00001FD03080A0C0E0006495220FFF726FBDD
:103EE00010BD0549F9E70549F7E70549F5E707205A
:103EF0000449F3E78F8200008FA200008FC2000008
:103F00008FE200006F04000010B50020FFF7DCFF17
:103F100051200249FFF70AFB10BDC0464080000057
:103F200010B50420FFF7D0FF51200249FFF7FEFA39
:103F300010BDC0464090000010B56720FFF780FA22
:103F4000C005C00D10BD10B5FFF7F6FF4008A03842
:103F500000B210BD10B56420FFF772FA10BD00006A
:103F600070B506000D20FFF76BFA03B2DD430400C5
:103F7000ED0F002B07DB0E20FFF762FA034B240442
:103F80001C4004433460280070BDC0460000FF0799
:103F900070B5060069200D00FFF752FA0400030413
:103FA0000BD46A20FFF74CFA0C4B24030005000DDC
:103FB0001C4004430220346070BD6820FFF740FAC3
:103FC000030000201A04F7D40548DB04DB0C584337
:103FD0000449FEF727FD28800120EDE700F0FF00EF
:103FE000EB12000010270000912110B5322089004B
:103FF000FFF79CFA10BD000010B532200149FFF711
:1040000095FA10BD4502000010B5FFF791FCC021E4
:1040100051208900FFF78AFAFFF7B8FC10BD10B5F0
:10402000FFF7E4FD10BD10B5FFF7DEFFFFF7DEFD83
:1040300010BD10B50B20FFF703FA0005000F10BDEF
:1040400010B50C20FFF7FCF9800BC0B210BD10B505
:104050000C20FFF7F5F90005800F10BD70B50400C6
:104060001E2000F071FE80213F200902FFF75EFA5A
:1040700059201749FFF75AFA250068215920FFF700
:1040800055FA483521885F200234FFF74FFAAC42D9
:10409000F8D1142000F058FE59200E49FFF746FAD7
:1040A000C82401250C20FFF7CBF9284206D1013C9A
:1040B0000520E4B200F048FE002CF3D100210220DC
:1040C000FFF734FA1E2000F03FFEFFF795FD70BDAC
:1040D000688000006828000010B5FFF78DFD002102
:1040E0000220FFF723FA00213F20FFF71FFAFFF716
:1040F0004DFCC0213F208901FFF718FA59200449DF
:10410000FFF714FA59200349FFF710FA10BDC04613
:10411000684000006830000030B58BB02422194997
:1041200001A811F03FF80020FFF70EFC002501ACBC
:10413000618820780135FFF7F9F90434092DF7D1AA
:104140000024114A63005F20D15A0134FFF7EEF9D1
:10415000072CF6D1142000F0F7FD0C495920FFF789
:10416000E5F9B42000F0F0FD68215920FFF7DEF9F1
:1041700000217020FFF7DAF900215820FFF7D6F967
:104180000BB030BD2C520108025A0108680800002B
:1041900010B51B4B1B78012B2DD1FFF7A7FC00207E
:1041A000FFF7D2FBC32170200902FFF7BFF9FFF729
:1041B00093FD322000F0C8FD12497120FFF7B6F9D7
:1041C000FFF7C8FC502000F0BFFDFFF78FFC0E4941
:1041D0007120FFF7ABF9FFF7BDFC502000F0B4FDF4
:1041E000FFF784FC00217020FFF7A0F93020074979
:1041F000FFF79CF910BD022BFCD1FFF78DFFF9E70B
:10420000911B00201C3E0000D5340000FEC10000C0
:1042100070B505000C00FFF75BFCFFF767FC0020A2
:10422000854200D00330FFF78FFB07497020FFF76E
:104230007DF9FFF751FD322000F086FD2000FFF7E9
:10424000B3FDFFF787FC70BDC3C300000222064B1D
:1042500099681142FCD00122187399681142FCD070
:10426000D868C0B27047C0460038004010B504009E
:10427000000CC0B2FFF7EAFF200AC0B2FFF7E6FF6A
:10428000E0B2FFF7E3FF10BD70B5A0250826094C8A
:10429000ED050520AE62FFF7D9FFFF20FFF7D6FF3F
:1042A000AE61C00705D50A20013C00F075FD002C69
:1042B000EFD170BD40420F0070B5A0240825060064
:1042C000E405A5620620FFF7C1FFA561FFF7DCFF4B
:1042D000A5622020FFF7BAFF3000FFF7C7FFA561F6
:1042E000FFF7D2FF70BD0000F0B585B06B460390BC
:1042F00002921A7B8023A0255B0001919B1AED0599
:10430000029C9C4200D91C0008231E00AB620620C0
:10431000FFF79CFFAE610220AE62FFF797FF0398A4
:10432000FFF7A4FF019E37190F2C5CD94022012012
:10433000802730497F010B6893430B602E4B1A682E
:1043400082431A602D4A1668864316602C4E7760A9
:104350001F682C4E37401F601768374090263E4339
:104360001660294F294EDE609F605E68360C360469
:1043700026435E60019ED66097605668360C360410
:1043800026435660224EB446002667463E701F689C
:10439000023637431F601F6807431F6013680343DB
:1043A000136040224B68184348600B6813430B604E
:1043B0004B681E434E6063461B78002BFBD00823DE
:1043C000AB61FFF761FF039B1B190393019B1B1953
:1043D0000193029B1B1B02938023029A5B00002A1D
:1043E0008ED105B0F0BD30780136FFF72FFFBE4209
:1043F000F9D1E4E700380040440002405800024090
:10440000000002400F80FFFF0C380040090400202C
:1044100008040020F0B5A027082680210124344B91
:10442000FF058FB0BE61DA6BC9010A43DA63DA6B4C
:1044300004A80A400392039A9A6B002522439A63C8
:104440009A6B22400292029A5A6B22435A635B6B28
:1044500023400193019BFEF7C5FD022304A90593A8
:1044600038001B1906930996079508940494FEF7E3
:1044700067FD092304A93800023E04960993FEF75C
:104480005FFD1C4B1C4A996880201140A022D20479
:104490000A433F219A60DA68C0058A43C221164365
:1044A000164ADE60890053581B021B0A034353500F
:1044B00080231B01136004A8FEF7DAFD82235B0052
:1044C0000593033B0894FF3B0D4C0793FF33FF33E9
:1044D000200004A9099304950A950B950C95FEF705
:1044E00093FD40232268134323600FB0F0BDC04604
:1044F0000010024000000140FFFFFFC000E100E0AB
:1045000000380040F8B5A023150008220600DB059E
:1045100003209A620C00FFF799FE3000FFF7A6FE19
:104520000F2D08D86519AC424FD0FF20FFF78EFE43
:1045300020700134F7E7402101208027254A7F01C0
:1045400013688B431360244B196881431960234916
:104550000E6886430E60224E77601F68214E3740FA
:10456000B446842676013E431E6066460F68374097
:104570001D4E3E430E601D4EDC609E605C68240C48
:1045800024042C435C601A4CCC608E604C68240C74
:1045900024042C434C600024164D2C701E680234F9
:1045A00026431E601E6806431E600B6803430B60B3
:1045B000402153681843506013680B4313605368DD
:1045C0001C4354602B78002BFCD0A0230822DB0571
:1045D0009A61F8BD00380040440002405800024093
:1045E000000002400F80FFFF101000000C38004058
:1045F0000904002008040020F0B587B0059380234B
:104600000705040B3F0D5B01019002910392240307
:10461000DB1B039A002A01D107B0F0BD039D9D4228
:1046200000D91D00294E3368A34206D08022200005
:1046300027495201FFF766FF3460254E2A00BE1954
:104640003100029810F0B7FD002824D00023F25C5E
:10465000FF2A2ED101339D42F9D100232A003000D8
:104660000299049310F09EFD049B002B2AD0200099
:10467000FFF722FE059B164E002B1CD0EF193A00C7
:1046800031002000FFF730FE80225201FF21D21BB3
:10469000F01910F077FD019B00275B190193029B35
:1046A0005B190293039B5B1B039380235B01E4185C
:1046B000AFE70123D2E78022310020005201FFF74B
:1046C00013FEE8E72A0002990198F8E704000020A9
:1046D0000A04002010B5040B24032000FFF7ECFDB2
:1046E000054B1B68A34205D18022FF2103485201DC
:1046F00010F048FD10BDC046040000200A04002050
:104700008020144980010B6810B5034221D0022497
:10471000114B1A6822421CD01A68A2431A60C022A8
:104720000E4B4860520199681142FCD18022996871
:104730001142FCD1C022D20099681142FCD1022161
:104740005A688A435A605A6801398A435A60044B4E
:10475000197010BD000002404400024000380040C3
:104760000804002070B540262025094C0120A661D0
:1047700000F012FBA561012000F00EFBA6620120F3
:1047800000F00AFBA562012000F006FB70BDC046E8
:104790000014005070B540252026094C0120A56268
:1047A00000F0FAFAA662012000F0F6FAA6610120F4
:1047B00000F0F2FAA561012000F0EEFA70BDC046EB
:1047C00000140050F7B5234C234A2368019013408E
:1047D0002360082300252027012600933000A762CC
:1047E00000F0DAFA3000A76100F0D6FA300000F0ED
:1047F000D3FA23696D00EDB25B0600D53543300076
:10480000A76200F0C9FA009B013BDBB20093002BCA
:10481000E4D12268104B01201A4080235B0113432E
:104820002360A76200F0B8FA019A4023002A0ED054
:10483000A3612026012000F0AFFAA661012000F05C
:10484000ABFAA662012000F0A7FA2800FEBDA36221
:10485000EFE7C04600140050FFCFFFFFF8B520235C
:10486000254C0500A362012000F096FA08266BB2E1
:10487000002B3BDB4023A3622027012000F08CFAB1
:10488000013E0120A76100F087FA6D000120A762B8
:10489000F6B200F081FAEDB2002EE8D1402523688F
:1048A000164E012033402360A56100F075FA012007
:1048B000A76100F071FAFF232269110029402A4202
:1048C00017D0013BDBB2002BF6D101256D4220232E
:1048D000A362012000F060FA802322685B0132406D
:1048E0001343236040232800A361F8BD4023A36144
:1048F000C2E70D00EBE7C04600140050FFCFFFFFFA
:1049000070B504000D0000266A1EB2420EDC2B00BA
:10491000591E8B415B4213400120E41800F03CFA21
:104920000120FFF74FFF2070280070BD012000F02C
:1049300033FA0020FFF746FFA0550136E4E770B5D3
:1049400004004518AC4201D1002070BD2078FFF76B
:1049500085FF01340028F5DA01204042F5E7000028
:104960007823F7B500251F4EB361002408232700E4
:104970000193012000F010FA3A00F02733693F025A
:104980001F40974220D10134032C1ED18022802168
:10499000120209021A400B421ED05A041ED59A0474
:1049A0001ED5DB0405D4104BAA009B18185D1328F4
:1049B00011D10135052D0DD078230722B361521B8B
:1049C000773B9340B362D0E70124019B013B019305
:1049D000002BCED11320FEBD1400E4E70124E2E752
:1049E0000224E0E700040050105A01080222054B9F
:1049F00099681142FCD00122187399681142FCD0C9
:104A0000DB6870470030014070B51D0004AB002426
:104A10001C5F431A601B5843511AFEF703F84019F4
:104A200000B270BD70B5124CC001241825000C20D6
:104A300036352600287012253736357042363570E7
:104A400025007A352870581A8001511AFDF7EAFFBF
:104A5000212538232D263830C0B2DAB22900904201
:104A600000D33100E1540133792BF6D170BDC0463B
:104A70000E1400207047A02340225039DB0510B5EA
:104A80009A620400C8B2FFF7B1FF1020230918434F
:104A9000FFF7ACFF0F202040FFF7A8FF10BDF8B5CF
:104AA00014000430C0B21D00FFF7E5FFA023402230
:104AB0002600DB059A612F19BE4200D1F8BDE8B28D
:104AC000002C00D03078FFF791FF0136F4E70000AA
:104AD00070B50425034CC9B2A562C0B2FFF7DFFF71
:104AE000A56170BD00040050042370B505000024CA
:104AF000064EB3620022E1B22B0010000134FFF732
:104B0000CEFF082CF6D10423B36170BD0004005021
:104B1000A023402210B5DB059A62FFF767FF10BDA6
:104B2000F8B50423124E0400B3624020FFF7F0FFF3
:104B3000104A002C07D0104B01251F00072C0AD863
:104B4000621ED201D218802321000020FFF7A7FFA8
:104B50000423B361F8BD290001353A008023002009
:104B6000EDB2FFF79CFF8037082DF4D1F0E7C04687
:104B7000000400508E1700200E14002010B50820ED
:104B8000FFF7CEFF10BD10B50130C0B2FFF7C8FF70
:104B900010BD10B50020FFF7C3FF10BD10B50328EE
:104BA00004D0072809D0074B185C03E0064B18789F
:104BB000A6231843FFF7ACFF10BD044B187815303F
:104BC000C0B2F7E70A0000203D1B00208E00002045
:104BD000042370B50024064DAB6220000134E4B21A
:104BE000FFF7DCFF0B2CF8D10423AB6170BDC0468E
:104BF000000400500422074B10B5E2209A62FFF730
:104C000087FF002420000134E4B2FFF7C7FF082C1F
:104C1000F8D110BD00040050802170B501253E4B35
:104C200049011A6C8CB00A431A641A6C02A80A4033
:104C30000192019A5A6B00242A435A635B6B022645
:104C40002B400093009BFEF7CDF90323A020049393
:104C500002A91D33C0050293069503960794059497
:104C6000FEF76EF9A020802302A9C00502930694E6
:104C7000FEF766F902A8FEF7FBF982235B000393B7
:104C80000695FC33254D0793D93BFF3B280002A92D
:104C9000089302940494059609940A94FEF7B4F9D3
:104CA00040232A68E22013432B6004231C4DAB628F
:104CB000FFF72EFF782000F047F820000134E4B21F
:104CC000FFF76CFF082CF8D12B20FFF721FF012004
:104CD00000F03AF82E20FFF71BFF012000F034F817
:104CE0002F20FFF715FF2F20FFF712FF2F20FFF7D0
:104CF0000FFF2F20FFF70CFF282000F025F84020A1
:104D0000FFF706FFAF20FFF703FF04230020AB618E
:104D1000FFF7EAFE0CB070BD001002400030014009
:104D20000004005070B50425064C2820A562FFF74A
:104D3000EFFE4020FFF7ECFEAE20FFF7E9FEA56195
:104D400070BDC04600040050FA2310B59B005843C4
:104D500000F022F810BD0000C0200B490B4B0C4A9C
:104D60004B60136A00061B021B0A034313620023F5
:104D70008B6007330B603021064B1960136A1B02EE
:104D80001B0A13627047C04610E000E0FF520700A4
:104D900000ED00E0101800200A4B70B51B680A4CAB
:104DA000584300236668A168A2689142FCD0B51AF6
:104DB000914200D95542CB185B19984200D870BD7A
:104DC0001100F1E71018002010E000E0084B1A680D
:104DD000283213780133DBB2072B00D9012313707B
:104DE0000122044B1A70044A044B12781A7070475F
:104DF000541B0020EA180020C51C0020C40000201D
:104E00000122064B1A70064B1A68333213780133AD
:104E1000DBB2032B00D1002313707047EA18002087
:104E2000541B002001230549CA7D5A40CA75044A13
:104E30001370044A1370044A137070475C1B0020FF
:104E4000E9180020EE180020001900200123024A72
:104E500011784B4013707047361B00200123044A21
:104E600011784B4013700222024B1A707047C046F3
:104E7000211B0020ED1800200123044A11784B402B
:104E800013700222024B1A707047C046201B00208C
:104E9000ED180020064910B50B78002B03D0054A09
:104EA000054B1278DA7700230B70FEF759FA10BD24
:104EB000BC180020BA1800205D1B0020012110B58D
:104EC000134C05202378594021704B4259410F2340
:104ED00049421940A1231B01C9180BF09CFA002379
:104EE00021780C4A994202D1130071331B781100CA
:104EF00070310B70723211781B011943B0231B0201
:104F000019434820FEF712FB0122034B1A7010BD13
:104F1000BB1800205C1B00200019002010B5174BA7
:104F20001B78022B08D006F029F9012006F0D6F9EB
:104F3000022000F0BBFB10BD0022114B1A70114B78
:104F40001B785BB2934208D00F4B19880F4B198026
:104F50000F4B1A700F4B01321A70012006F0BEF988
:104F60000D4B0E4C1B78002B04D00BF003FF0323DA
:104F70002370E0E70A4B1B78FAE7C0468A18002046
:104F80001C1B00204218002060690108F618002050
:104F900086000020401800205B220020C400002072
:104FA000C51C002070B5114B1B78013B012B10D99B
:104FB00000240F4B0F4D1C700F4B1B78A34209D0E0
:104FC0000BF094FB01220D4B2C701A700C4B4F32DE
:104FD0001A8070BD0B4A137006F0D0F8012006F05D
:104FE0007DF90BF0C7FE03232B70F2E78A1800202F
:104FF000741C0020C40000205B220020EE1800205A
:10500000DC1800201C1B002010B5134C0320236863
:1050100033331978012912D005F0AEF9011E11D0F1
:1050200022682C3211784B424B410020DBB21370C6
:10503000814201D1094A10780021C018C0B2FEF7A0
:1050400059FC10BD064B1A682C3213785842434164
:10505000D8B21070F3E7C046501B0020381B002068
:10506000541B00200B4BDA7C002A02D01B7D002B46
:105070000ED10322084B01211A700022074B1A702F
:10508000074B1970074B1B788B4201D0064B1A70E7
:105090007047C0465C1B0020F4180020741C0020E0
:1050A000E7180020C51C0020C40000203F4B70B54D
:1050B0001B780400002B2DD005F05EF9051E0BD1E6
:1050C000032009F04DFF3A4B1D703A4B1B7859B243
:1050D000002B02D00BF020FC70BD374A374B384D07
:1050E000002C13D00120197010700BF02BFB287CC2
:1050F0008007800F0BF040FA050028000BF02EFA15
:105100002200012128000BF02BFBE5E714701C7036
:10511000ED89F2E704F0D0FA041EDDD10025244B1E
:1051200014221870274B21001870274810F02AF815
:1051300006F024F8200009F013FF244E7557002DC7
:105140001DD0234B1B78C72B02D902F091F8C3E77F
:10515000204D0621E87F0130FDF74AFDE97707F091
:1051600093FB00212000715601F0B6FF01221A4B7B
:105170001A801A4B1C700122194B1A70ACE7194B9C
:105180000F4C1B685A1E9341174A0133137007F0E6
:105190007BFB0121080001F09FFF0121A379134A45
:1051A00001330B40D554124B1D70E4E75B22002005
:1051B0001C1B0020572200205622002055220020D0
:1051C0005C1B0020441800204518002042180020D5
:1051D000D31800205F1B0020F61800208600002056
:1051E000001900203C180020881B0020FB1800201C
:1051F0001819002010B50120FFF758FF10BD00005E
:1052000070B5264B1B78002B1DD1254C2378002B25
:1052100019D00125234B1D7012280CD1002A0AD168
:10522000002908D0204B1D70204B1A70204A13789B
:10523000002B01D1237070BD2D21013BDBB2137017
:105240001C4AD154F7E711281BD0122804D00A2891
:105250001BD00020002303E0174B18481B78007870
:10526000002A15D10029E6D101250F4C2570002A0E
:1052700011D1002900D00300114A9B009B58984788
:10528000D9E7104B10481B78E9E7104B187CE1E791
:105290000029D0D0E8E70029EDD1CCE7C51C0020DB
:1052A0005A180020F118002089180020C40000209E
:1052B0005B1800205C180020931B0020941B00202A
:1052C00018000020951B0020961B00205B1C00206E
:1052D0000022044B1A70044B01321A70034B1A70EF
:1052E0007047C046331B0020EE1800200019002034
:1052F0000A4910B50A780A4B002A08D15A7F504251
:1053000042415A7701230B70FFF7E2FF10BD9A7FED
:10531000504242419A770023F5E7C0461718002013
:105320005C1B00200B4970B50B780B4C0B4A0C48EA
:10533000002B0AD1557F53772570947F047001208C
:1053400093770870FFF7C4FF70BD23785377037815
:105350000020F5E716180020151800205C1B00201F
:10536000141800200E4910B50A780E4B002A0AD1F5
:105370000133D87F0C4A10703D22DA7701230B707D
:10538000FDF7EEFF10BD1900084AFF31897C127845
:105390000133914202D10022DA77F1E73D22FBE7A7
:1053A000BC1800205C1B0020BA180020B91800208F
:1053B00010B50F4A0F48937959424B410021DBB297
:1053C00093718B4200D048317431521802600A4AFE
:1053D0001378002B03D101331370084A1370002097
:1053E00005F07CFF064B1A88064B1A8010BDC0469C
:1053F0005C1B0020501B0020181900200019002001
:10540000626901081A190020F7B5664B664A0093D5
:105410001B780192002B3DD113785BB2002B0AD090
:10542000624B1B783833DBB2062B04D8604B1B78F9
:10543000002B2FD0F7BD5F4F3B78012B1DD09A1E5C
:10544000012A03D85C4A1278002A37D1584A01242D
:1054500012785A4E002A03D03278002A30D0002425
:105460003378574D002B00D08CE0002C00D089E021
:105470002B78002B65D12C70DCE7524A1278002A79
:10548000E4D0514A1278002AE0D100224D4B1A7024
:10549000494B1A70012005F021FF01224B4B1A7075
:1054A000019B1B785BB2002BC4D0494BDA7F502A9A
:1054B000C0D8002A6DD101F0DBFEBBE7454AE1E729
:1054C000012B27D019D9023B012BC8D8424B1978A0
:1054D000394B00292DD041490978012929D11A7069
:1054E0003F4D2B78002BBAD0FEF7B1FD441E63422E
:1054F0005C41002364002B70B2E73A4B5B7C002BCD
:10550000ADD0374B1B78002BA9D00022344B02249E
:105510001A70A5E7344908782A49002801D00A7092
:10552000EFE70A78002AECD10B70274B64321A702F
:10553000E7E71A78002AD3D101321A70254B63327B
:10554000CDE7284BDB7E002B95D03B78023B012B2F
:1055500091D8FEF77CFD01288DD1224BDB7E002BFC
:1055600000D167E7A0238022DB0552009A621F4B1F
:10557000EC3A1A800023009A1370012232701C4A00
:10558000137057E700232B70012C83D0022CE4D03A
:1055900050E719235343174A13800022164B1A7001
:1055A00048E7C046BF18002042180020D31800204A
:1055B000D8180020481B0020FE180020FD180020ED
:1055C000C0180020FF180020C4180020C9180020AF
:1055D0005E1B0020C5180020E3180020E218002000
:1055E000E01800205C1B0020E118002008190020B2
:1055F00005190020F618002086000020194B10B570
:105600001B78002B0FD0184A184B12781B7852B217
:10561000002A1CD1164A527F002A05D1032B02D042
:10562000032004F0C7FF10BD124A1278002AF5D1FA
:10563000114908881149088011490A7011490A70F6
:105640000121114A117001210A4A1170E6E7094A45
:105650001278002AE2D10D4908880D4908800D49C9
:105660000A70F0E7D8180020421800208A1800209D
:105670005C1B0020D2180020686901081A1900205C
:105680008A00002018190020001900205C69010818
:10569000F618002086000020034B10B51B78002B65
:1056A00001D1FFF7ABFF10BD04040020F7B5E122E4
:1056B000354B364C364E01905201A5791A8033781D
:1056C000002B01D00AF0C0FE6A4255410022314B46
:1056D0005A55A0230132DB05FF329A612E4BFF3A67
:1056E0001A702E4B1B789B0701D5FDF739FE00235E
:1056F0002B4F2C4DFB56002B28D1637F002B2CD138
:10570000230070331B78723421781B011943B023B6
:105710001B0219434820FDF709FF234B1B68333355
:10572000187805F0DDFE019804F044FF019B022B80
:1057300002D03378002B23D01C4B1B78012B02D0D6
:10574000002009F00DFC01232B70F7BD01F054FD82
:105750000023FB56002BD3D1CFE7154B1A88154BEE
:105760001A800022144B1A70A37F934202D1134B6C
:1057700001321A700022124B1A7001232B70BFE7FE
:105780000122104B1A70DEE70C1900205C1B002070
:105790005B220020FB18002005190020411B00207F
:1057A0004218002000190020501B0020C51C0020BA
:1057B000666901081A1900208A000020D11800200B
:1057C00018190020C91800201D4B10B518780028A2
:1057D00009D11C4B1B78002B04D004F0EBFE0122F6
:1057E000194B1A7010BD194B1A78194B1B781343BB
:1057F00059424B411749DBB20978002905D0012AEB
:1058000003D10020144B18700B00144909780029AB
:1058100012D01349097801290ED1023A012A0BD876
:105820000022104B1A70104B04201B78002B00D064
:105830000238FFF73BFFD5E7002BF4D1D2E7C04693
:10584000D81800208A180020C9180020481B002002
:1058500042180020E1180020FF180020E318002063
:10586000E2180020FE1800201C1B002070B51C0050
:10587000838B16005943026805008818190004F04C
:105880005DFCA04206D8B04203D2A98B601A04F096
:1058900055FC70BD3000FCE7030010B530331C78B8
:1058A000034AE40013195B68A258FFF7DFFF10BD3D
:1058B0007868010810B505F075FF0122044B1A70D5
:1058C000044B1B78002B01D0034B1A7010BDC0464F
:1058D000D41800201C1B0020EE180020154B10B51A
:1058E0001B78002B03D1144B1B78002B0AD001F03E
:1058F0000DFE0222114B1A700022114B1A70114B2F
:1059000001321A701048114A03781149002B03D153
:1059100013780C7823430BD00023137002220370FA
:105920000B70064B1A700B4B013A1A70054B1A702C
:1059300010BDC0465A1800205B18002089180020AE
:10594000C4000020C91800200A14002004190020F7
:10595000741C002000190020F0B5854B04001B7852
:105960000D00160085B0002B00D180E0002978D012
:10597000102800D08BE0FDF7F3FC10247D4B029340
:105980001B78052B02D1002004F014FE7A4B1A88F4
:105990007A4B1A807A4B00937A4B1978002903D0FE
:1059A0001E224A43784B1A70002D00D071E0774FC9
:1059B0003B78002B02D006F08BFC3D70744F3B7897
:1059C000002B03D006F0A2FC00233B70714F3B7804
:1059D000002B03D006F050FC00233B706E4F3B7849
:1059E000002B13D06D4B1A68009B907FD97901234F
:1059F00006F0CEFE00233B7003F05EFE002805D1CA
:105A0000674B1A78002A01D101321A70654B1A7857
:105A100000239A4207D0644A12789A4203D1634B1A
:105A20001B785A425341564A61490092D27C097808
:105A30001A43002966D0002A03D0029A1278012A5C
:105A400068D1092C02D90F2C00D0CBE0594B1B7820
:105A5000002B00D180E1002D19D0002E17D102209B
:105A600064E0FDF77DFC102C87D0132486E70D2819
:105A700084D1FDF7FFFB071E00D07FE74E4BDB7F95
:105A8000002B00D17AE7FDF76BFC4C4B1F7005B083
:105A9000F0BD08F061FA454F102C03D1484B1B783C
:105AA000DB0726D53B78012B04D1132804D0153809
:105AB000012801D9FDF754FC0D2C1AD1002E18D065
:105AC00040480378002B09D0142200210FF05AFB24
:105AD00000223D4B1A703D4B01321A70FFF7FEFE5B
:105AE0003B4B1B78002B01D0FFF718FA0022394BF3
:105AF0001A603B78012B00D088E7374A374B127881
:105B00001A8083E7002A9CD0029A1278012A98D042
:105B1000102C6AD00D2C0CD1002DB8D0002B00D148
:105B20004BE20120204B1870284B187004F040F80D
:105B3000ADE70F2C0ED1002DA9D0002E00D085E7A7
:105B4000022004F035F80422254B1A7001221F4B65
:105B50001A709CE72300113B012B00D8FCE00A2CB3
:105B600000D027E2002E00D0F6E0002DE8D08EE72E
:105B7000401B00208A180020586901088C00002072
:105B80005C1B00208E1B0020031900201C18002025
:105B90001B180020E41800201A180020541B0020B5
:105BA000ED1800209318002092180020C51C00203A
:105BB0003B1B0020F81800205D1B002089180020E6
:105BC000411B00204518002044180020C91800205F
:105BD0001C1B00203C18002078690108F2180020E6
:105BE000EF180020102C00D0B6E0BF4A1378002B2D
:105BF00004D03300002D01D101231570BB4A117868
:105C0000002908D0102C01D00D2C04D10021012036
:105C10001170B7490870B7490391B7490191002B3A
:105C20000FD1029B1B78012B00D00AE1B34B1B78EC
:105C3000002B00D0CAE0102C00D08FE0280001F02B
:105C40003BFD039B1878002804D003F0B1FF00232C
:105C5000039A1370AA4CAB4A23780292002B0AD005
:105C6000A94AAA4B12781A8002F0C6FC0123029AB4
:105C7000137000232370A64C2378002B09D0002E2C
:105C800000D010E106F042FB002301222370984B64
:105C90001A70A04B1A78002A06D000221A70964279
:105CA00000D004E106F0E8FA9B4B1A78002A06D0EF
:105CB00000221A70964200D0FDE006F009FB974FD3
:105CC000974C3B78002B18D0002E00D0F7E0002D29
:105CD00000D0F4E0934B00991A68C9793B78907F23
:105CE00006F056FD03F0E8FC002804D12378002BD1
:105CF00001D10133237000233B7021788A4D0029A4
:105D000000D12FE1894E3378002B00D1E9E000204B
:105D100005F050F80120217805F04CF8019B1B7824
:105D2000FF2B02D10023019A137001232B70002353
:105D30002370337005F022FA012005F0CFFA00221B
:105D40007B4B2A701A705A707A4B1B78934200D1A1
:105D50000CE1FFF7E3F809E1774A47E7FE27112C4A
:105D600006D0200001F0C2FB0700FF2800D168E741
:105D7000002D0CD1A0238022DB0552009A626F4BCC
:105D800028001D70FDF790FFFDF756FE59E7002E25
:105D900000D056E7009B6C331B78002B07D0A02364
:105DA0008022DB0552009A61644BFF3A1A70FDF7BE
:105DB00043FE009B6C331878FE2F03D16049FEF739
:105DC0005FF83EE73900FEF723FA3AE7002E00D0ED
:105DD000E9E0002D00D134E7A02280210027D20580
:105DE00049009162554A177002229343012B01D159
:105DF00005F0D8FC5022414B05201F70514B1A80F2
:105E0000FEF7A2FF012005F069FA4F4B1B78012B2A
:105E100001D0019B1F70009B3633187800280BD1EE
:105E200004F0C8FB0123304A102C03D0424A002E54
:105E300000D006E7137004E70A224243434B1A706E
:105E4000F0E723001278113BDBB2002A0BD0012BC4
:105E50000BD83D4A3E4B127892009B5829003200E5
:105E600020009847EDE6012B06D9374B1B78FF2B16
:105E700002D0374A9B00F0E703F01EFC002809D14E
:105E8000314B1B78042B05D0320029002000FFF78E
:105E9000B7F9D6E6002E00D0D3E6002D00D1D0E62B
:105EA0000223039AC6E701222A4B1A70ECE601226C
:105EB000294B1A70F8E60122284B1A70FFE608F009
:105EC0004BF8002800D005E73A78254B511E8A414F
:105ED0001A70019B1B78FF2B00D00CE7019B1870F8
:105EE00009E7009BD87917E7F01800200A14002072
:105EF0000019002089180020C4000020F418002098
:105F0000E6180020E518002078690108F218002042
:105F1000E9180020E8180020EB180020EA180020FB
:105F2000ED180020541B0020EE180020EC18002073
:105F3000FB1800201C1B0020F11800200519002070
:105F4000D6060000DC180020C51C00200219002025
:105F5000700000201B180020E41800201C180020EE
:105F60001A1800202B78002B00D0E3E6029B1B7848
:105F7000002B08D00023029A1370124A124B127899
:105F80001A8002F017FE114C2378002B03D005F085
:105F900055FB00232370019B187808F0E1FFFF23D5
:105FA000019A1370D2E5032B00D04AE6002D00D0F1
:105FB00047E611E7002D00D169E5002E00D066E527
:105FC000BEE5C04678690108F2180020E7180020F5
:105FD000F7B5012009F07AFF002802D001200AF06D
:105FE00037F8AE4D2B78012B00D089E0AC4E3378DA
:105FF000002B38D1AB4B1B78002B34D1AA4B1A782D
:10600000002A03D1A74A1278002A79D000221A70F8
:10601000A64B1A88A64B002A03D15A1CD27F3D2AD0
:1060200003D1FF33987CFDF72BF9C8220024A14B44
:10603000920034701A80A04B1B78A34208D09F4E68
:106040003378012B00D07FE102333370FEF7D2FDAD
:10605000FFF730FC082003F0ABFD042005F0C8FA80
:1060600008F070FF4CE0964F964C3B78012B0FD90F
:1060700095492268C97F8E4B002927D1002A01D07B
:10608000FA2A05D18023914A9B0151694B40536103
:1060900023683A7801332360032A26D18A4AD27FC3
:1060A000002A20D08A4A934226D900232360FDF794
:1060B000C3FC01237F4C1A0020881E2180B2FDF70B
:1060C00013FE238864339BB2238015E0002A04D199
:1060D000FF33987CFDF7D4F8DAE77E498A42D7D1BE
:1060E000FF33587CF6E77C4ADDE77C498B4203D9D5
:1060F00000232360012ADAD02B78012B00D17DE721
:10610000774B1B78002B00D0C6E02B78012B03D0F7
:10611000744A9B009B589847734E3378002B04D0E9
:10612000724B1B78002B00D0B6E003F0C5FA0028B4
:106130000ED16F4B1B785BB2002B09D06D4B1B78D7
:10614000002B05D06C4B1B78002B01D101F01EF801
:1061500003F0B2FA564C00282AD1637F002B27D0D7
:10616000664B01931B78002B22D0614B1B785BB2EE
:10617000002B1DD1604B1B78002B19D12B78052BE0
:1061800016D03378002B13D1FFF712F95C4F3B7810
:10619000002B05D05B4B1878002801D108F0E0FEF9
:1061A0000023594A3B701370584A1370019A1370B8
:1061B000574B01931B78002B0BD0564B1B78002BB1
:1061C00007D004F0D9F8071E03D10AF079FD019B2E
:1061D0001F70E37D002B09D04F4B504A1B88002BCA
:1061E00000D0C0E01388002B00D1C0E04C4F3B78BA
:1061F000002B1ED0404B1B78002B14D1494B1B7831
:10620000002B10D1E37F002B0DD0474B1B78002BC8
:1062100009D1374B3B4A1B781278134303D13378AB
:10622000002B00D104E1414B1A88414B1A80002316
:106230003B70404B01931B78002B2DD02B78052B06
:106240002AD13D4F3D4D3B78002B00D1F4E0FDF7C6
:106250001DFDE37D002B05D02300FE33998958896D
:10626000FDF724FB637F002B0CD0214B1B785BB226
:10627000002B07D12C4B1C78002C03D1FFF798F88A
:106280002F4B1C7004F084F82E4B1B882B800023AE
:106290003B700023019A1370F7BDC0468A18002096
:1062A0000E190020171900201219002002030020E7
:1062B0005C1B002088000020361B0020B81800203E
:1062C0003E1B0020B41800205D1B00200008005079
:1062D00010210100983A000098340100E0280100E4
:1062E000FA180020245A01085B2200205A220020BC
:1062F0004218002086000020CF1800208A000020CD
:10630000D1180020C51C002040180020D218002001
:10631000BE18002057220020DC180020DA180020C8
:106320001C190020D0180020F81800205869010816
:106330008C0000201D190020040400208C1800206F
:106340001918002056690108022B00D07EE62200B1
:1063500021001020FFF700FB01224F4B34701C700E
:106360004E4B1A7072E600214D4B11801970337834
:10637000002B00D03AE72A78FD33911E194200D154
:1063800034E7484B1B785BB2002B00D02EE7444B20
:106390001978454B1878002832D0444800291DD080
:1063A000434909880180012A00D01FE73A4A127840
:1063B000002A00D01AE71B78002B00D016E73D4FCB
:1063C0003B78002B10D0002004F0F4F801223A4B67
:1063D0001A703A4B1A7000233B7007E7018888B2A5
:1063E0000029E0D11870DEE7FFF764FA23003633A6
:1063F00019780029E7D00A224A43314B1A70E5E7A1
:10640000002900D1F2E601211970052A01D104F01A
:10641000D1F82B78012B00D1E8E62A4B1B78002B12
:1064200000D0E3E605F00AF90122244B1A70DDE6FC
:10643000052004F0BFF8FAE6637F234E002B0BD053
:10644000184B1B785BB2002B06D1204B1B78002B1E
:1064500002D13378002B16D01D4BE27F1B78002B26
:106460000FD0C823534300242B80012334703B708A
:10647000FDF71CFBFDF776FB21002000FDF7AEF9D0
:1064800007E70A23EEE7FEF793FF124B1B882B80EA
:1064900001233370FDE6C046CF180020F11800201C
:1064A000DF18002042180020DE180020C21800204B
:1064B00052690108D418002000190020C9180020D2
:1064C000021900201719002019180020F8180020C0
:1064D000401B002056690108F0B50024BB4B85B075
:1064E0001C70BB4B200002931B88029A01339BB2A5
:1064F000138009F0EBFCA04202D0200009F0A8FDB7
:10650000B44B1B78002B00D05DE1B34B01931B789B
:10651000052B03D1B14B1B78002B17D103F0CCF81E
:106520000125002800D13FE1019B1B78012B0DD1F3
:10653000AB4B1B78002B09D0029B1A88A94B534305
:10654000A94A9BB2934201D806F0E0FCA74CA84DA3
:1065500023782E78002B00D1A6E20023237008F0C8
:10656000F1FC002E01D008F093FB00200DF0E4F9BF
:10657000A04E3378002B04D09F4B1B78002B00D00B
:1065800021E10AF091FF9D4A1388002B01D0013BC5
:1065900013809B4A1388002B01D0013B1380019B81
:1065A0001F78012F0CD1974B1878002808D001389C
:1065B000C0B21870002803D103F0FCFF2F702770C1
:1065C0003378002B0DD0904A1388002B09D0013B63
:1065D0009BB21380002B04D10AF0CCFB032008F0FF
:1065E000BFFC03F0FFF9894C2378042B00D1E2E0D3
:1065F0008022874B87491878D200874B002800D12A
:10660000CBE10869104200D04FE1844A84481278F7
:106610000478224300D048E119780131C9B21970D9
:10662000022900D858E17F491A700A7001217E4B77
:10663000017019701020FFF78FF94DE10021022041
:10664000FCF774FF0220FCF7FBFE08230404240E71
:1066500006001C4226D0FDF7ECFC00F047FF03903B
:10666000FF281FD0019B1B78012B1BD06F4B1B7881
:10667000002B17D06E4F3800FCF718FB02001328D0
:1066800004D138006B490EF06BFD1222039BBB5402
:106690000023BF18684A7B701278684B1A70012279
:1066A000524B1A70630701D5654B1D702C4205D003
:1066B000644B1D70FDF7C4FC634B1870A30702D533
:1066C0000022604B1A70F7B2730601D55F4B1D7044
:1066D000360602D500225D4B1A70FB062BD50A2226
:1066E0005B4B1D70464B1A805A4BDA7D002A22D034
:1066F000019A1278052A09D1384A1278002A05D160
:10670000554908885549088055490A705B7F002B18
:1067100011D0544A544B10781988544B002802D198
:106720001888884207D2198000231370504A1370CA
:1067300001222F4B1A70BB0604D50022444B1A705D
:106740002F4B1A807B0709D54A4B012105201D706C
:10675000FDF744F8E122484B52011A8008231F42FA
:1067600005D00021434B05201970FDF737F8E406EA
:106770001AD5264B1C78042C16D1404B1B78012BC4
:1067800012D13F4B1B78002B0ED13E4B5F201E7861
:10679000013C721C1A70FCF753FE3B4B7600985379
:1067A000002CF2D10AF068FC0C20FCF749FE2842CC
:1067B00000D043E7B8E6314D2B78012B66D02B781B
:1067C000002B00D114E705B0F0BDC046C61800206C
:1067D000D6180020FA1800208A180020040400208F
:1067E0001F1B0020EFEEFFFF11110000C918002051
:1067F000001900205B2200205A220020DC18002013
:10680000DA1800200219002052220020C51C0020A6
:10681000361B002000040050CE180020171900205D
:10682000B8180020BD180020CF1800201E1B002023
:1068300045180020461800207569010844180020FA
:10684000E0180020E3180020E2180020E1180020E2
:10685000DF1800205C1B0020546901088C18002000
:106860001D1900208A000020646901081A190020FF
:1068700018190020D81800200C190020D22200205E
:10688000CC220020CA18002084220020884B1B78CC
:10689000012B98D10AF096FB002801D108F052FB99
:1068A0002378042B00D18AE7A2E60A69520503D4B3
:1068B000804A1278002A2CD07F480278012A28D1F9
:1068C0001A780132D2B21A70022A03D8794B1B7897
:1068D000002B01D002230370FEF742F804001328B6
:1068E00002D00022754B1A70754E764D33789C425B
:1068F00000D18AE0132B08D0132C06D0724B002154
:106900001A78724B1878FFF727F8002334702B8021
:1069100059E780220869D200104212D1654C2078D4
:1069200000280ED164480578022D0AD11A78013268
:10693000D2B21A70022A02D82378002BCCD00323BB
:10694000C9E70969114203D15A4A1278002A21D0B5
:10695000594C2278032A1DD11A780132D2B21A700A
:10696000022A03D8534B1B78002BB5D000221020ED
:106970001100FEF7F1FF0022554B1A70534B1B78A4
:10698000132B02D0534B01321A7000232370FEF7F1
:1069900031F9A1E700221A709EE74D4C0969207871
:1069A00000281ED0114203D1424A1278002AF1D0A9
:1069B0001A780132D2B21A70022A03D83D4B1B78E2
:1069C000002B89D0002210201100FEF7C5FF002304
:1069D00023703E4B1B78132BD9D001223D4B1A70EC
:1069E000D5E71142D6D1334A1178CAB20029D1D1A4
:1069F00019780131C9B21970022900D86CE72F4902
:106A00001A700A700121217014E62888324B013077
:106A10001B8880B22880834215D12C4D2A4E132C1E
:106A20000AD12878132804D000213278FEF794FF89
:106A30002C7000233370C6E60022012120002C7048
:106A4000FEF78AFFF5E7254B1E88B04200D2BAE672
:106A5000132C00D1B7E6B0420AD1102C00D1B2E617
:106A60000121194B0A0020001970FEF775FFAAE6F4
:106A700023000B3BDBB2012B0ED80127124B1F70FA
:106A8000174B1988FBF7CAFF89B2002904D13A00D5
:106A900039002000FEF760FF2A88124B9A4200D08E
:106AA00091E601362E808EE6002E00D160E55AE593
:106AB000CC22002017190020B8180020BD18002093
:106AC000090000200C140020D0180020080000202D
:106AD000CF180020F11800206E69010872690108C2
:106AE00070690108FFFF00000022F0B58A4B85B0F5
:106AF0001A708A4A1378002B07D0013BDBB213705F
:106B0000002B02D10122864B1A70864A1378002B83
:106B10001AD0013BDBB21370002B15D1824B1B68DE
:106B20009B7FC72B0ED8814B1B78013B012B09D8CB
:106B300001F0E4F87E4B1878022801D103F038F810
:106B400005F0C6FBFEF7CAFE7A4B1978002914D06F
:106B5000794A1278052A01D0002A0ED10139C9B22A
:106B60001970002909D175480378002B05D014222B
:106B70000EF008FB01226A4B1A70714B01931B88BF
:106B8000002B75D100236F4A02931378002B00D09D
:106B90007CE06D4E3388002B00D080E078236B4F73
:106BA0006B4C397822884B436A4D9A4210D12B782E
:106BB000002B0DD0FEF70CF800210620FCF70EFE8E
:106BC0000A22654BDB7F5343644A138000232B70FA
:106BD000634B03931B78012B00D198E003F0CCFBAF
:106BE000002800D093E05F4B1B78042B00D18EE08F
:106BF0002088002800D179E0013880B22080002868
:106C000000D073E00122554B30801A802A70FCF7C7
:106C100037FBFEF787F82B78002B0BD00322524B63
:106C2000062019780131114019704B425941C9B2FF
:106C3000FCF7D4FD4D4B1C78002C00D1ACE04C4C43
:106C40004C4D2100280003F0ABF9FA2322885B00A9
:106C50009A4204D8484BDA882B889A421DD2BFF357
:106C60004F8F464B464ADA60BFF34F8FC046FDE771
:106C7000019A013B9BB21380002B00D082E7394B75
:106C80001B78013B5A425341DBB27CE7013B137056
:106C90003C4B1B78002B00D17BE705B0F0BD3A4B95
:106CA0001B78002B00D079E7384B1B78002B00D0E5
:106CB00074E72C4B1B78012B0ED03388013B9BB221
:106CC0003380002B00D069E7314BDB7F3C2B00D9B0
:106CD00064E7FCF733FB61E707F03EF9132800D1C6
:106CE0005CE707F039F91628E7D157E723885A1EE1
:106CF000132A00D98FE73A78002A00D18BE70020C9
:106D00009B0701D1234B987CFCF7BAFA83E77822E2
:106D10003B78534323807EE716190020EF180020AC
:106D2000C918002004190020541B0020741C0020E6
:106D30008918002044180020901C002045180020CD
:106D4000F21800205A2200200203002090000020A8
:106D5000FE020020401B00205C1B00208C1800203D
:106D60008A180020C51C002018180020FA180020DE
:106D7000A2180020A4180020A618002000ED00E0B2
:106D80000400FA055B220020C31C0020F818002034
:106D90005D1B00205B1C00205A4D039A2B88127843
:106DA00001339BB22B80012A12D0DB0710D4564E40
:106DB00056493078431C3370554B4000C01803F0DF
:106DC000EFF83378032B00D93470012003F098FCDE
:106DD0002B889B070AD14F4B1B78002B03D14E4BBE
:106DE0001B78002B02D001224C4B1A704C4B1B78A5
:106DF000002B5DD14B4B1B785BB2002B58D102F0BE
:106E00005BFC002854D1484B1B78002B03D0474B28
:106E10001B78002B4CD0464B1878042848D0454BA3
:106E2000454A1B78002B12D044490B78002B0ED01A
:106E3000434D2D78002D0AD1012808D0013BDBB24B
:106E40000B70002B03D135490133D3740B70029BB7
:106E5000002B2DD00023019901320B80D37F002B12
:106E600001D1FCF76BFA374D2B78002B03D1344B53
:106E70001B78002B02D0022002F09AFE00F046FBA5
:106E80000023314A2B701370284A13702F4A137055
:106E90000122224B1A702E4B1A702E4B1B78002B9E
:106EA0002AD102F009FC002802D1200008F058F88D
:106EB000294B1B78002B18D1284B1A78002A14D0A4
:106EC00018780138C0B2187000280ED104F090FB79
:106ED000204B1B78002B08D003F04EFA002804D179
:106EE00009F048FF032008F03BF803F0B3FC02F080
:106EF0003BFE06F069F9D0E603F03EFA0028D0D157
:106F00000324D2E790180020F9180020A2180020CE
:106F10009A180020951800201D1B00200019002041
:106F2000F81800204218002057220020C31C00201F
:106F3000C51C00208E1B00205C1B002003190020B4
:106F40005A180020741C00200A140020C21C0020C3
:106F5000C91800205B220020CF180020061900204D
:106F6000F0B53D4B3D4DDA7F85B0531ED9B20229B5
:106F70002CD8EB18191DC97F0191D91D2933CE7F5B
:106F80001C78374B02931B780393019B002B0CD08A
:106F9000344F3B780093002B1ED0012B4BD00323A2
:106FA0003B70314B029A1B68137000212F4B029AE1
:106FB00059561078EB1C40180122DB7FC0B203F059
:106FC000ADFDFF2800D10020C4B213E0012601234B
:106FD000764234000193D4E7234B03991960731C64
:106FE00029D00099B0B203F055FD002823D0009BB2
:106FF000F4B23B701A4B1C70039BA3420CD0A879CF
:1070000002212B181C712C5403F0D4FE012004F033
:1070100065F90122164B1A700922164B1A80019B42
:10702000002B06D00F4A13780133DBB2032B10D8A4
:10703000137005B0F0BDEB1CDA7F631CAFD00021EC
:10704000A0B203F027FD0028A9D00123E4B23B70D1
:10705000D0E70023ECE7C0465F1B00205C1B00204C
:10706000D3180020341800202018002042180020D7
:10707000C9180020F6180020002170B5104B114CE3
:107080001A68114B25685956002A15D00F4B280055
:107090001B68FEF7EBFB2860206803F07DFE20688C
:1070A00003F05AFD012004F019F90922084B1A8057
:1070B000084B083A1A7070BD2800FEF7EDFBEAE7AE
:1070C0003C180020501B00204218002038180020D7
:1070D000F6180020C918002070B504000D00002823
:1070E00007D01B4A1B4B917F1970002393771A4AD4
:1070F000137004F043F80020184B194A19688B7F6D
:107100001370184A1070184A1570184DC72B15D8EF
:10711000844202D0164A2B601360FFF721FF2A68D1
:10712000144B1A60144B1A88144B1A800023144A0B
:107130001370144A1370144A137070BD002C03D0DE
:107140000B680B4A2B601360FFF796FFE7E7C0461A
:107150005C1B00202C18002041180020501B002030
:10716000D3180020341800204218002028180020CE
:1071700030180020241800205E690108F61800204D
:1071800086000020D21800204018002010B5134BB4
:10719000134A1B7812783833DBB2032A15D1062B39
:1071A00003D9104B1B78002B14D10F4B04201B78F4
:1071B000002B00D00238FEF779FA00230B4A137037
:1071C0000B4A13700B4A137010BD062B02D8FFF741
:1071D00053FFF2E7FFF7C4FEEFE7C046D3180020E5
:1071E0008A180020481B00201C1B0020401800208B
:1071F000D218002086000020144BDB7F502B20D9B2
:1072000013490A78002A0AD1124A503B1288534384
:1072100005225343104A9BB2138001230B700022B6
:107220000E4B1A700E4A0F4B116819600E4B1968FD
:107230008B7FC72B00D90B68136001220B4B1A7090
:1072400070470022044B1A80E9E7C0465E1B00200D
:10725000401800205A690108F61800208600002016
:107260002818002024180020501B0020411800205E
:10727000F8B5224B224C1A78002A02D0A2770022BD
:107280001A7000221F4B1A701F4B1F681F4B3D00C6
:107290001B78934201D01E4B1D681E4B1B78C72BD9
:1072A0001AD8A079EBB2221802211371235403F0EB
:1072B00081FDBD4204D005F00BF80122164B1A7077
:1072C00000232C34237005F0DFFA012004F006F8C7
:1072D0000122124B1A70F8BD114E3068056003F0A0
:1072E0005BFD306803F038FCBD42E9D03268012311
:1072F000A179907F05F04CFAE2E7C0462C180020F7
:107300005C1B00204218002030180020411800208B
:1073100028180020D318002000190020C9180020C8
:10732000501B0020074B1B78012B0AD0064B1B7803
:10733000012B06D001220549CB7C5340CB74044B72
:107340001A707047C51C00208A1800205C1B0020A2
:10735000E918002000220E4B1A6001230D4AD17952
:107360004B40917FD371002901D0591C9177517FF7
:10737000002901D0013353770123074A1370074ACC
:107380001370074A13700022064B1A707047C046EC
:107390003C1800205C1B0020E9180020EE1800209B
:1073A0008A000020C400002010B50F4C237F002B62
:1073B0000ED00E4BE2791B68997FA318C72908D815
:1073C0009B78A35401220A4B1A700A4B92181A7028
:1073D00010BD1879002301211A0003F09FFBFF283C
:1073E000F6D0E379E054EDE75C1B0020541B00204D
:1073F000EB180020ED18002037B5224C23683133FC
:107400001B78042B06D1204B1C22FA211B781F4825
:10741000FCF76AFC236831331B78023B012B2CD824
:10742000194B1B4C1B781B4D002B09D0A02380222D
:10743000DB0552009A6101233C202B70FDF784FC90
:1074400023006C331878FCF799FC210023002200FC
:107450006A310988663364321B8812886834019166
:1074600021880D4800910021FCF7DCFCA02380223C
:10747000DB0552009A6200232B700120FCF714FCFC
:1074800037BDC0464C1B0020C81B0020AB090000C4
:107490005C1B002005190020AC1B002030B50278D1
:1074A0000300013AD2B20020FD2A0CD801240E4D6F
:1074B00059188B4206D01A78501EC0B2FD2803D945
:1074C00000221A70012030BD232A09D02A3AD2B2F4
:1074D0001A2A07D82800D040020020402242F2D0C9
:1074E0000133E6E70020EEE7C1FF8007092802D854
:1074F0003030C0B2704703000A3BFF20052BF9D89B
:10750000014AD05CF6E7C046405A01080F2210B588
:10751000002104480DF036FE0022034B1A70034B85
:107520001A7010BD5C1800205B1800205A1800204B
:10753000F8B50A4F06003C78002C0BD1084D0E22FE
:107540002D2128000DF01EFEAC73631C3B70044B14
:107550001E5501E00D2CF8D9F8BDC0465B1800207F
:107560005C18002073B5264A1378012B0CD0254BEC
:107570001B6831331978042940D81523CB40DB0729
:107580003CD50023137073BD1F4D002313701F4B98
:107590001F4C1B88181CC72B00D8C82023006C3335
:1075A0001B781C4E80B2002B06D0A0238022DB0566
:1075B00052009A6101233370FDF7C6FB23006C3340
:1075C0001878FCF7DBFB2100230022006A310988D0
:1075D000663364321B881288683401912188280040
:1075E00000910121FCF71EFCA02380220020DB0576
:1075F00052009A623070FCF757FBC4E7064DC4E7AF
:10760000431800204C1B00206B180020BE1B0020DC
:107610005C1B0020051900209A1B002010B51C4B94
:107620001B78002B07D0002924D1002822D0022269
:10763000184B1A701EE0002918D1174B1B78002830
:1076400019D1164A1278002A01D1002B01D0032B40
:1076500010D10123124A11784B40137003D0114A04
:10766000114B12781A70114B0122E2E7002801D069
:10767000FFF758FE10BD074A032B02D001231370F9
:10768000F8E70B4909780029F8D01370094BEBE7AC
:10769000741C002089180020C51C00205B220020DB
:1076A0000A14002074690108041900200019002040
:1076B00057220020F1180020002370B5484D2B7090
:1076C000984203D0474B1B78002B23D0464B1B78A6
:1076D000012B13D1454D2B78002B10D0002002F048
:1076E00069FF0024424B20001C702C7003F080FFC7
:1076F000404B1B78012B01D03F4B1C7070BDFEF737
:10770000D9F83E4B19780029E8D00A224A433C4B6D
:107710001A70E6E701F0D0FF364C002807D001F0E0
:10772000DBFF384B1B78002B30D0374B2CE0374B2E
:107730001B785BB2002B02D0FFF79AFDF1E7344BC8
:107740001B78002B05D009F0E7F803222A4B1A70AA
:10775000E7E72378032B16D0234A1278012A05D1B4
:10776000274A1278002A01D12A70C7E7012B02D0DC
:107770000022214B1A702749274B09781A780029D3
:1077800015D1002A1AD1254B01221A700022244B50
:107790001A702378012B04D0174B1978032900D0D5
:1077A0001A7001221F4B1A701F4B1A70A6E7002A8D
:1077B00004D11E4A1278002A0ED01A701B781C4978
:1077C0000E2B01D80022CA54184A1A4813700DF023
:1077D000E1FC0122184B1A70FFF798FED3E7C04670
:1077E000741C0020171900208A180020D4180020CB
:1077F000DE180020C51C0020C4000020921B0020C1
:1078000002190020CF180020F01800204218002094
:10781000572200205A1800205B180020E71800208B
:10782000CE18002000190020C91800205918002087
:107830005C1800206B18002043180020F7B5BE4CE0
:107840000D00637DE679002B0CD0022811D10122B6
:10785000BA4B1A70FFF77EFD002D0AD00122B84BFB
:107860001A7006E0B74BB64F1B78012B02D10223EA
:107870003B70F7BD01233B70122800D994E1FBF760
:107880003DF81300160088008B009300A200000151
:10789000030106011001930123012F0193019301BC
:1078A000930193014F013501FDF77CFBE1E7A64B06
:1078B00019688B7F3833DBB2062B3FD90022A34BEC
:1078C0001A70A34B01321A70237F002BCFD0A14B2B
:1078D0001B78002BCBD1A04B1B785BB2002B0BD0BD
:1078E0009E4B1B78032BC4D19D4B1B78002BC0D023
:1078F0009C4B1B88002BBCD0A35DC72BB9D8482359
:107900007343E3181A00A43212789233383AD2B291
:10791000A2551A7003F032FC934C206803F03CFA35
:10792000206803F019F9012003F0D8FC01238F4AE5
:1079300013708F4A13708F4A13709AE70A0030321F
:107940001378062B07D109698B480D68854202D848
:107950008A4B0B608DE70133DBB21370042B14D11B
:10796000874B1B78002B01D105331370137801224C
:10797000383BDBB2A355A419A3707D4B1A706F4B33
:1079800092181A707F4B00226AE7062BEED900236B
:10799000EBE76A4A13705DE7684A1370FFF704FD6E
:1079A000002D00D063E764E70020684B1870A27FC9
:1079B000754BA0771A700122654B1A7001F0F8FD23
:1079C000704B02224CE7002902D00AF0A5FCD9E74F
:1079D00001F072FE002800D04BE75B4B1968887FEE
:1079E000C72823D90B69E1791B684A4251414822D3
:1079F0004A43664EA218506F654A9D196549664C08
:107A0000954202D88519954203D900230B60236063
:107A10002DE70A68206055426A41524213400B60CC
:107A2000984200D325E70860236022E75B4B1A5C8D
:107A3000002A01D01D541CE70E000A000F002E364C
:107A40002F32337814785B00A4002D3723433C7821
:107A50002343DBB2062B01D80133DDB201242B0016
:107A600023403B706B082340AD0833701570230032
:107A70002200009404F02AFE304B1C70484B1C700E
:107A8000F7E6FDF7A3F9F4E6FDF7CCF9F1E60121FD
:107A90002D4B1B682A331A784A401A70334B1970E1
:107AA000E7E600223F4B1100187802F0F3FF0028B0
:107AB00000D175E73B4BA2191B7813710122A35526
:107AC0002B4B1A701D4B7CE7627C131C082A00D9D3
:107AD0000823013363740122184B1A701B4B52E7C1
:107AE000637C002BF6D0013BDBB2F3E7164C236836
:107AF0000733D87F02F0EAFAC0B2162806D8256804
:107B00000130C0B202F0DCFA0735E87723689B7FCA
:107B10003833DBB2062BDED80122144B1A70DAE7B9
:107B2000094C23680733D87F02F0D0FAC0B200288E
:107B3000ECD025680138E4E75C1B0020ED1800203C
:107B400089180020C51C0020541B00200A140020A6
:107B500000190020F8180020421800208A18002080
:107B6000D2180020F6180020501B0020EA18002030
:107B7000EB180020C9180020FFE0F50500E1F5052D
:107B8000441B0020C4000020CC180020806967FF3F
:107B900080AF2A233C180020381800201E1900202E
:107BA000EC180020991B0020014A137096E7C0468C
:107BB0000019002070B50E00110000222A4B2B4C3A
:107BC0001A702B4B1A70E379E55C2A4B1B789642AE
:107BD00002D1904221D170BD002BFCD10028FAD0F7
:107BE0000022254B9A56002A33D12B003833DBB2C2
:107BF000062B1CD8214D2868FDF74EFE040002F02C
:107C0000A1FB00280BDB2B6820001C60FBF790FE1B
:107C1000FBF7BCFE01221A4B03E0002B03D0194BEB
:107C200002221A70D7E70122164B1A70D8E768189B
:107C30001300C0B202F072FFFF28CCD08542CAD038
:107C4000E379E21810710122E0540F4B1A700F4BC8
:107C5000E6E70020FFF740FA012200210C4B1A80D2
:107C60000C4B19700C4BDCE7201B00205C1B002028
:107C7000211B0020741C002042180020541B0020EF
:107C8000EA18002089180020EB180020ED180020C9
:107C9000F618002086000020F1180020002270B5A0
:107CA000104D11000400EE7902F0F4FE002807D117
:107CB0000D4B1B78012B02D802220C4B1A7070BDA1
:107CC00000230221094AE4B21370AA191471084A68
:107CD000AC551170074A1370074A1370E87903F026
:107CE00069F8ECE75C1B00200419002089180020CB
:107CF000ED180020201B0020211B002070B5154B23
:107D00001B689B7FC72B17D800220A251300124C33
:107D1000124E2178D0B281420FD8002B13D1032903
:107D20000AD100220121013B22700D4A98B2117044
:107D3000FFF7B4FF04F0CCFA70BD6B43B05C0132C6
:107D40001B189BB2E6E7581E80B20329E9D0FFF763
:107D5000A5FFF1E7541B0020741C00207E1C0020AE
:107D600004190020F0B5B84B85B001931B780500CD
:107D70000C001600002B0AD0102808D00D2806D0C1
:107D8000002E21D1002C1FD00222B04B1BE0B04F9F
:107D90003B78002B1AD0002C00D177E2002E00D0C7
:107DA00042E22800FFF7A2FBFF2800D155E2FFF7CF
:107DB000BFFBA84AA84B12781A700122A74B1E706D
:107DC000A74B1A70A14B1A7005B0F0BD122DD7D871
:107DD0002800FAF793FD130013001300130013009B
:107DE00013001300130013001300E700770185014F
:107DF0008D01D1010F02140213001300002E16D0C2
:107E0000002CE1D0974B1B78002BDDD1964A1178DE
:107E1000002902D01370914A137000210122934B64
:107E20001970934B1A702800FFF708FDCCE7002C5F
:107E300001D0864B8AE08D4B1A78002A00D098E05A
:107E40008C4B1B785BB2002B06D0052DBCD88A4B1F
:107E5000DD7704F019FDB7E7884E2800F379019328
:107E600004F0D0FF7B4B7C4F1D783D70FFF746FF41
:107E70007A4B1C70824C2268937FC72B02D8AD08C6
:107E80003D70A1E73833DBB2062B00D97CE71369DC
:107E90001A687C4B93429B415B4206330293724BC0
:107EA00003931B78002B00D18EE7029A93424FD1A7
:107EB0002D093D7004F0BEFF039B1D7802F0BEFD4E
:107EC000002102000A20029B5B1BDBB28B4245D1E2
:107ED00064206D4B50431D686C4A5768A8420AD312
:107EE000B8423FD36A4A1568A8423BD2EB195B08F7
:107EF000984200D23D00280002F0F6F823683033A3
:107F00001A7882420DD0C0B21870019B3838C0B2C6
:107F1000F054F318987004F0DBF90221019802F094
:107F200049FF23682800998B02F008F9B8420AD368
:107F3000574B1B68984206D2DA195208904216D263
:107F40002368988B381A23681860524B01223AE74D
:107F500028000321FAF7DCFCC5B2AAE7013142434D
:107F6000C9B2B3E75D6B8542C5D90500C3E7180008
:107F7000E9E701211C703E4B1970082D02D1FDF775
:107F8000F1F921E7092D02D1FCF784FF1CE7072D49
:107F900000D048E7394B5B7D002B00D014E70BF095
:107FA00051FC11E7002C21D0002E00D141E7314BCC
:107FB0001B785BB2002B2ED002F0DEF9002804D132
:107FC000354B1B88092B00D8FEE62D4B334A1B6826
:107FD000997F01235354324A1370324A1370324A44
:107FE000324B12681A60FFF7D1F8EDE6002E00D090
:107FF000EAE63B78002B00D0E6E61B4B1A781E70B1
:10800000002A00D094E01B4B1B785BB2002B4FD0B2
:10801000FFF72EF9D8E6154A1370124B1B78002B88
:1080200000D0D1E610490878002802D00B700B4927
:108030000B700023012113700D4B0A000A201970E8
:10804000FDF7DEF8C0E6C0465B220020891800205C
:108050005A1800207469010804190020C400002087
:10806000F1180020C51C0020741C00200A140020F8
:1080700000190020421800205F1B00205C1B00201C
:10808000541B0020FFE0F50578680108B868010876
:10809000B0680108EA180020F61800201E19002018
:1080A000ED180020EC1800202418002028180020CB
:1080B000834B5B7D002B00D086E60122814B1A703A
:1080C000814B80E6814B1B78002B02D000210C20D5
:1080D000AAE60122524231002000FFF76BFD73E651
:1080E0007A4B01221B78002BF5D000210B209BE658
:1080F000002E28D1002C00D166E60122744B1A70A4
:10810000019B1B78002B1BD1724A127852B2002AB5
:1081100011D1714A1378002B00D155E60A21013B99
:10812000DBB213706D4AD1546D4A6E4B12781A70DF
:108130000022654B47E66C4A1370FFF799F8F7E7A2
:10814000FCF730FF40E6002C00D13DE6624D674A67
:108150002B7811780B4303D13B78002B00D133E609
:1081600000246348147021000F223C700DF00AF8BF
:10817000554B2C701C705CE6514B5A7D002A00D088
:1081800022E65C4A1278012A00D11DE6524A127892
:10819000002A00D0F4E5002E09D04C4A10780028BF
:1081A00031D1002C00D10FE6FCF780FF41E6002C16
:1081B00000D009E6454A1278002A27D10022454B13
:1081C0009A56434B002A2CD14B4A1268002A28D1D8
:1081D00001250E32494846491D700CF0E3FF434B20
:1081E0003F4A1C7012783F4B3D701A70364B1C7022
:1081F000434BABE631002000FFF710FAE4E5200026
:10820000FFF75AFAE0E5002C00D0DDE500212F4A07
:108210001170987F3B4A99771070012001F0C8F9DE
:10822000294B02221A70E3E7122D00D9CCE5280071
:10823000FAF75AFBE6FDE6FDE6FDE6FDE6FDE6FDA6
:10824000E6FDE6FDE6FDE6FDBAFE48FF56FF8CFFC3
:10825000A2FFE0FFE5FFE6FDE6FD122D00D993E564
:108260002800FAF741FBE4FDE4FDE4FDE4FDE4FD54
:10827000E4FDE4FDE4FDE4FDE4FDE6FD2FFF3DFF4C
:1082800047FF89FFC7FFCCFFE4FDE4FD122D00D9B5
:1082900076E52800FAF728FBB2FDB2FDB2FDB2FD8B
:1082A000B2FDB2FDB2FDB2FDB2FDB2FDAAFE16FFF7
:1082B00024FF2CFF70FFAEFFB3FFB2FDB2FDC0463E
:1082C0005C1B0020E5180020C40000200A140020D8
:1082D0008918002042180020741C00207E1C0020F9
